:0200000460009A
:102000000000008135230060892300608B2300607D
:102010008D2300608F23006091230060000000008A
:10202000000000000000000000000000932300609A
:102030009523006000000000972300609923006052
:10204000893700609137006099370060A1370060E0
:10205000A9370060B1370060B9370060C137006050
:10206000C9370060D1370060D9370060E1370060C0
:10207000E9370060F1370060F9370060013800602F
:10208000093800601138006019380060213800609C
:10209000293800603138006039380060413800600C
:1020A000493800605138006059380060613800607C
:1020B00069380060713800607938006081380060EC
:1020C000893800609138006099380060A13800605C
:1020D000A9380060B1380060B9380060C1380060CC
:1020E000C9380060D1380060D9380060E13800603C
:1020F000E9380060F1380060F938006001390060AB
:102100000939006011390060193900602139006017
:102110002939006031390060393900604139006087
:1021200049390060513900605939006061390060F7
:102130006939006071390060793900608139006067
:10214000893900609139006099390060A1390060D7
:10215000A9390060B1390060B9390060C139006047
:10216000C9390060D1390060D9390060E1390060B7
:10217000E9390060F1390060F9390060013A006026
:10218000093A0060113A0060193A0060213A006093
:10219000293A0060313A0060393A0060413A006003
:1021A000493A0060513A0060593A0060613A006073
:1021B000693A0060713A0060793A0060813A0060E3
:1021C000893A0060913A0060993A0060A13A006053
:1021D000A93A0060B13A0060B93A0060C13A0060C3
:1021E000C93A0060D13A0060D93A0060E13A006033
:1021F000E93A0060F13A0060F93A0060013B0060A2
:10220000093B0060113B0060193B0060213B00600E
:10221000293B0060313B0060393B0060413B00607E
:10222000493B0060513B0060593B0060613B0060EE
:10223000693B0060713B0060793B0060813B00605E
:10224000893B0060913B0060993B0060A13B0060CE
:10225000A93B0060B13B0060B93B0060C13B00603E
:10226000C93B0060D13B0060D93B0060E13B0060AE
:10227000E93B0060F13B0060F93B0060013C00601D
:10228000093C0060113C0060193C0060213C00608A
:10229000293C0060313C0060393C0060413C0060FA
:1022A000D46A00600000008004000000D46A00606E
:1022B0000000008100000000D46A006000000020DF
:1022C00000000000D46A0060000000000000000070
:1022D000D46A00600000202000000000040000809C
:1022E00064000000000000810000000000000020E9
:1022F000000000000000000000000000000020209E
:10230000000000000023934209D210B450F8044B9F
:1023100041F8044B04339342F8D310BC7047704724
:10232000002303E0002240F8042B04338B42F9D34E
:102330007047FFFF72B6104B83F3088801F084F9F1
:102340000E4B07E003F10C049A6859681868FFF710
:10235000D9FF23460A4A9342F4D306E01C46596843
:1023600054F8080BFFF7DCFF2346064A9342F5D3E7
:1023700062B602F0CDFDFEE700000081A022006001
:10238000DC22006004230060FEE7FEE7FEE7FEE7D4
:10239000FEE7FEE7FEE7FEE7FEE7FEE780B48BB070
:1023A00000AFF860B9607A60FB687B617B6953E8D5
:1023B000003F3B613B697B62BB68DA437B6A134049
:1023C0007A6813437B627B6A3B62FB68FB61F96955
:1023D0003A6A41E80023BB61BB69002BE4D100BF2E
:1023E00000BF2C37BD4680BC7047FFFF80B586B06C
:1023F00000AF03460A46FB8013467B71B7F90630EF
:102400001B0A7B61FB8803F01F033B617B69062B82
:1024100002D90C4803F060FB7B699A000A4B134415
:10242000FB6003223B6902FA03F17A793B6902FA05
:1024300003F31A46F868FFF7B1FF00BF1837BD462F
:1024400080BD00BFDC5A006068C00F4080B582B01C
:1024500000AF0346FB80B7F9063003211846FFF7AB
:10246000C5FF00BF0837BD4680BD80B485B000AF52
:10247000F860B9607A603B60BB6803F00701FB69F4
:102480001B0103F01002FB680A431A607B68002BF3
:1024900002D07B683A681A6000BF1437BD4680BC22
:1024A000704780B485B000AFF860B9607A603B6077
:1024B000BB69002B02D0BB69FA691A6000BF1437F0
:1024C000BD4680BC704780B500AF00F003F800BF88
:1024D00080BDFFFF80B582B002AF40F20240FFF73F
:1024E000B5FF00230193254B009300230022022116
:1024F0002348FFF7BAFF00230193224B00930023E8
:10250000002202212048FFF7B0FF002301931F4B58
:1025100000930023002205211D48FFF7A6FF00239A
:1025200001931C4B00930023002205211A48FFF75A
:102530009CFF41F2B0030193104B00930023002253
:1025400002210F48FFF7ADFF45F2B00301930F4B97
:1025500000930023002205210D48FFF7A2FF45F25A
:10256000B00301930B4B00930023002205210A487E
:10257000FFF797FF00BFBD4680BD00BFDC821F4054
:10258000EC801F40E0821F40F0801F40D0831F403E
:10259000E0811F40D4831F40E4811F4080B48BB092
:1025A00000AFF860B9607A60FB687B617B6953E8D3
:1025B000003F3B613B697B62BB68DA437B6A134047
:1025C0007A6813437B627B6A3B62FB68FB61F96953
:1025D0003A6A41E80023BB61BB69002BE4D100BF2C
:1025E00000BF2C37BD4680BC7047FFFF80B584B06C
:1025F00000AF786039607B689B0EFB607B68DAB265
:102600001F4B13441A687B685B0BC3F30C017B6898
:102610001B0A03F01F0301FA03F3DB4302EA030181
:102620007B681B0A03F01F033A689A407B685B0BC8
:10263000C3F30C007B681B0A03F01F0300FA03F3CB
:102640001A407B68D8B20E4B0344184641EA020395
:102650000360FB68202B02D90A4803F03DFAFB68AF
:10266000202B09D000BF064B9A6CFB6822FA03F3BB
:1026700003F00103002BF6D100BF1037BD4680BD2B
:1026800000C00F40485B006080B584B000AF786048
:1026900039607B689B0EFB607B68DAB21F4B13448A
:1026A0001A687B685B0BC3F30C017B681B0A03F0A1
:1026B0001F0301FA03F3DB4302EA03017B681B0AF1
:1026C00003F01F033A689A407B685B0BC3F30C006E
:1026D0007B681B0A03F01F0300FA03F31A407B68B0
:1026E000D8B20E4B0344184641EA02030360FB686C
:1026F000202B02D90A4803F0EFF9FB68202B09D000
:1027000000BF064B9A6C0121FB6801FA03F31340EA
:10271000002BF6D100BF1037BD4680BD00C00F4072
:10272000C45B006080B586B000AF03460A46FB80FC
:1027300013467B71B7F906301B0A7B61FB8803F0F7
:102740001F033B617B69062B02D90C4803F0C4F9D7
:102750007B699A000A4B1344FB6003223B6902FA2F
:1027600003F17A793B6902FA03F31A46F868FFF736
:1027700015FF00BF1837BD4680BD00BFDC5A0060A2
:1027800068C00F4080B582B000AF0346FB80B7F948
:10279000063000211846FFF7C5FF00BF0837BD46C9
:1027A00080BDFFFF80B483B000AF7860034A7B68D0
:1027B000136000BF0C37BD4680BC70474C000080E2
:1027C00080B483B000AF7860034A7B68136000BFB9
:1027D0000C37BD4680BC70475000008080B485B087
:1027E00000AFF860B9601346FB71FB79002B0BD08A
:1027F000BB681B0CC3F30B02FB68134404331A467B
:102800004FF4803313600AE0BB681B0CC3F30B0268
:10281000FB68134408331A464FF48033136000BF3B
:102820001437BD4680BC704780B485B000AF786077
:102830000B46FB701346BB70FB78032B12D97B68E9
:102840005A68FB78032101FA03F3DB431340FB6072
:10285000BB7803F00302FB789A40FB681A437B685D
:102860005A6011E07B685A68FB78072101FA03F38C
:10287000DB431340FB60BB7803F00702FB789A4010
:10288000FB681A437B685A6000BF1437BD4680BCA2
:102890007047FFFF80B485B000AF78600B46FB70D7
:1028A0001346BB707B689A680A4B1340FB60FB7849
:1028B0009B0603F08062FB681A43BB781B0403F499
:1028C0007F031A437B689A6000BF1437BD4680BC03
:1028D000704700BFFFFF00FB80B500AF00F002F8BB
:1028E00000BF80BD80B582B000AF4FF40040FFF75D
:1028F00067FFD74BD3F8C032D54A43F48033C2F8D0
:10290000C032D34BD3F8C032D14A23F40033C2F8DB
:10291000C032D048FFF746FF002002F03DF802F039
:1029200089F8012002F06EF8CB4B1B6823F0FF03FF
:10293000C94A43F07F0313600121C848FFF756FEE0
:102940000121C748FFF752FEC64BDB6823F01F0387
:10295000C44A43F01303D36000BFC24B1B6803F0AB
:102960000043B3F1004FF8D10021BF48FFF78CFEC0
:102970004FF48870FFF706FF4FF48470FFF702FFF3
:1029800040F21620FFF7FEFE4FF40670FFF7FAFE46
:1029900040F20E20FFF7F6FE0321B448FFF774FE65
:1029A0000121B348FFF770FE0021B248FFF76CFE2B
:1029B0004FF48A70FFF7E6FE4FF48B70FFF7E2FEEC
:1029C0001820FFF7DFFE1A20FFF7DCFE4FF48670B9
:1029D000FFF7D8FE0121A848FFF756FE40F202603B
:1029E000FFF7D0FE0121A548FFF74EFE0021A448C5
:1029F000FFF7FCFD40F20460FFF7C4FE0121A1488F
:102A0000FFF742FE0021A048FFF7F0FD40F2022050
:102A1000FFF7B8FE01219D48FFF736FE00219C48D4
:102A2000FFF7E4FD4FF48070FFF7ACFE4FF48170C8
:102A3000FFF7A8FE4FF48270FFF7A4FE4FF48370F7
:102A4000FFF7A0FE04219348FFF71EFE02219248E3
:102A5000FFF7CCFD1620FFF795FE03218F48FFF707
:102A600013FE00218E48FFF7C1FD40F21250FFF720
:102A700089FE03218B48FFF707FE01218A48FFF7F3
:102A800003FE00218948FFF7B1FD40F21450FFF723
:102A900079FE03218648FFF7F7FD01218548FFF7FE
:102AA000F3FD00218448FFF7A1FD40F21650FFF727
:102AB00069FE03218148FFF7E7FD01218048FFF708
:102AC000E3FD00217F48FFF791FD40F20620FFF76C
:102AD00059FE4FF40270FFF755FE40F20A20FFF74F
:102AE00051FE00217848FFF7CFFD00217748FFF71E
:102AF0007DFD0E20FFF746FE1220FFF743FE10205B
:102B0000FFF740FE1420FFF73DFE01217048FFF75C
:102B1000BBFD02216F48FFF769FD4FF4A360FFF78B
:102B200031FE1C20FFF72EFE0C20FFF72BFE4FF48A
:102B30008C70FFF727FE40F20230FFF723FE40F2D1
:102B40000630FFF71FFE40F21A50FFF71BFE40F25F
:102B50000E60FFF717FE00215F48FFF795FD00218B
:102B60005E48FFF743FD40F20A30FFF70BFE0121FC
:102B70005B48FFF789FD03215A48FFF785FD0521D2
:102B80005948FFF733FD40F20E50FFF7FBFD0121DE
:102B90005648FFF779FD07215548FFF775FD0321DA
:102BA0005448FFF723FD40F20250FFF7EBFD0121EF
:102BB0005148FFF769FD07215048FFF765FD0321E4
:102BC0004F48FFF713FD4FF44070FFF7DBFD012185
:102BD0004C48FFF759FD07214B48FFF755FD0321EE
:102BE0004A48FFF703FD00214948FFF7FFFC494829
:102BF00001F030FF01F06CFF012247491448FFF754
:102C0000EDFD134BD3F87031114A23F40043C2F8A1
:102C100070310F4BD3F870310D4A23F40003C2F822
:102C200070310B4B1B6F0A4A43F400531367084B78
:102C3000D3F8A030064A23F40053C2F8A030044B66
:102C4000D3F8A03023F4E033014A43F4803365E045
:102C500000800D4000366E0100C00F40186C0080EF
:102C6000143900140000084014EA000414680080BD
:102C700010E0004014FB00801CE0078024EB008083
:102C80001C30008024F000801C3100803CEB008070
:102C90003C69008018FA0080186400802479008064
:102CA000186E008028E6008028E007801C6A0080FB
:102CB0002CE600802CE007801C6C008028F6008049
:102CC00028F007801C6E008038F3078038320080BF
:102CD00020E207802068008024E00780242600800E
:102CE00038EC008018F7008038EF008030F9008061
:102CF00030F600803074008030EC008030E90080D5
:102D00003067008028E9008028F900802073008067
:102D10000C200080405C00600D007000C2F8A03004
:102D20006B4B0022C3F8B020694B0122C3F8C020CE
:102D3000674BD3F8A030674A1A4042F21F0313438F
:102D40007B607B6843F400237B60614BD3F8703178
:102D50005F4A43F04043C2F870315D4A7B68C2F875
:102D6000A03000BF5A4BD3F8A030002BFADA002273
:102D700059495748FFF732FD01F0B6FE0122574985
:102D80005348FFF72BFD524BD3F8E03023F00303F9
:102D90004F4A43F00103C2F8E0304D4BD3F8E03026
:102DA0004B4A43F40053C2F8E030494BD3F8E030CB
:102DB000474A43F40013C2F8E03001F07DFE0122DF
:102DC00047494348FFF70AFD414B1B6A404A43F419
:102DD0000053136203214348FFF708FC00214248D7
:102DE000FFF704FC00214148FFF700FC00214048A8
:102DF000FFF7FCFB364BD3F86031354A23F01F0355
:102E0000C2F860313B4B1B6E3A4A23F070031366E5
:102E1000384B1B6E23F00F03364A43F00103136651
:102E2000344B1B6E334A23F460031366314B1B6E25
:102E300023F4F8132F4A43F4901313662D4B1B6EA3
:102E40002C4A23F4807313662A4B1B6E294A23F005
:102E500080031366274B1B6E264A23F0807313668C
:102E6000002200212448FFF7DFFC00220321224832
:102E7000FFF7DAFC002206211F48FFF7D5FC0022ED
:102E800008211D48FFF7D0FC00220A211A48FFF74D
:102E9000CBFC002200211848FFF7FCFC164B5B68B6
:102EA000154A23F400335360134B5B69124A23F035
:102EB00080535361104B5B690F4A23F000535361F9
:102EC0000E4B0F4A1A6000BF0837BD4680BD00BFD9
:102ED00000800D4080CFFFFF0D00A0000D00E0003E
:102EE0000D0020001872008014390014186C008046
:102EF0001C26008000C00F4000C00A400000008077
:102F00000046C32380B483B000AF7860BFF35F8F07
:102F100000BF0B4A7B6843F001035360094B5B6AB7
:102F2000084A43F480335362BFF34F8F00BFBFF3AF
:102F30006F8F00BF00BF0C37BD4680BC704700BF1D
:102F400090ED00E000ED00E080B400AFBFF35F8FD4
:102F500000BF0B4B5B6A0A4A23F480335362094B70
:102F60005B68084A23F001035360BFF34F8F00BF33
:102F7000BFF36F8F00BF00BFBD4680BC704700BF6E
:102F800000ED00E090ED00E080B483B000AF786029
:102F90007B68DAB20C4B13441A687B685B0BC3F393
:102FA0000C017B681B0A03F01F0301FA03F31A40AC
:102FB0007B681B0A03F01F0322FA03F318460C3741
:102FC000BD4680BC704700BF00C00F4080B483B0D6
:102FD00000AF78607B68DAB20C4B13441A687B68E8
:102FE0005B0BC3F30C017B681B0A03F01F0301FAA0
:102FF00003F31A407B681B0A03F01F0322FA03F352
:1030000018460C37BD4680BC704700BF00C00F405B
:1030100080B400AF074BD3F8703203F01003002BDD
:1030200002D1054B1B6800E0044B1846BD4680BC2E
:10303000704700BF00800D404C00008000366E01DC
:1030400090B583B000AF1348FFF79EFF0346002BF7
:1030500010D1114801F056FD0346104AA2FB03238C
:103060009C080F48FFF7B2FF03460133B4FBF3F3AC
:103070007B600AE0FFF7CCFF04460948FFF7A6FF94
:1030800003460133B4FBF3F37B607B6818460C37CF
:10309000BD4690BD242600800D001000ABAAAAAA50
:1030A00024E0078080B582B000AFFFF7C9FF7860E9
:1030B0007B6801224FF4E131012001F0BFFF00BF26
:1030C0000837BD4680BDFFFF80B58AB000AF9B4B7F
:1030D0007B629B4A7B6AD31A3B6200233B61994B1C
:1030E0005B6903F40033B3F5003F16D1BFF34F8F94
:1030F00000BFBFF36F8F00BF924B5B69914A23F40F
:10310000003353618F4B0022C3F85022BFF34F8F1F
:1031100000BFBFF36F8F00BF00BF8A4B5B6903F432
:103120008033B3F5803F4DD1864B0022C3F8842015
:10313000BFF34F8F00BF834B5B69824A23F4803318
:103140005361BFF34F8F00BF7E4A07F10803C2F8F7
:1031500070327C4A3B1DC2F870327A4A07F10C0388
:10316000C2F87032BFF34F8F00BFBFF36F8F00BF45
:10317000744BD3F88030FB60FB685B0BC3F30E032A
:10318000BB60FB68DB08C3F309037B60BB685A01C3
:1031900043F6E07313407A6892076A491343C1F813
:1031A00074327B685A1E7A60002BEFD1BB685A1EBE
:1031B000BA60002BE5D1BFF34F8F00BFBFF36F8F15
:1031C00000BF00BFFFF7C0FE5F4B1022DA605E4B0E
:1031D0005E4A1A615C4B5E4ADA605B4B5D4A1A617B
:1031E000594B5D4ADA60584B5A4A1A61564B5B4A52
:1031F000DA60554B5A4A1A61534B1422DA60524B2B
:10320000584A1A61504B1522DA604F4B564A1A61E0
:103210004D4B564ADA604C4B534A1A614A4B544A5A
:10322000DA60494B534A1A61474B534ADA60464BBE
:10323000524A1A6102E03B6901333B613B693A6AD9
:1032400022FA03F3012BF6D83B69002B2DD07B6AC1
:103250003A6AB3FBF2F2396A01FB02F29B1A002BC5
:1032600002D0474802F038FC3B69012202FA03F31E
:103270001A463B6A934202D0424802F02DFC3B6959
:10328000042B02D8404802F027FC7B6A23F01F037E
:103290002D4A43F01903D3603B69013B5B0003F007
:1032A0003E022949394B13430B61274B384ADA60F8
:1032B000254B384A1A610620FFF724FE214B5B6933
:1032C00003F48033002B67D11E4B0022C3F8842007
:1032D000BFF34F8F00BF1B4BD3F88030FB61FB69FE
:1032E0005B0BC3F30E03BB61FB69DB08C3F309038C
:1032F0007B61BB695A0143F6E07313407A69920718
:1033000010491343C1F860327B695A1E7A61002B61
:10331000EFD1BB695A1EBA61002BE5D1BFF34F8FC5
:1033200000BF084B5B69074A43F480335361BFF326
:103330004F8F00BFBFF36F8F2FE000BF00000081F1
:103340000000008200ED00E090ED00E03F00001082
:1033500011000080390010031200006013000060AB
:10336000330003063B001003210003031600002076
:1033700017002020230003031800008031000303FE
:10338000485C0060B85C0060285D006001000803D4
:103390001A0000402B00100300BF134B5B6903F4BD
:1033A0000033002B1BD1BFF34F8F00BFBFF36F8FD4
:1033B00000BF0D4B0022C3F85022BFF34F8F00BF58
:1033C000BFF36F8F00BF084B5B69074A43F40033BC
:1033D0005361BFF34F8F00BFBFF36F8F00E000BF9B
:1033E00000BF2837BD4680BD00ED00E080B485B049
:1033F00000AF78607B68002B02D10023FB8102E0E4
:1034000042F6AF73FB81FB8918461437BD4680BC7A
:103410007047FFFF80B58AB000AF78603960002345
:10342000FB8407F10C03184600F040FE3B685B6824
:10343000FB603B681B7A3B743B685B7AFB743B68C0
:103440009B7A002B14BF01230023DBB27B773B6800
:10345000DB7A002B14BF01230023DBB23B773B68F0
:10346000DB7B002B08D03B68DB7B042B28BF0423CD
:10347000DBB2013BDBB23B753B681B7C002B08D009
:103480003B681B7C042B28BF0423DBB2013BDBB26F
:103490007B753B681B7B002B14BF01230023DBB231
:1034A000BB753B685B7B002B14BF01230023DBB2A1
:1034B000FB750123BB760123FB763B689B7B1A4699
:1034C0000B4B53F822003B681A6807F10C031946AE
:1034D00000F05CFC38623B6A002B04D0386AFFF7CE
:1034E00085FF0346FB84FB8C18462837BD4680BD0C
:1034F000845D006080B584B000AF786039607B681F
:10350000002B02D1174802F0E7FA3B68002B02D1EA
:10351000154802F0E1FA3B689B7B082B02D913485F
:1035200002F0DAFA3B689B7B1A46114B53F82230C3
:10353000002B02D10F4802F0CFFA39687868FFF704
:1035400069FF0346FB81FB89002B05D17B68BB60CB
:103550003B689A7BBB681A70FB8918461037BD46DA
:1035600080BD00BFA85D0060245E0060A45E0060B6
:10357000845D0060605F006080B586B000AFF86079
:10358000B9607A60FB68002B02D1124802F0A4FAFD
:10359000BB68002B02D1104802F09EFA7B68002B1A
:1035A00002D10E4802F098FAFB687B617B691B78B8
:1035B0001A460B4B53F822307A68B968184600F067
:1035C00047FE38613869FFF711FF03461846183780
:1035D000BD4680BD006000607C600060F4600060FB
:1035E000845D006080B586B000AFF860B9607A6035
:1035F000FB68002B02D1104802F06EFABB68002B6A
:1036000002D10E4802F068FA7B68002B02D10C4808
:1036100002F062FAFB687B617B691B781A46094BF2
:1036200053F822307A68B968184600F0DDFD0023AF
:1036300018461837BD4680BD6C610060E8610060C7
:1036400060620060845D006080B500AF444B454A15
:103650009A60454B1B899BB2434A23F001039BB2FE
:103660001381424B1B899BB2404A23F001039BB25A
:1036700013813D4B1B889BB203F00403002B07D042
:10368000394B1B889BB2384A23F004039BB213804A
:10369000364B1B889BB203F00403002B07D0334B3F
:1036A0001B889BB2314A23F004039BB21380304B3A
:1036B0001B6803F40053002B03D02D4B2D4A5A6096
:1036C00007E02B4B4CF220525A60294B4DF6281242
:1036D0005A60274B4FF6FF729A60254B1B6823F008
:1036E000A003234A43F020031360234B1B6803F01D
:1036F0000103002B05D0204B1B681F4A23F0010358
:103700001360174B5B6903F40033B3F5003F22D01D
:10371000134B5B6903F40033002B1BD1BFF34F8FB6
:1037200000BFBFF36F8F00BF0D4B0022C3F85022C4
:10373000BFF34F8F00BFBFF36F8F00BF084B5B69B4
:10374000074A43F400335361BFF34F8F00BFBFF309
:103750006F8F00E000BF00F011F800BF80BD00BF18
:1037600000ED00E00020006000800B4000000D40F4
:1037700000C00B4020C528D910E000E080B400AFA5
:1037800000BFBD4680BC704708B5FEF706FE08BD09
:1037900008B5FEF702FE08BD08B5FEF7FEFD08BD40
:1037A00008B5FEF7FAFD08BD08B5FEF7F6FD08BD41
:1037B00008B5FEF7F2FD08BD08B5FEF7EEFD08BD41
:1037C00008B5FEF7EAFD08BD08B5FEF7E6FD08BD41
:1037D00008B5FEF7E2FD08BD08B5FEF7DEFD08BD41
:1037E00008B5FEF7DAFD08BD08B5FEF7D6FD08BD41
:1037F00008B5FEF7D2FD08BD08B5FEF7CEFD08BD41
:1038000008B5FEF7CAFD08BD08B5FEF7C6FD08BD40
:1038100008B5FEF7C2FD08BD08B5FEF7BEFD08BD40
:1038200008B5FEF7BAFD08BD08B500F0C1FD08BD3A
:1038300008B500F0D1FD08BD08B500F0E1FD08BDF8
:1038400008B500F0F1FD08BD08B500F001FE08BDA7
:1038500008B500F011FE08BD08B500F021FE08BD56
:1038600008B500F031FE08BD08B5FEF796FD08BDAD
:1038700008B5FEF792FD08BD08B5FEF78EFD08BD40
:1038800008B5FEF78AFD08BD08B5FEF786FD08BD40
:1038900008B5FEF782FD08BD08B5FEF77EFD08BD40
:1038A00008B5FEF77AFD08BD08B5FEF776FD08BD40
:1038B00008B5FEF772FD08BD08B5FEF76EFD08BD40
:1038C00008B5FEF76AFD08BD08B5FEF766FD08BD40
:1038D00008B5FEF762FD08BD08B5FEF75EFD08BD40
:1038E00008B5FEF75AFD08BD08B5FEF756FD08BD40
:1038F00008B5FEF752FD08BD08B5FEF74EFD08BD40
:1039000008B5FEF74AFD08BD08B5FEF746FD08BD3F
:1039100008B5FEF742FD08BD08B5FEF73EFD08BD3F
:1039200008B5FEF73AFD08BD08B5FEF736FD08BD3F
:1039300008B5FEF732FD08BD08B5FEF72EFD08BD3F
:1039400008B5FEF72AFD08BD08B5FEF726FD08BD3F
:1039500008B5FEF722FD08BD08B5FEF71EFD08BD3F
:1039600008B5FEF71AFD08BD08B5FEF716FD08BD3F
:1039700008B5FEF712FD08BD08B5FEF70EFD08BD3F
:1039800008B5FEF70AFD08BD08B5FEF706FD08BD3F
:1039900008B5FEF702FD08BD08B5FEF7FEFC08BD40
:1039A00008B5FEF7FAFC08BD08B5FEF7F6FC08BD41
:1039B00008B5FEF7F2FC08BD08B5FEF7EEFC08BD41
:1039C00008B5FEF7EAFC08BD08B5FEF7E6FC08BD41
:1039D00008B5FEF7E2FC08BD08B5FEF7DEFC08BD41
:1039E00008B5FEF7DAFC08BD08B5FEF7D6FC08BD41
:1039F00008B5FEF7D2FC08BD08B5FEF7CEFC08BD41
:103A000008B5FEF7CAFC08BD08B5FEF7C6FC08BD40
:103A100008B5FEF7C2FC08BD08B5FEF7BEFC08BD40
:103A200008B5FEF7BAFC08BD08B5FEF7B6FC08BD40
:103A300008B5FEF7B2FC08BD08B5FEF7AEFC08BD40
:103A400008B5FEF7AAFC08BD08B5FEF7A6FC08BD40
:103A500008B5FEF7A2FC08BD08B5FEF79EFC08BD40
:103A600008B5FEF79AFC08BD08B5FEF796FC08BD40
:103A700008B5FEF792FC08BD08B5FEF78EFC08BD40
:103A800008B5FEF78AFC08BD08B5FEF786FC08BD40
:103A900008B5FEF782FC08BD08B5FEF77EFC08BD40
:103AA00008B5FEF77AFC08BD08B5FEF776FC08BD40
:103AB00008B5FEF772FC08BD08B5FEF76EFC08BD40
:103AC00008B5FEF76AFC08BD08B5FEF766FC08BD40
:103AD00008B5FEF762FC08BD08B5FEF75EFC08BD40
:103AE00008B5FEF75AFC08BD08B5FEF756FC08BD40
:103AF00008B5FEF752FC08BD08B5FEF74EFC08BD40
:103B000008B5FEF74AFC08BD08B5FEF746FC08BD3F
:103B100008B5FEF742FC08BD08B5FEF73EFC08BD3F
:103B200008B5FEF73AFC08BD08B5FEF736FC08BD3F
:103B300008B5FEF732FC08BD08B5FEF72EFC08BD3F
:103B400008B5FEF72AFC08BD08B5FEF726FC08BD3F
:103B500008B5FEF722FC08BD08B5FEF71EFC08BD3F
:103B600008B5FEF71AFC08BD08B5FEF716FC08BD3F
:103B700008B5FEF712FC08BD08B5FEF70EFC08BD3F
:103B800008B5FEF70AFC08BD08B5FEF706FC08BD3F
:103B900008B5FEF702FC08BD08B5FEF7FEFB08BD40
:103BA00008B5FEF7FAFB08BD08B5FEF7F6FB08BD41
:103BB00008B5FEF7F2FB08BD08B5FEF7EEFB08BD41
:103BC00008B5FEF7EAFB08BD08B5FEF7E6FB08BD41
:103BD00008B5FEF7E2FB08BD08B5FEF7DEFB08BD41
:103BE00008B5FEF7DAFB08BD08B5FEF7D6FB08BD41
:103BF00008B5FEF7D2FB08BD08B5FEF7CEFB08BD41
:103C000008B5FEF7CAFB08BD08B5FEF7C6FB08BD40
:103C100008B5FEF7C2FB08BD08B5FEF7BEFB08BD40
:103C200008B5FEF7BAFB08BD08B5FEF7B6FB08BD40
:103C300008B5FEF7B2FB08BD08B5FEF7AEFB08BD40
:103C400008B5FEF7AAFB08BD80B48BB000AFF860E2
:103C5000B9607A60FB687B617B6953E8003F3B6138
:103C60003B697B62BB68DA437B6A13407A68134323
:103C70007B627B6A3B62FB68FB61F9693A6A41E8F7
:103C80000023BB61BB69002BE4D100BF00BF2C3710
:103C9000BD4680BC7047FFFF80B586B000AF0346CD
:103CA0000A46FB8013467B71B7F906301B0A7B611D
:103CB000FB8803F01F033B617B69062B02D90C488C
:103CC00001F00AFF7B699A000A4B1344FB60032250
:103CD0003B6902FA03F17A793B6902FA03F31A4667
:103CE000F868FFF7B1FF00BF1837BD4680BD00BFC1
:103CF000DC5A006068C00F4080B582B000AF034658
:103D0000FB80B7F9063003211846FFF7C5FF00BF57
:103D10000837BD4680BD80B483B000AF78607B6853
:103D20009B6843F002027B689A607B689B6823F083
:103D300002027B689A6000BF0C37BD4680BC7047AA
:103D400080B584B000AF78600023FB600BE00D4AC3
:103D5000FB6852F823307A689A4201D1FB680CE084
:103D6000FB680133FB60FB68082BF0D9FB68082B6C
:103D700002D9054801F0B0FEFB6818461037BD4671
:103D800080BD00BFD86200601063006080B58CB059
:103D900000AFF860B9607A60BB68002B02D174484C
:103DA00001F09AFEBB681B68002B02D1714801F03C
:103DB00093FEBB681B7A032B02D96F4801F08CFE7F
:103DC000BB685B7A032B02D96C4801F085FE0023A7
:103DD000FB62BB681B68FB61002387F8233000236C
:103DE000FB84042387F8223049E07A6813469B005D
:103DF00013445B001946BB681B6897F8222002FB3E
:103E000003F3B1FBF3F305335D4AA2FB0323DB08A5
:103E1000BB84BB8C002B02D10123BB8406E0BB8C8E
:103E2000B3F5005F02D341F6FF73BB8497F82230ED
:103E3000BA8C02FB03F37A68B2FBF3F37B61BB68D5
:103E40001B687A699A4204D9BB681B687A69D31ADD
:103E500003E0BB681A687B69D31A3B613A69FB6966
:103E60009A4207D83B69FB6197F8223087F82330E4
:103E7000BB8CFB8497F82230013387F8223097F807
:103E80002230202BB1D9BB681B683E4AA2FB03231A
:103E90005A0913465B001344FA699A4203D940F267
:103EA0002153FB62FAE0F868FFF74AFFB861364A2F
:103EB000BB6932F913301846FFF71EFFF868FFF7A9
:103EC0002AFFFB681B69BB6297F82330032B07D9D5
:103ED00097F82330072B03D8BB6A43F40033BB6247
:103EE000BB6A23F0F853BB6297F82330013B1B06F3
:103EF00003F0F853BA6A1343BB62BA6A234B134008
:103F0000BB62FB8CC3F30C02BB6A1A43FB681A61E9
:103F1000FB681B6923F00052FB681A61FB689A6911
:103F20001B4B1340BB62BB681B791A46BB68DB7B2B
:103F30001B0203F4E0631A43BB689B7B9B0003F006
:103F400004031343BA6A1343BB62BB685B79012B5A
:103F500020D1BB681B79002B04D0BB6A23F400631B
:103F6000BB621FE0BB6A43F40063BB621AE000BFA0
:103F70009463006000640060786400601C65006009
:103F8000CDCCCCCC1F85EB51FC62006000E0FFFF84
:103F9000E8F8FFFFBB681B79002B03D0BB6A43F036
:103FA0001003BB62FB68BA6A9A61FB681B6923F461
:103FB0000053BB62BB68DB795B0303F40052BB6A4E
:103FC0001A43FB681A61BB685B7A1B04BA68127AF1
:103FD0001A43FB68DA62FB689B6A43F08802FB685D
:103FE0009A62FB689B6A43F44042FB689A622E4BDC
:103FF000BB62BB6A43F00043BB62BB6A43F440430D
:10400000BB62FB685A6ABB685B7B1B0103F0100153
:10401000BB681B7B5B0103F020030B431A43FB6867
:104020005A62BB689B7A002B05D0FB685B6A43F041
:104030000802FB685A62BB68DB7A002B05D0FB687C
:104040005B6A43F00102FB685A62BB689B79002BF4
:1040500004D0BB6A43F00053BB6203E0BB6A23F0A9
:104060000053BB62FB685A69BB6A1A43FB685A611A
:10407000FB689B69BB62BB681B7C002B03D0BB6ADF
:1040800043F40023BB62BB685B7C002B03D0BB6A9C
:1040900043F48023BB62FB68BA6A9A61FB6A1846E4
:1040A0003037BD4680BD00BF00001F4080B582B0E4
:1040B00000AF78607B68002B02D11D4801F00CFD39
:1040C00014220021786801F031FC7B684FF4E13262
:1040D0001A607B6800221A717B6800225A717B6823
:1040E00000229A717B680022DA717B6800221A72C2
:1040F0007B6800225A727B6800229A727B680022D9
:10410000DA727B6800225A737B6800221A737B681C
:1041100000229A737B680022DA737B6800221A748B
:104120007B6800225A7400BF0837BD4680BD00BFBF
:10413000C065006080B485B000AF78607B685B6963
:10414000FB607B689B6A1B0C03F0C303FA68134394
:10415000FB60FA68044B1340FB60FB681846143799
:10416000BD4680BC704700BFC3C0FFC180B584B0EE
:1041700000AF786039603A681A4B13403B603B6887
:1041800003F00303002B10D07B689B6ABB60BB6805
:1041900023F47033BB603B681B0403F44033BA68FC
:1041A0001343BB607B68BA689A627B685B6903F003
:1041B00078533A681343BB607B68BA685A61786881
:1041C000FFF7B8FF02463B681340002B03D040F2D4
:1041D0001A53FB6001E00023FB60FB6818461037B0
:1041E000BD4680BD03C01FC080B586B000AFF8607B
:1041F000B9607A60BB68002B02D1144801F06CFCF6
:10420000BB687B617B683B6111E000BFFB685B6959
:1042100003F40003002BF9D07B691B781A46FB6876
:10422000DA617B6901337B613B69013B3B613B693F
:10423000002BEAD100BFFB685B6903F48003002B0D
:10424000F9D0002318461837BD4680BD2C660060A3
:1042500080B58AB000AFF860B9607A60BB68002BA7
:1042600002D1524801F038FC00237B62BB683B62FC
:10427000FB689B69FB61FB6903F40063002B09D1B8
:10428000FB6903F01003002B06D1FB6903F0020366
:10429000002B01D0012300E00023FB76FB7E03F01E
:1042A0000103FB7676E0F868FFF744FF78617B69ED
:1042B00003F40023002B0ED04FF40021F868FFF721
:1042C00055FF0346002B02D140F21D5301E040F29E
:1042D0001A537B6244E07B6903F48033002B0DD0DA
:1042E0004FF48031F868FFF741FF0346002B02D1FD
:1042F0004FF4A46301E040F21A537B627B6903F43C
:104300000033002B0DD04FF40031F868FFF72EFF7B
:104310000346002B02D140F21F5301E040F21A5332
:104320007B627B6903F48023002B0DD04FF4802146
:10433000F868FFF71BFF0346002B02D140F21E5323
:1043400001E040F21A537B627B6A002B07D1FB68C5
:10435000DB6A1B0E03F00703002BA4D000E000BFB4
:104360007B6A002B1CD1FB7E002B0BD0FB68DB692A
:10437000DBB203F07F03DAB23B6A1A703B6A0133A7
:104380003B6207E0FB68DB69DAB23B6A1A703B6AA2
:1043900001333B627B685A1E7A60002BD7D100E064
:1043A00000BF7B6A18462837BD4680BD986600600E
:1043B00080B500AF054B5B68054A52681146054859
:1043C0009847BFF34F8F00BF00BF80BD280000801B
:1043D000040000800040184080B500AF054B9B688A
:1043E000054A9268114605489847BFF34F8F00BFB2
:1043F00000BF80BD280000800400008000801840BD
:1044000080B500AF054BDB68054AD2681146054808
:104410009847BFF34F8F00BF00BF80BD28000080CA
:104420000400008000C0184080B500AF054B1B6938
:10443000054A1269114605489847BFF34F8F00BFE0
:1044400000BF80BD280000800400008000001940EB
:1044500080B500AF054B5B69054A526911460548B6
:104460009847BFF34F8F00BF00BF80BD280000807A
:10447000040000800040194080B500AF054B9B69E7
:10448000054A9269114605489847BFF34F8F00BF10
:1044900000BF80BD2800008004000080008019401B
:1044A00080B500AF054BDB69054AD2691146054866
:1044B0009847BFF34F8F00BF00BF80BD280000802A
:1044C0000400008000C0194080B500AF054B1B6A96
:1044D000054A126A114605489847BFF34F8F00BF3F
:1044E00000BF80BD280000800400008000001A404A
:1044F00080B48BB000AFF860B9607A60FB687B6114
:104500007B6953E8003F3B613B697B62BB68DA43F0
:104510007B6A13407A6813437B627B6A3B62FB6869
:10452000FB61F9693A6A41E80023BB61BB69002B72
:10453000E4D100BF00BF2C37BD4680BC7047FFFFF1
:1045400080B586B000AF03460A46FB8013467B71F8
:10455000B7F906301B0A7B61FB8803F01F033B6140
:104560007B69062B02D90C4801F0B6FA7B699A00E8
:104570000A4B1344FB6003223B6902FA03F17A7988
:104580003B6902FA03F31A46F868FFF7B1FF00BF70
:104590001837BD4680BD00BFDC5A006068C00F40C0
:1045A00080B582B000AF0346FB80B7F90630032127
:1045B0001846FFF7C5FF00BF0837BD4680BD80B570
:1045C00084B000AFF860B9601346FB71FB791A46FE
:1045D000B968F86800F0A0F800BF1037BD4680BD8C
:1045E00080B584B000AF78600023FB6009E00D4A1D
:1045F000FB6852F823307A689A4206D0FB68013390
:10460000FB60FB68052BF2D900E000BFFB68052BBF
:1046100002D9054801F060FAFB6818461037BD461C
:1046200080BD00BF046700602867006080B586B069
:1046300000AFF860B9607A60F868FFF7D1FF786181
:104640007B69052B0DD8214A7B6932F91330B3F110
:10465000FF3F06D01D4A7B6932F913301846FFF739
:104660009FFFFB685A690121BB6801FA03F3DB4332
:104670001A40FB685A617B681B78002B0AD1FB68E3
:104680005A680121BB6801FA03F3DB431A40FB6857
:104690005A600FE07B685B781A46B968F86800F0EA
:1046A00017F8FB685A680121BB6801FA03F31A4343
:1046B000FB685A607B689B781A46B968F868FFF710
:1046C0007EFF00BF1837BD4680BD00BF1C6700607D
:1046D00080B584B000AFF860B9601346FB71BB6869
:1046E0001F2B02D90B4801F0F7F9FB79002B06D1FB
:1046F0000122BB689A40FB68C3F8882005E00122CC
:10470000BB689A40FB68C3F8842000BF1037BD46E1
:1047100080BD00BFA467006080B487B000AFF860C0
:10472000B9601346FB71BB683B61FB68DA69012124
:10473000BB6801FA03F3DB431A40FB68DA61BB682C
:104740000F2B03D8FB680C337B6105E0FB6810334B
:104750007B613B69103B3B61FB79013B042B52D8E9
:1047600001A252F823F000BF7D470060954700602A
:10477000B9470060DD470060F34700607B691A6855
:104780003B695B00032101FA03F3DB431A407B69B9
:104790001A6039E07B691A683B695B00032101FA02
:1047A00003F3DB431A403B695B00012101FA03F389
:1047B0001A437B691A6027E07B691A683B695B00D2
:1047C000032101FA03F3DB431A403B695B0002213A
:1047D00001FA03F31A437B691A6015E07B691A68D2
:1047E0003B695B00032101FA03F31A437B691A60FA
:1047F0000AE0FB68DA690121BB6801FA03F31A4396
:10480000FB68DA6100E000BF00BF1C37BD4680BC1A
:10481000704700BF80B483B000AF78607B681846F3
:10482000A0F101000028FBD100BF0C37BD4680BCC1
:104830007047FFFF2DE9B04F84B000AF786039605A
:104840007968002936D07968002088468146396821
:1048500000200A46034602FB09F008FB03F101446D
:10486000A8FB02454B191D46154A4FF00003204690
:10487000294600F0E3FE02460B46C7E90223D7E9CA
:104880000223012B02D30F4801F026F9D7E90201D8
:104890004FF003024FF0000300F0D0FE02460B463B
:1048A00012EB020A43EB030BC7E902ABBB681846E5
:1048B000FFF7B0FF00BF1037BD46BDE8B08F00BFA7
:1048C00040420F000868006080B400AF074BD3F887
:1048D000703203F01003002B02D1054B1B6800E07F
:1048E000044B1846BD4680BC704700BF00800D4099
:1048F0004C00008000366E0180B483B000AF786059
:1049000039603B681B0CC3F30B027B6813441B68C4
:1049100003F48033002B14BF01230023DBB21846BD
:104920000C37BD4680BC704780B483B000AF786060
:1049300039603B681B0CC3F30B027B6813441A6895
:104940003B6803F01F0322FA03F303F00103002B7B
:1049500014BF01230023DBB218460C37BD4680BCD0
:10496000704780B582B000AF786039603B681B0C3F
:10497000C3F30B027B6813441B689B0B03F0030318
:10498000002B03D1FFF7A0FF034600E000231846E9
:104990000837BD4680BDFFFF80B582B000AF03463B
:1049A000FB71FB7983F00103DBB2002B02D11348CA
:1049B00001F092F8124B4FF08042C3F8582100BF2B
:1049C0000F4BD3F8703203F48033002BF8D00C4B2C
:1049D0004FF48032C3F8542100BF094BD3F8503153
:1049E00003F40043002BF8D0054B4FF48032C3F89A
:1049F000582100BF0837BD4680BD00BF7C680060FD
:104A000000800D4080B483B000AF0346FB71FB799A
:104A1000002B04D1064B1022C3F8742203E0044B90
:104A20001022C3F8782200BF0C37BD4680BC704707
:104A300000800D4080B400AF054BD3F87032044ABB
:104A400043F00103C2F8703200BFBD4680BC70471E
:104A500000800D4080B483B000AF7860144B1B68B9
:104A600023F4E0327B681B799B039BB21343104A0B
:104A700043F4803313600E4B1A680E4B13407A6870
:104A8000126802F07F021343094A43F40053136093
:104A900000BF074B1B68002BFBDA054B1B68044A61
:104AA00023F48033136000BF0C37BD4680BC7047D1
:104AB00000800D4080CFFFFF80B400AF034B002289
:104AC0001A6200BFBD4680BC704700BF00800D4029
:104AD00080B400AF034B4FF480521A6700BFBD464D
:104AE00080BC704700800D4080B400AF044B4FF491
:104AF0008052C3F8E02000BFBD4680BC704700BFB5
:104B000000800D402DE9B04F98B000AFF864F96C0B
:104B10009C48FFF709FF034683F00103DBB2002B3B
:104B200001D00023E4E1F96C9648FFF71AFFF8651D
:104B3000F96C9448FFF7E0FE0346002B01D0FB6DB3
:104B4000D6E1FA6C904B9A4200F0BD81FA6C8E4B24
:104B50009A4200F2C981FA6C8C4B9A4200F0A7810C
:104B6000FA6C8A4B9A4200F2BF81FA6C884B9A42E7
:104B700000F01E81FA6C864B9A4200F2B581FA6C05
:104B8000844B9A427FD0FB6C824A934200F2AC8104
:104B9000FB6C814A934220D0FB6C7F4A934200F227
:104BA000A381FB6C7D4A934200F09081FB6C7B4AB1
:104BB000934200F29981FB6C0D2B04D0FB6C784A78
:104BC000934252D090E16F4B1B6803F07F03FA6D64
:104BD00002FB03F35B08FB6589E1FB6D00223B648C
:104BE0007A64684B1B6D0022BB63FA63D7E910340B
:104BF0002246D7E90E89414601FB02F24D4618468E
:104C00002146034603FB05F3134402464146A2FB3B
:104C100001AB5B449B46C7E914ABC7E914AB594BE6
:104C20001B6E00223B607A60D7E90023D7E91401AC
:104C300000F004FD02460B46C7E91423514B1B6BE1
:104C400003F00103002B05D0FB6D162202FB03F3DA
:104C5000FB6505E0FA6D13469B0013449B00FB6562
:104C60003B6DFA6D1344FB6541E1464B1B6903F054
:104C70000203002B01D0162200E01422FB6D02FB80
:104C800003F3FB6533E13F4B1B6F03F07F03BB6511
:104C9000FB6D00223B637A633A4BD3F880300022ED
:104CA000BB62FA62D7E90C342246D7E90AAB514617
:104CB00001FB02F25D4618462146034603FB05F35D
:104CC000134402465146A2FB01894B449946C7E969
:104CD0001489C7E914892B4BD3F890300022BB60AC
:104CE000FA60D7E90223D7E9140100F0A7FC0246D5
:104CF0000B46C7E91423FB6DBA6D03FB02F23B6D53
:104D00001344FB651F4B1B6F03F4C013B3F5801FE7
:104D100013D0B3F5801F0DD8002B03D0B3F5002FAF
:104D200004D007E0FB6D9B08FB6507E0FB6D5B08AB
:104D3000FB6503E01B4800F0CFFE00BF114BD3F82A
:104D40007021194B1340184A93420ED0164A9342D1
:104D500013D8B3F5000F13D0B3F5000F0DD8002B07
:104D60000ED0B3F5004F04D007E0FB6D9B08FB6548
:104D700007E0FB6D5B08FB6503E00C4800F0ACFE50
:104D800000BFB4E000800D401500E0000D00E00021
:104D90000D00A0000D0070000D0030000D0020007F
:104DA0000D001000E8680060008080004C69006021
:104DB000524BD3F8A03003F07F03BB65FB6D00229C
:104DC0003B627A624D4BD3F8B0300022BB61FA618E
:104DD000D7E908010B46D7E90689424602FB03F2F0
:104DE0004B4684460CFB03F3134402464146A2FBA8
:104DF00001452B441D46C7E91445C7E914453F4BFF
:104E0000D3F8C03000223B617A61D7E90423D7E9A7
:104E1000140100F013FC02460B46C7E91423FB6D96
:104E2000BA6D03FB02F23B6D1344FB65334BD3F8C1
:104E3000A03003F4C013B3F5801F13D0B3F5801F67
:104E40000DD8002B03D0B3F5002F04D007E0FB6D85
:104E50009B08FB6507E0FB6D5B08FB6503E02848EA
:104E600000F03AFE00BF254BD3F8703103F0404309
:104E7000B3F1404F0ED0B3F1404F13D8B3F1004F10
:104E800013D0B3F1004F0DD8002B0ED0B3F1804FEB
:104E900004D007E0FB6D9B08FB6507E0FB6D5B083A
:104EA000FB6503E0174800F017FE00BF1FE0134B3F
:104EB000D3F8E03003F00303BB65134ABB6D52F82F
:104EC0002330FB6513E0114BFB6510E00B4B1B6AB5
:104ED00003F00203002B01D0162200E01422FB6D28
:104EE00002FB03F3FB6502E00023FB6500BFFB6DE3
:104EF00018466037BD46BDE8B08F00BF00800D404A
:104F0000B0690060146A0060786A006040787D01D2
:104F100080B582B000AF1B4A3B1D12681146198054
:104F20000233120C1A70FEF7CFF8FDF7CCFAFDF73A
:104F3000D3FCFEF7B7F8144800F0C4F8134800F0AB
:104F4000C1F83B1D1A4604211148FFF76FFB3B1DBA
:104F50001A4603210E48FFF769FB002204210C4882
:104F6000FFF7B6FB0B494CF25030FFF763FC012210
:104F700004210748FFF7ACFB06490748FFF75AFC36
:104F8000EBE700BFC06A0060886A0060A46A006046
:104F900000001C400046C32320A10700F1B5002AF1
:104FA0004BD011F0030306D011F8014B013A00F881
:104FB000014B42D0F5E710F003031BD1102A04DBAC
:104FC000103AF0C9102AF0C0FAD2130744BF30C912
:104FD00030C0530744BF51F8044B40F8044B9307CB
:104FE00044BF31F8024B20F8024BD30744BF0C7882
:104FF000047022E0C3070AD4042A16D351F8044BE4
:10500000043A20F8024B250C20F8025BF4E7042A4E
:105010000BD351F8044B043A00F8014B250A20F851
:10502000025B260E00F8016BF1E7002A1EBF11F8A3
:10503000014B00F8014B013AF7D1F1BD80B58AB0C0
:1050400000AFB9607B600346FB731346BB73BB7B49
:10505000012B01D001232AE0174ABB7B13747B6824
:105060007B61BB68BB6100233B7700237B77012317
:10507000BB770123FB77002387F82030002387F8D4
:105080002130FB7B87F82230002387F82330002370
:1050900087F8243007F1140319460748FEF72AFA67
:1050A000054B064A9A60044B054ADA60002318460D
:1050B0002837BD4680BD00BF54000080E535006044
:1050C000793500600FB480B582B000AF00237B60FB
:1050D00007F114033B603968386900F009F878601B
:1050E0007B6818460837BD46BDE8804004B070476D
:1050F00080B584B000AF786039600023FB60094B55
:105100001B7C002B02D14FF0FF3306E03A68796830
:10511000054800F0A3F8F860FB6818461037BD4654
:1051200080BD00BF540000802D51006080B582B06A
:1051300000AF7860084B1B7C002B02D14FF0FF338F
:1051400006E0054B9B68391D01220348984701235F
:1051500018460837BD4680BD5400008080B586B033
:1051600000AFB9607A603B600346FB73BB687B614C
:105170000BE0FA7B3B6A104698473B681B685A1C59
:105180003B681A607B6901337B617A697B689A426C
:10519000EFDB00BF00BF1837BD4680BD80B48FB0C5
:1051A00000AFF860B9607A603B600023FB62FB6887
:1051B000BB62BB6A5A1CBA6200221A7000237B6071
:1051C00000237B6200233B620023FB6100237B639F
:1051D0000023BB6100233B6300237B61BB681B682A
:1051E0007B637B6B002B30D1BB6A30221A70FB6A69
:1051F0000133FB62FB6A2CE03B687A6BB2FBF3F392
:10520000BB613B68BA6902FB03F37A6BD31A3B6359
:105210003B6B092B03D83B6B30333B630AE097F8B9
:105220004030002B01D0412200E061223B6B13444F
:105230000A3B3B63BB697B63BB6A5A1CBA623A6B2D
:10524000D2B21A70FB6A0133FB627B6B002BD3D1A5
:10525000FB6A18463C37BD4680BC704780B59CB0A1
:1052600002AFF860B9607A6000233B660023FB65FB
:105270000023FB61002387F84A3000237B61BB6871
:105280007B667B6E1B78002B00F0D2817B6E1B78D7
:1052900087F8493097F84930252B0BD097F84920EB
:1052A000FB6810469847FB690133FB617B6E013355
:1052B0007B66BCE1012387F84B3000237B6500232C
:1052C00087F85B3020E07B6E01337B667B6E1B785A
:1052D00087F8493097F849302F2B0FD997F8493084
:1052E000392B0BD87A6D13469B0013445B001A468A
:1052F00097F849301344303B7B6505E07B6E013BFA
:105300007B66012387F85B3097F85B3083F00103FD
:10531000DBB2002BD7D17B6E01337B667B6E1B78B3
:105320002E2B2ED100233B65002387F85B3020E035
:105330007B6E01337B667B6E1B7887F8493097F86C
:1053400049302F2B0FD997F84930392B0BD83A6DAC
:1053500013469B0013445B001A4697F849301344E8
:10536000303B3B6505E07B6E013B7B66012387F8A4
:105370005B3097F85B3083F00103DBB2002BD7D1B1
:1053800002E07B6E013B7B667B6E01337B667B6E4E
:105390001B7887F8493097F84930642B24D097F868
:1053A0004930692B20D097F84930662B1CD097F8EC
:1053B0004930462B18D097F84930782B14D097F8FD
:1053C0004930582B10D097F849306F2B0CD097F8F4
:1053D0004930622B08D097F84930702B04D097F8E9
:1053E0004930752B40F0DC8097F84930642B03D0AE
:1053F00097F84930692B15D17B681A1D7A601B68B4
:10540000BB6107F1180107F1200097F84B300093BA
:105410000A230122FFF7C2FEF86507F12002FB6DA7
:1054200013443B6697F84930582B03D097F849301E
:10543000782B1CD197F84930782B02D1002387F8BC
:105440004B307B681A1D7A601B687B6107F1140181
:1054500007F1200097F84B30009310230022FFF74C
:105460009DFEF86507F12002FB6D13443B6697F83B
:1054700049306F2B0BD097F84930622B07D097F843
:105480004930702B03D097F84930752B6AD197F8C3
:105490004930702B0DD17B681A1D7A601B683B6107
:1054A00007F1100107F1140304221846FFF776FDF7
:1054B00004E07B681A1D7A601B687B6197F84930AD
:1054C000623B132B3AD801A252F823F02555006015
:1054D0003D5500603D5500603D5500603D55006004
:1054E0003D5500603D5500603D5500603D550060F4
:1054F0003D5500603D5500603D5500603D550060E4
:105500001D5500602D5500603D5500603D55006003
:105510003D5500603D55006035550060082387F813
:105520004A300CE0022387F84A3008E0102387F85D
:105530004A3004E00A2387F84A3000E000BF97F8B9
:105540004A2007F1140107F1200097F84B3000932F
:1055500013460022FFF722FEF86507F12002FB6DDB
:1055600013443B667A6D07F11C01FB6800930B4600
:10557000F96D2020FFF7F2FD3B6E002B54D00AE0BE
:105580003B6E5A1E3A661B781A46FB6810469847CF
:10559000FB690133FB613B6E1B78002BF0D143E0CC
:1055A00097F84930632B0BD17B681A1D7A601B6812
:1055B0007B64FB68786C9847FB690133FB6133E0DF
:1055C00097F84930732B27D17B681A1D7A601B68C6
:1055D000FB64FB6C002B27D0F86C00F011FA03463B
:1055E000FB657A6D07F11C01FB6800930B46F96DB2
:1055F0002020FFF7B3FD0AE0FB6C5A1CFA641B780D
:105600001A46FB6810469847FB690133FB61FB6C47
:105610001B78002BF0D107E097F84920FB68104673
:105620009847FB690133FB617B6E01337B6628E69B
:1056300000BFFB6918466837BD4680BD53B94AB9FB
:10564000002908BF00281CBF4FF0FF314FF0FF308A
:1056500000F06AB9ADF1080C6DE904CE00F006F86F
:10566000DDF804E0DDE9022304B070472DE9F047DE
:10567000089D0C46002B4ED194468C458646B2FAC6
:1056800082F262D94AB1C2F12003914020FA03F3B9
:105690000CFA02FC194300FA02FE4FEA1C471FFAFB
:1056A0008CF6B1FBF7F44FEA1E4307FB141143EAF3
:1056B000014304FB06F199420AD91CEB030304F1F0
:1056C000FF3080F01281994240F20F81023C634426
:1056D000591A1FFA8EF3B1FBF7F007FB101143EADA
:1056E000014300FB06F69E420AD91CEB030300F1BE
:1056F000FF3180F0FC809E4240F2F9806344023822
:105700009B1B40EA044000211DB1D3400022C5E9A3
:105710000032BDE8F0878B4205D90DB1C5E9000123
:1057200000210846F5E7B3FA83F1002946D1A342E8
:1057300002D39042C0F0F080861A64EB030301208C
:10574000002DE6D0C5E90063E3E7002A40F0908031
:10575000A1EB0C044FEA1C481FFA8CF70121B4FBA3
:10576000F8F64FEA1E4308FB164443EA044307FBDE
:1057700006F0984208D91CEB030306F1FF3402D26D
:10578000984200F2CD8026461C1A1FFA8EF3B4FB15
:10579000F8F008FB104443EA044300FB07F79F427C
:1057A00008D91CEB030300F1FF3402D29F4200F240
:1057B000B0802046DB1B40EA0640A5E7C1F1200689
:1057C0008B4022FA06F71F4320FA06FC04FA01F385
:1057D00043EA0C03F44000FA01F8380C4FEA13498D
:1057E000B4FBF0FE1FFA87FC00FB1E4449EA0444A8
:1057F0000EFB0CF9A14502FA01F20AD93C190EF18F
:10580000FF3A80F08480A14540F28180AEF1020E23
:105810003C44A4EB09041FFA83F9B4FBF0F300FB4A
:10582000134449EA044403FB0CFCA44507D93C1982
:1058300003F1FF3067D2A44565D9023B3C4443EAFB
:105840000E40A0FB0293A4EB0C049C42CE469C4667
:1058500051D34ED055B1B8EB0E0364EB0C0404FAEF
:1058600006F6CB401E43CC40C5E90064002150E75A
:10587000C2F1200320FA03F10CFA02FC24FA03F32C
:1058800094400C434FEA1C4800FA02FE1FFA8CF7C2
:10589000B3FBF8F008FB1031230C43EA014300FB93
:1058A00007F1994208D91CEB030300F1FF362CD213
:1058B00099422AD9023863445B1AA4B2B3FBF8F1C7
:1058C00008FB113344EA034401FB07F3A34208D960
:1058D0001CEB040401F1FF3613D2A34211D90239A3
:1058E0006444E41A41EA004139E70446F0E6084618
:1058F00006E7C845AED2B9EB020E63EB070C0138E0
:10590000A8E73146EDE7034699E73046D4E7D646A7
:105910007FE7634402384DE70646234608460FE713
:10592000023E634430E700BF704700BF830730B5D5
:1059300047D0541E002A3ED0CAB2034601E0013CC3
:1059400039D303F8012B9D07F9D1032C2CD9CDB203
:1059500005EB05250F2C05EB054535D9A4F1100203
:1059600022F00F0C03F1100EE6444FEA121C1A4607
:10597000156055609560D56010327245F8D10CF114
:10598000010214F00C0F03EB021204F00F0C13D001
:10599000ACF1040323F003030433134442F8045B23
:1059A0009A42FBD10CF003042CB1C9B21C4403F899
:1059B000011B9C42FBD130BD64461346002CF4D140
:1059C000F9E703461446C0E71A46A446E0E700BFDD
:1059D000FFFFFFFFFFFFFFFFFFFFFFFFFFFFFFFFD7
:1059E000FFFFFFFFFFFFFFFFFFFFFFFFFFFFFFFFC7
:1059F000FFFFFFFFFFFFFFFFFFFFFFFFFFFFFFFFB7
:105A000030B490F800F020F007016FF0000C10F0B7
:105A1000070491F820F040F048804FF000046FF048
:105A20000700D1E9002391F840F000F1080082FA64
:105A30004CF2A4FA8CF283FA4CF3A2FA8CF34BBB2F
:105A4000D1E9022382FA4CF200F10800A4FA8CF2A8
:105A500083FA4CF3A2FA8CF3E3B9D1E9042382FA76
:105A60004CF200F10800A4FA8CF283FA4CF3A2FA8B
:105A70008CF37BB9D1E9062301F1200182FA4CF2C3
:105A800000F10800A4FA8CF283FA4CF3A2FA8CF32A
:105A9000002BC6D0002A04BF04301A4612BAB2FA4C
:105AA00082F200EBD20030BC7047D1E9002304F051
:105AB0000305C4F100004FEAC50514F0040F91F886
:105AC00040F00CFA05F562EA05021CBF63EA050323
:105AD00062464FF00004AAE7FEE7FFFF433A2F4477
:105AE0006576656C6F706D656E742F4D494D5852BB
:105AF00054313035322F5653434F44452F636D6137
:105B00006B655F74656D706C6174652F74656D7025
:105B10006C6174655F70726F6A6563742F6472691B
:105B2000766572732F66736C5F636C6F636B2E6840
:105B30003A31343731203A20696E646578203C3D33
:105B40002036554C00FFFFFF433A2F446576656CC5
:105B50006F706D656E742F4D494D5852543130350C
:105B6000322F5653434F44452F636D616B655F740D
:105B7000656D706C6174652F74656D706C617465B2
:105B80005F70726F6A6563742F6472697665727391
:105B90002F66736C5F636C6F636B2E683A313338BA
:105BA00035203A20627573795368696674203C3DEC
:105BB0002043434D5F4E4F5F425553595F57414914
:105BC0005400FFFF433A2F446576656C6F706D6536
:105BD0006E742F4D494D585254313035322F565333
:105BE000434F44452F636D616B655F74656D706CE9
:105BF0006174652F74656D706C6174655F70726F30
:105C00006A6563742F647269766572732F66736C4C
:105C10005F636C6F636B2E683A31343337203A2000
:105C2000627573795368696674203C3D2043434D27
:105C30005F4E4F5F425553595F5741495400FFFF34
:105C40006400000000000000433A2F446576656C54
:105C50006F706D656E742F4D494D5852543130350B
:105C6000322F5653434F44452F636D616B655F740C
:105C7000656D706C6174652F74656D706C617465B1
:105C80005F70726F6A6563742F626F6172642F62F6
:105C90006F6172642E633A333735203A2021286EC3
:105CA0006F6E43616368655374617274202520735D
:105CB000697A652900000000433A2F446576656CD7
:105CC0006F706D656E742F4D494D5852543130359B
:105CD000322F5653434F44452F636D616B655F749C
:105CE000656D706C6174652F74656D706C61746541
:105CF0005F70726F6A6563742F626F6172642F6286
:105D00006F6172642E633A333736203A2073697AB2
:105D100065203D3D202875696E7433325F742928F3
:105D200031203C3C20692900433A2F446576656C5C
:105D30006F706D656E742F4D494D5852543130352A
:105D4000322F5653434F44452F636D616B655F742B
:105D5000656D706C6174652F74656D706C617465D0
:105D60005F70726F6A6563742F626F6172642F6215
:105D70006F6172642E633A333737203A2069203ED0
:105D80003D20350000000000004018400080184011
:105D900000C0184000001940004019400080194020
:105DA00000C0194000001A40433A2F446576656CE4
:105DB0006F706D656E742F4D494D585254313035AA
:105DC000322F5653434F44452F636D616B655F74AB
:105DD000656D706C6174652F74656D706C61746550
:105DE0005F70726F6A6563742F636F6D706F6E653D
:105DF0006E742F756172742F66736C5F616461706D
:105E00007465725F6C70756172742E633A363938DE
:105E1000203A204E554C4C20213D2068616E646C28
:105E200065000000433A2F446576656C6F706D65C0
:105E30006E742F4D494D585254313035322F5653D0
:105E4000434F44452F636D616B655F74656D706C86
:105E50006174652F74656D706C6174655F70726FCD
:105E60006A6563742F636F6D706F6E656E742F75E6
:105E70006172742F66736C5F616461707465725FC8
:105E80006C70756172742E633A363939203A204E3F
:105E9000554C4C20213D20756172745F636F6E66B6
:105EA00069670000433A2F446576656C6F706D65D5
:105EB0006E742F4D494D585254313035322F565350
:105EC000434F44452F636D616B655F74656D706C06
:105ED0006174652F74656D706C6174655F70726F4D
:105EE0006A6563742F636F6D706F6E656E742F7566
:105EF0006172742F66736C5F616461707465725F48
:105F00006C70756172742E633A373030203A2075A8
:105F10006172745F636F6E6669672D3E696E73743C
:105F2000616E6365203C202873697A656F6628730B
:105F30005F4C707561727441646170746572426126
:105F4000736529202F2073697A656F66284C505538
:105F50004152545F54797065202A292900000000BD
:105F6000433A2F446576656C6F706D656E742F4D86
:105F7000494D585254313035322F5653434F4445D2
:105F80002F636D616B655F74656D706C6174652FF7
:105F900074656D706C6174655F70726F6A6563744F
:105FA0002F636F6D706F6E656E742F756172742FD5
:105FB00066736C5F616461707465725F6C7075614B
:105FC00072742E633A373031203A204E554C4C20B3
:105FD000213D20735F4C707561727441646170740F
:105FE0006572426173655B756172745F636F6E6643
:105FF00069672D3E696E7374616E63655D00FFFFB6
:10600000433A2F446576656C6F706D656E742F4DE5
:10601000494D585254313035322F5653434F444531
:106020002F636D616B655F74656D706C6174652F56
:1060300074656D706C6174655F70726F6A656374AE
:106040002F636F6D706F6E656E742F756172742F34
:1060500066736C5F616461707465725F6C707561AA
:1060600072742E633A373738203A204E554C4C2004
:10607000213D2068616E646C65000000433A2F4446
:106080006576656C6F706D656E742F4D494D585215
:1060900054313035322F5653434F44452F636D6191
:1060A0006B655F74656D706C6174652F74656D7080
:1060B0006C6174655F70726F6A6563742F636F6D76
:1060C000706F6E656E742F756172742F66736C5F7E
:1060D000616461707465725F6C70756172742E6357
:1060E0003A373739203A204E554C4C20213D206418
:1060F00061746100433A2F446576656C6F706D651D
:106100006E742F4D494D585254313035322F5653FD
:10611000434F44452F636D616B655F74656D706CB3
:106120006174652F74656D706C6174655F70726FFA
:106130006A6563742F636F6D706F6E656E742F7513
:106140006172742F66736C5F616461707465725FF5
:106150006C70756172742E633A373830203A206C57
:10616000656E677468203E20305500FF433A2F4427
:106170006576656C6F706D656E742F4D494D585224
:1061800054313035322F5653434F44452F636D61A0
:106190006B655F74656D706C6174652F74656D708F
:1061A0006C6174655F70726F6A6563742F636F6D85
:1061B000706F6E656E742F756172742F66736C5F8D
:1061C000616461707465725F6C70756172742E6366
:1061D0003A373933203A204E554C4C20213D206827
:1061E000616E646C65000000433A2F446576656C0F
:1061F0006F706D656E742F4D494D58525431303566
:10620000322F5653434F44452F636D616B655F7466
:10621000656D706C6174652F74656D706C6174650B
:106220005F70726F6A6563742F636F6D706F6E65F8
:106230006E742F756172742F66736C5F6164617028
:106240007465725F6C70756172742E633A3739349D
:10625000203A204E554C4C20213D20646174610051
:10626000433A2F446576656C6F706D656E742F4D83
:10627000494D585254313035322F5653434F4445CF
:106280002F636D616B655F74656D706C6174652FF4
:1062900074656D706C6174655F70726F6A6563744C
:1062A0002F636F6D706F6E656E742F756172742FD2
:1062B00066736C5F616461707465725F6C70756148
:1062C00072742E633A373935203A206C656E6774E4
:1062D00068203E20305500FF0000000000401840BC
:1062E0000080184000C018400000194000401940CC
:1062F0000080194000C0194000001A40FFFF180537
:106300001C000C001801020306031A050E06FFFF0D
:10631000433A2F446576656C6F706D656E742F4DD2
:10632000494D585254313035322F5653434F44451E
:106330002F636D616B655F74656D706C6174652F43
:1063400074656D706C6174655F70726F6A6563749B
:106350002F647269766572732F66736C5F6C7075EB
:106360006172742E633A313931203A20696E737448
:10637000616E6365203C2041525241595F53495A36
:106380004528735F6C70756172744261736573291F
:1063900000FFFFFF433A2F446576656C6F706D65B3
:1063A0006E742F4D494D585254313035322F56535B
:1063B000434F44452F636D616B655F74656D706C11
:1063C0006174652F74656D706C6174655F70726F58
:1063D0006A6563742F647269766572732F66736C75
:1063E0005F6C70756172742E633A333131203A20DC
:1063F0004E554C4C20213D20636F6E66696700004E
:10640000433A2F446576656C6F706D656E742F4DE1
:10641000494D585254313035322F5653434F44452D
:106420002F636D616B655F74656D706C6174652F52
:1064300074656D706C6174655F70726F6A656374AA
:106440002F647269766572732F66736C5F6C7075FA
:106450006172742E633A333132203A203055203C39
:1064600020636F6E6669672D3E6261756452617468
:10647000655F427073000000433A2F446576656C97
:106480006F706D656E742F4D494D585254313035D3
:10649000322F5653434F44452F636D616B655F74D4
:1064A000656D706C6174652F74656D706C61746579
:1064B0005F70726F6A6563742F6472697665727358
:1064C0002F66736C5F6C70756172742E633A333132
:1064D00034203A202875696E74385F742946534C0D
:1064E0005F464541545552455F4C50554152545FAB
:1064F0004649464F5F53495A456E28626173652984
:10650000203E20636F6E6669672D3E74784669662B
:106510006F57617465726D61726B0000433A2F446E
:106520006576656C6F706D656E742F4D494D585270
:1065300054313035322F5653434F44452F636D61EC
:106540006B655F74656D706C6174652F74656D70DB
:106550006C6174655F70726F6A6563742F647269D1
:10656000766572732F66736C5F6C70756172742ED2
:10657000633A333135203A202875696E74385F7478
:106580002946534C5F464541545552455F4C505542
:106590004152545F4649464F5F53495A456E2862FF
:1065A00061736529203E20636F6E6669672D3E72B8
:1065B000784669666F57617465726D61726B00FF32
:1065C000433A2F446576656C6F706D656E742F4D20
:1065D000494D585254313035322F5653434F44456C
:1065E0002F636D616B655F74656D706C6174652F91
:1065F00074656D706C6174655F70726F6A656374E9
:106600002F647269766572732F66736C5F6C707538
:106610006172742E633A363033203A204E554C4C1A
:1066200020213D20636F6E66696700FF433A2F4467
:106630006576656C6F706D656E742F4D494D58525F
:1066400054313035322F5653434F44452F636D61DB
:106650006B655F74656D706C6174652F74656D70CA
:106660006C6174655F70726F6A6563742F647269C0
:10667000766572732F66736C5F6C70756172742EC1
:10668000633A31303335203A204E554C4C20213D71
:10669000206461746100FFFF433A2F446576656CA6
:1066A0006F706D656E742F4D494D585254313035B1
:1066B000322F5653434F44452F636D616B655F74B2
:1066C000656D706C6174652F74656D706C61746557
:1066D0005F70726F6A6563742F6472697665727336
:1066E0002F66736C5F6C70756172742E633A313112
:1066F0003030203A204E554C4C20213D20646174AE
:106700006100FFFF0000000000801B4000C01B4034
:1067100000001C4000401C4000000C40FFFF1A011C
:106720001E001A020C031E01433A2F446576656C65
:106730006F706D656E742F4D494D58525431303520
:10674000322F5653434F44452F636D616B655F7421
:10675000656D706C6174652F74656D706C617465C6
:106760005F70726F6A6563742F64726976657273A5
:106770002F66736C5F6770696F2E633A3630203A0C
:1067800020696E7374616E6365203C2041525241F2
:10679000595F53495A4528735F6770696F42617347
:1067A00065732900433A2F446576656C6F706D659B
:1067B0006E742F4D494D585254313035322F565347
:1067C000434F44452F636D616B655F74656D706CFD
:1067D0006174652F74656D706C6174655F70726F44
:1067E0006A6563742F647269766572732F66736C61
:1067F0005F6770696F2E633A313137203A207069D4
:106800006E203C2033325500433A2F446576656C48
:106810006F706D656E742F4D494D5852543130353F
:10682000322F5653434F44452F636D616B655F7440
:10683000656D706C6174652F74656D706C617465E5
:106840005F70726F6A6563742F64726976657273C4
:106850002F66736C5F636F6D6D6F6E5F61726D2E0F
:10686000633A323133203A20636F756E74203C3DB9
:106870002055494E5433325F4D415800433A2F441E
:106880006576656C6F706D656E742F4D494D58520D
:1068900054313035322F5653434F44452F636D6189
:1068A0006B655F74656D706C6174652F74656D7078
:1068B0006C6174655F70726F6A6563742F6472696E
:1068C000766572732F66736C5F636C6F636B2E6398
:1068D0003A313932203A20216279706173735874E9
:1068E000616C4F736300FFFF433A2F446576656C1C
:1068F0006F706D656E742F4D494D5852543130355F
:10690000322F5653434F44452F636D616B655F745F
:10691000656D706C6174652F74656D706C61746504
:106920005F70726F6A6563742F64726976657273E3
:106930002F66736C5F636C6F636B2E633A31303319
:1069400036203A2066616C7365000000433A2F449C
:106950006576656C6F706D656E742F4D494D58523C
:1069600054313035322F5653434F44452F636D61B8
:106970006B655F74656D706C6174652F74656D70A7
:106980006C6174655F70726F6A6563742F6472699D
:10699000766572732F66736C5F636C6F636B2E63C7
:1069A0003A31303536203A2066616C73650000005C
:1069B000433A2F446576656C6F706D656E742F4D2C
:1069C000494D585254313035322F5653434F444578
:1069D0002F636D616B655F74656D706C6174652F9D
:1069E00074656D706C6174655F70726F6A656374F5
:1069F0002F647269766572732F66736C5F636C6F58
:106A0000636B2E633A31313031203A2066616C730A
:106A100065000000433A2F446576656C6F706D65C4
:106A20006E742F4D494D585254313035322F5653D4
:106A3000434F44452F636D616B655F74656D706C8A
:106A40006174652F74656D706C6174655F70726FD1
:106A50006A6563742F647269766572732F66736CEE
:106A60005F636C6F636B2E633A31313231203A20B1
:106A700066616C736500FFFF40787D0180F0FA026B
:106A800000E1F505405973070D0A204750494F2092
:106A9000447269766572206578616D706C650D0A67
:106AA000000000000D0A20546865204C4544206910
:106AB0007320626C696E6B696E672E0D0A00FFFFB2
:046AC000010100FFD1
:046AC400F8B500BF62
:046AC800F8B500BF5E
:086ACC00A0EBFF7F01000000B8
:046AD40000A4781F83
:04000005600023353F
:00000001FF
