S01500006D61696E5F70726F6772616D6D2E73726563A6
S345600020000000008135230060892300608B2300608D2300608F230060912300600000000000000000000000000000000093230060952300600000000097230060992300604D
S34560002040C9350060D1350060D9350060E1350060E9350060F1350060F935006001360060093600601136006019360060213600602936006031360060393600604136006051
S3456000208049360060513600605936006061360060E1710060F5710060097200601D7200603172006045720060597200606D720060693600607136006079360060813600601C
S345600020C0893600609136006099360060A1360060A9360060B1360060B9360060C1360060C9360060D1360060D9360060E1360060E9360060F1360060F936006001370060C9
S345600021000937006011370060193700602137006029370060313700603937006041370060493700605137006059370060613700606937006071370060793700608137006079
S34560002140893700609137006099370060A1370060A9370060B1370060B9370060C1370060C9370060D1370060D9370060E1370060E9370060F1370060F93700600138006038
S3456000218045660060596600606D6600608166006095660060A9660060BD660060D1660060E5660060F966006009380060113800604584006019380060213800602938006029
S345600021C03138006039380060413800604938006051380060593800606138006069380060713800607938006081380060893800609138006099380060A1380060A938006029
S34560002200B1380060B9380060C1380060C9380060D1380060D9380060E1380060E9380060F1380060F93800609574006001390060093900601139006019390060213900603B
S34560002240293900603139006039390060413900604939006051390060593900606139006069390060713900607939006081390060893900609139006099390060A139006018
S34560002280A9390060B1390060B9390060C1390060C9390060D1390060D9390060E1390060309900600000008004000000309900600000008100000000309900600000002028
S345600022C00000000030990060000000000000000030990060000020200000000004000080200800000000008100000000000000200000000000000000000000000000202059
S34560002300000000000023934209D210B450F8044B41F8044B04339342F8D310BC70477047002303E0002240F8042B04338B42F9D37047FFFF72B6104B83F3088801F0A4F846
S345600023400E4B07E003F10C049A6859681868FFF7D9FF23460A4A9342F4D306E01C46596854F8080BFFF7DCFF2346064A9342F5D362B601F039FBFEE700000081A0220060F5
S34560002380DC22006004230060FEE7FEE7FEE7FEE7FEE7FEE7FEE7FEE7FEE7FEE780B48BB000AFF860B9607A60FB687B617B6953E8003F3B613B697B62BB68DA437B6A134045
S345600023C07A6813437B627B6A3B62FB68FB61F9693A6A41E80023BB61BB69002BE4D100BF00BF2C37BD4680BC7047FFFF80B586B000AF03460A46FB8013467B71B7F9063081
S345600024001B0A7B61FB8803F01F033B617B69062B06D90E4B0E4A40F2BF510E4802F020FA7B699A000C4B1344FB6003223B6902FA03F17A793B6902FA03F31A46F868FFF739
S34560002440ADFF00BF1837BD4680BD00BF588A0060C48A0060688A006068C00F4080B582B000AF0346FB80B7F9063003211846FFF7BDFF00BF0837BD4680BD80B485B000AF3A
S34560002480F860B9607A603B60BB6803F00701FB691B0103F01002FB680A431A607B68002B02D07B683A681A6000BF1437BD4680BC704780B485B000AFF860B9607A603B6026
S345600024C0BB69002B02D0BB69FA691A6000BF1437BD4680BC704780B500AF00F003F800BF80BDFFFF80B584B002AF40F20240FFF7B5FF344A3B1D1268114619800233120CC0
S345600025001A703B1D1A4603212F4803F045F82D4A3B461268114619800233120C1A703B461A460421284803F037F800230193274B00930023002202212548FFF79EFF00230A
S345600025400193244B00930023002202212248FFF794FF00230193214B00930023002205211F48FFF78AFF002301931E4B00930023002205211C48FFF780FF41F2B00301938C
S34560002580124B00930023002202211148FFF791FF45F2B0030193114B00930023002205210F48FFF786FF45F2B00301930D4B00930023002205210C48FFF77BFF00BF08373E
S345600025C0BD4680BDC08A006000001C40DC821F40EC801F40E0821F40F0801F40D0831F40E0811F40D4831F40E4811F4080B48BB000AFF860B9607A60FB687B617B6953E864
S34560002600003F3B613B697B62BB68DA437B6A13407A6813437B627B6A3B62FB68FB61F9693A6A41E80023BB61BB69002BE4D100BF00BF2C37BD4680BC7047FFFF80B584B05A
S3456000264000AF786039607B689B0EFB607B68DAB2214B13441A687B685B0BC3F30C017B681B0A03F01F0301FA03F3DB4302EA03017B681B0A03F01F033A689A407B685B0B2F
S34560002680C3F30C007B681B0A03F01F0300FA03F31A407B68D8B2104B0344184641EA02030360FB68202B06D90C4B0D4A40F269510C4802F0D5F8FB68202B09D000BF064BBA
S345600026C09A6CFB6822FA03F303F00103002BF6D100BF1037BD4680BD00C00F40D88A0060248B0060688A006080B584B000AF786039607B689B0EFB607B68DAB2214B1344F6
S345600027001A687B685B0BC3F30C017B681B0A03F01F0301FA03F3DB4302EA03017B681B0A03F01F033A689A407B685B0BC3F30C007B681B0A03F01F0300FA03F31A407B689B
S34560002740D8B2104B0344184641EA02030360FB68202B06D90C4B0D4A40F29D510C4802F07FF8FB68202B09D000BF064B9A6CFB6822FA03F303F00103002BF6D100BF1037BD
S34560002780BD4680BD00C00F40D88A0060148B0060688A006080B586B000AF03460A46FB8013467B71B7F906301B0A7B61FB8803F01F033B617B69062B06D90E4B0E4A40F2EC
S345600027C0BF510E4802F04CF87B699A000C4B1344FB6003223B6902FA03F17A793B6902FA03F31A46F868FFF701FF00BF1837BD4680BD00BF588A0060008B0060688A0060CC
S3456000280068C00F4080B582B000AF0346FB80B7F9063000211846FFF7BDFF00BF0837BD4680BDFFFF80B483B000AF7860034A7B68136000BF0C37BD4680BC7047C4070080BA
S3456000284080B483B000AF7860034A7B68136000BF0C37BD4680BC7047C807008080B485B000AFF860B9601346FB71FB79002B0BD0BB681B0CC3F30B02FB68134404331A46F4
S345600028804FF4803313600AE0BB681B0CC3F30B02FB68134408331A464FF48033136000BF1437BD4680BC704780B485B000AF78600B46FB701346BB70FB78032B12D97B68F5
S345600028C05A68FB78032101FA03F3DB431340FB60BB7803F00302FB789A40FB681A437B685A6011E07B685A68FB78072101FA03F3DB431340FB60BB7803F00702FB789A401D
S34560002900FB681A437B685A6000BF1437BD4680BC7047FFFF80B485B000AF78600B46FB701346BB707B689A680A4B1340FB60FB789B0603F08062FB681A43BB781B0403F4CC
S345600029407F031A437B689A6000BF1437BD4680BC704700BFFFFF00FB80B500AF00F002F800BF80BD80B582B000AF4FF40040FFF767FFD74BD3F8C032D54A43F48033C2F81C
S34560002980C032D34BD3F8C032D14A23F40033C2F8C032D048FFF746FF002002F081F802F0D3F8012002F0B8F8CB4B1B6823F0FF03C94A43F07F0313600121C848FFF73EFE28
S345600029C00121C748FFF73AFEC64BDB6823F01F03C44A43F01303D36000BFC24B1B6803F00043B3F1004FF8D10021BF48FFF77CFE4FF48870FFF706FF4FF48470FFF702FFC2
S34560002A0040F21620FFF7FEFE4FF40670FFF7FAFE40F20E20FFF7F6FE0321B448FFF764FE0121B348FFF760FE0021B248FFF75CFE4FF48A70FFF7E6FE4FF48B70FFF7E2FE66
S34560002A401820FFF7DFFE1A20FFF7DCFE4FF48670FFF7D8FE0121A848FFF746FE40F20260FFF7D0FE0121A548FFF73EFE0021A448FFF7E4FD40F20460FFF7C4FE0121A148B4
S34560002A80FFF732FE0021A048FFF7D8FD40F20220FFF7B8FE01219D48FFF726FE00219C48FFF7CCFD4FF48070FFF7ACFE4FF48170FFF7A8FE4FF48270FFF7A4FE4FF483702B
S34560002AC0FFF7A0FE04219348FFF70EFE02219248FFF7B4FD1620FFF795FE03218F48FFF703FE00218E48FFF7A9FD40F21250FFF789FE03218B48FFF7F7FD01218A48FFF716
S34560002B00F3FD00218948FFF799FD40F21450FFF779FE03218648FFF7E7FD01218548FFF7E3FD00218448FFF789FD40F21650FFF769FE03218148FFF7D7FD01218048FFF738
S34560002B40D3FD00217F48FFF779FD40F20620FFF759FE4FF40270FFF755FE40F20A20FFF751FE00217848FFF7BFFD00217748FFF765FD0E20FFF746FE1220FFF743FE1020BB
S34560002B80FFF740FE1420FFF73DFE01217048FFF7ABFD02216F48FFF751FD4FF4A360FFF731FE1C20FFF72EFE0C20FFF72BFE4FF48C70FFF727FE40F20230FFF723FE40F265
S34560002BC00630FFF71FFE40F21A50FFF71BFE40F20E60FFF717FE00215F48FFF785FD00215E48FFF72BFD40F20A30FFF70BFE01215B48FFF779FD03215A48FFF775FD0521BB
S34560002C005948FFF71BFD40F20E50FFF7FBFD01215648FFF769FD07215548FFF765FD03215448FFF70BFD40F20250FFF7EBFD01215148FFF759FD07215048FFF755FD032175
S34560002C404F48FFF7FBFC4FF44070FFF7DBFD01214C48FFF749FD07214B48FFF745FD03214A48FFF7EBFC00214948FFF7E7FC494802F0C8F802F004F9012247491448FFF76F
S34560002C80EDFD134BD3F87031114A23F40043C2F870310F4BD3F870310D4A23F40003C2F870310B4B1B6F0A4A43F400531367084BD3F8A030064A23F40053C2F8A030044B9F
S34560002CC0D3F8A03023F4E033014A43F4803365E000800D4000366E0100C00F40186C0080143900140000084014EA00041468008010E0004014FB00801CE0078024EB008032
S34560002D001C30008024F000801C3100803CEB00803C69008018FA00801864008024790080186E008028E6008028E007801C6A00802CE600802CE007801C6C008028F6008095
S34560002D4028F007801C6E008038F307803832008020E207802068008024E007802426008038EC008018F7008038EF008030F9008030F600803074008030EC008030E9008040
S34560002D803067008028E9008028F90080207300800C200080F88A00600D007000C2F8A0306B4B0022C3F8B020694B0122C3F8C020674BD3F8A030674A1A4042F21F031343E3
S34560002DC07B607B6843F400237B60614BD3F870315F4A43F04043C2F870315D4A7B68C2F8A03000BF5A4BD3F8A030002BFADA002259495748FFF732FD02F04EF80122574913
S34560002E005348FFF72BFD524BD3F8E03023F003034F4A43F00103C2F8E0304D4BD3F8E0304B4A43F40053C2F8E030494BD3F8E030474A43F40013C2F8E03002F015F80122B6
S34560002E4047494348FFF70AFD414B1B6A404A43F40053136203214348FFF7F0FB00214248FFF7ECFB00214148FFF7E8FB00214048FFF7E4FB364BD3F86031354A23F01F0390
S34560002E80C2F860313B4B1B6E3A4A23F070031366384B1B6E23F00F03364A43F001031366344B1B6E334A23F460031366314B1B6E23F4F8132F4A43F4901313662D4B1B6E02
S34560002EC02C4A23F4807313662A4B1B6E294A23F080031366274B1B6E264A23F080731366002200212448FFF7DFFC002203212248FFF7DAFC002206211F48FFF7D5FC002274
S34560002F0008211D48FFF7D0FC00220A211A48FFF7CBFC002200211848FFF7FCFC164B5B68154A23F400335360134B5B69124A23F080535361104B5B690F4A23F000535361B4
S34560002F400E4B0F4A1A6000BF0837BD4680BD00BF00800D4080CFFFFF0D00A0000D00E0000D0020001872008014390014186C00801C26008000C00F4000C00A400000008017
S34560002F800046C32380B483B000AF7860BFF35F8F00BF0B4A7B6843F001035360094B5B6A084A43F480335362BFF34F8F00BFBFF36F8F00BF00BF0C37BD4680BC704700BF91
S34560002FC090ED00E000ED00E080B400AFBFF35F8F00BF0B4B5B6A0A4A23F480335362094B5B68084A23F001035360BFF34F8F00BFBFF36F8F00BF00BFBD4680BC704700BFAC
S3456000300000ED00E090ED00E080B483B000AF78607B68DAB20C4B13441A687B685B0BC3F30C017B681B0A03F01F0301FA03F31A407B681B0A03F01F0322FA03F318460C372F
S34560003040BD4680BC704700BF00C00F4080B483B000AF78607B68DAB20C4B13441A687B685B0BC3F30C017B681B0A03F01F0301FA03F31A407B681B0A03F01F0322FA03F3F6
S3456000308018460C37BD4680BC704700BF00C00F4080B400AF074BD3F8703203F01003002B02D1054B1B6800E0044B1846BD4680BC704700BF00800D40C407008000366E01CD
S345600030C090B583B000AF1348FFF79EFF0346002B10D1114801F0EEFE0346104AA2FB03239C080F48FFF7B2FF03460133B4FBF3F37B600AE0FFF7CCFF04460948FFF7A6FFF4
S3456000310003460133B4FBF3F37B607B6818460C37BD4690BD242600800D001000ABAAAAAA24E0078080B582B000AFFFF7C9FF78607B6801224FF4E131012001F05DFA00BF1E
S345600031400837BD4680BDFFFF80B58AB000AFA04B7B62A04A7B6AD31A3B6200233B619E4B5B6903F40033B3F5003F16D1BFF34F8F00BFBFF36F8F00BF974B5B69964A23F46E
S3456000318000335361944B0022C3F85022BFF34F8F00BFBFF36F8F00BF00BF8F4B5B6903F48033B3F5803F4DD18B4B0022C3F88420BFF34F8F00BF884B5B69874A23F4803372
S345600031C05361BFF34F8F00BF834A07F10803C2F87032814A3B1DC2F870327F4A07F10C03C2F87032BFF34F8F00BFBFF36F8F00BF794BD3F88030FB60FB685B0BC3F30E03A7
S34560003200BB60FB68DB08C3F309037B60BB685A0143F6E07313407A6892076F491343C1F874327B685A1E7A60002BEFD1BB685A1EBA60002BE5D1BFF34F8F00BFBFF36F8F30
S3456000324000BF00BFFFF7C0FE644B1022DA60634B634A1A61614B634ADA60604B624A1A615E4B624ADA605D4B5F4A1A615B4B604ADA605A4B5F4A1A61584B1422DA60574BFD
S345600032805D4A1A61554B1522DA60544B5B4A1A61524B5B4ADA60514B584A1A614F4B594ADA604E4B584A1A614C4B584ADA604B4B574A1A6102E03B6901333B613B693A6A91
S345600032C022FA03F3012BF6D83B69002B37D07B6A3A6AB3FBF2F2396A01FB02F29B1A002B06D04C4B4C4A40F277114C4801F0B8FA3B6901229A403B6A9A4206D0484B464AE9
S345600033004FF4BC71454801F0ABFA3B69042B06D8444B414A40F27911404801F0A1FA7B6A23F01F032D4A43F01903D3603B69013B5B0003F03E0229493B4B13430B61274B4C
S345600033403A4ADA60254B3A4A1A610620FFF71AFE214B5B6903F48033002B6BD11E4B0022C3F88420BFF34F8F00BF1B4BD3F88030FB61FB695B0BC3F30E03BB61FB69DB08DB
S34560003380C3F309037B61BB695A0143F6E07313407A69920710491343C1F860327B695A1E7A61002BEFD1BB695A1EBA61002BE5D1BFF34F8F00BF084B5B69074A43F48033DA
S345600033C05361BFF34F8F00BFBFF36F8F33E000BF000000810000008200ED00E090ED00E03F00001011000080390010031200006013000060330003063B00100321000303F3
S345600034001600002017002020230003031800008031000303348B0060C08B00604C8B00609C8B0060B88B0060010008031A0000402B00100300BF134B5B6903F40033002B9C
S345600034401BD1BFF34F8F00BFBFF36F8F00BF0D4B0022C3F85022BFF34F8F00BFBFF36F8F00BF084B5B69074A43F400335361BFF34F8F00BFBFF36F8F00E000BF00BF283795
S34560003480BD4680BD00ED00E080B500AF444B454A9A60454B1B899BB2434A23F001039BB21381424B1B899BB2404A23F001039BB213813D4B1B889BB203F00403002B07D023
S345600034C0394B1B889BB2384A23F004039BB21380364B1B889BB203F00403002B07D0334B1B889BB2314A23F004039BB21380304B1B6803F40053002B03D02D4B2D4A5A6037
S3456000350007E02B4B4CF220525A60294B4DF628125A60274B4FF6FF729A60254B1B6823F0A003234A43F020031360234B1B6803F00103002B05D0204B1B681F4A23F001035C
S345600035401360174B5B6903F40033B3F5003F22D0134B5B6903F40033002B1BD1BFF34F8F00BFBFF36F8F00BF0D4B0022C3F85022BFF34F8F00BFBFF36F8F00BF084B5B69AC
S34560003580074A43F400335361BFF34F8F00BFBFF36F8F00E000BF00F011F800BF80BD00BF00ED00E00020006000800B4000000D4000C00B4020C528D910E000E080B400AFDB
S345600035C000BFBD4680BC704708B5FEF7E6FE08BD08B5FEF7E2FE08BD08B5FEF7DEFE08BD08B5FEF7DAFE08BD08B5FEF7D6FE08BD08B5FEF7D2FE08BD08B5FEF7CEFE08BD87
S3456000360008B5FEF7CAFE08BD08B5FEF7C6FE08BD08B5FEF7C2FE08BD08B5FEF7BEFE08BD08B5FEF7BAFE08BD08B5FEF7B6FE08BD08B5FEF7B2FE08BD08B5FEF7AEFE08BD9C
S3456000364008B5FEF7AAFE08BD08B5FEF7A6FE08BD08B5FEF7A2FE08BD08B5FEF79EFE08BD08B5FEF79AFE08BD08B5FEF796FE08BD08B5FEF792FE08BD08B5FEF78EFE08BD5C
S3456000368008B5FEF78AFE08BD08B5FEF786FE08BD08B5FEF782FE08BD08B5FEF77EFE08BD08B5FEF77AFE08BD08B5FEF776FE08BD08B5FEF772FE08BD08B5FEF76EFE08BD1C
S345600036C008B5FEF76AFE08BD08B5FEF766FE08BD08B5FEF762FE08BD08B5FEF75EFE08BD08B5FEF75AFE08BD08B5FEF756FE08BD08B5FEF752FE08BD08B5FEF74EFE08BDDC
S3456000370008B5FEF74AFE08BD08B5FEF746FE08BD08B5FEF742FE08BD08B5FEF73EFE08BD08B5FEF73AFE08BD08B5FEF736FE08BD08B5FEF732FE08BD08B5FEF72EFE08BD9B
S3456000374008B5FEF72AFE08BD08B5FEF726FE08BD08B5FEF722FE08BD08B5FEF71EFE08BD08B5FEF71AFE08BD08B5FEF716FE08BD08B5FEF712FE08BD08B5FEF70EFE08BD5B
S3456000378008B5FEF70AFE08BD08B5FEF706FE08BD08B5FEF702FE08BD08B5FEF7FEFD08BD08B5FEF7FAFD08BD08B5FEF7F6FD08BD08B5FEF7F2FD08BD08B5FEF7EEFD08BD20
S345600037C008B5FEF7EAFD08BD08B5FEF7E6FD08BD08B5FEF7E2FD08BD08B5FEF7DEFD08BD08B5FEF7DAFD08BD08B5FEF7D6FD08BD08B5FEF7D2FD08BD08B5FEF7CEFD08BDE3
S3456000380008B5FEF7CAFD08BD08B5FEF7C6FD08BD08B5FEF7C2FD08BD08B5FEF7BEFD08BD08B5FEF7BAFD08BD08B5FEF7B6FD08BD08B5FEF7B2FD08BD08B5FEF7AEFD08BDA2
S3456000384008B5FEF7AAFD08BD08B5FEF7A6FD08BD08B5FEF7A2FD08BD08B5FEF79EFD08BD08B5FEF79AFD08BD08B5FEF796FD08BD08B5FEF792FD08BD08B5FEF78EFD08BD62
S3456000388008B5FEF78AFD08BD08B5FEF786FD08BD08B5FEF782FD08BD08B5FEF77EFD08BD08B5FEF77AFD08BD08B5FEF776FD08BD08B5FEF772FD08BD08B5FEF76EFD08BD22
S345600038C008B5FEF76AFD08BD08B5FEF766FD08BD08B5FEF762FD08BD08B5FEF75EFD08BD08B5FEF75AFD08BD08B5FEF756FD08BD08B5FEF752FD08BD08B5FEF74EFD08BDE2
S3456000390008B5FEF74AFD08BD08B5FEF746FD08BD08B5FEF742FD08BD08B5FEF73EFD08BD08B5FEF73AFD08BD08B5FEF736FD08BD08B5FEF732FD08BD08B5FEF72EFD08BDA1
S3456000394008B5FEF72AFD08BD08B5FEF726FD08BD08B5FEF722FD08BD08B5FEF71EFD08BD08B5FEF71AFD08BD08B5FEF716FD08BD08B5FEF712FD08BD08B5FEF70EFD08BD61
S3456000398008B5FEF70AFD08BD08B5FEF706FD08BD08B5FEF702FD08BD08B5FEF7FEFC08BD08B5FEF7FAFC08BD08B5FEF7F6FC08BD08B5FEF7F2FC08BD08B5FEF7EEFC08BD26
S345600039C008B5FEF7EAFC08BD08B5FEF7E6FC08BD08B5FEF7E2FC08BD08B5FEF7DEFC08BD08B5FEF7DAFC08BD80B500AFFFF7ACFBFEF771FDFEF7B0FFFFF794FB044B054A0D
S34560003A000549064800F0D4FE04F0AAFDFEE700BFD08B0060D48B0060D88B0060E88B006080B485B000AF786039600023FB600023FB7220E07B681B685A1C7B681A607B68C0
S34560003A401B681B78BB72BB7A2F2B0DD9BB7A392B0AD8FA6813469B0013445B001A46BB7A1344303BFB6006E07B681B685A1E7B681A600123FB72FB7A002BDBD0FB68184635
S34560003A801437BD4680BC704780B489B000AFF860B9607A60FB681B68FB610623BB610023FB75FB690133FB61FB691B782E2B24D10023BB610023FB751BE0FB690133FB61E4
S34560003AC0FB691B78BB75BB7D2F2B0DD9BB7D392B0AD8BA6913469B0013445B001A46BB7D1344303BBB6104E0FB69013BFB610123FB75FB7D002BE0D002E0FB69013BFB615F
S34560003B00FB68FA691A60BB6918462437BD4680BC704780B485B000AF0346FB710023FB60FB796F2B08D0FB79622B05D0FB79702B02D0FB79752B01D10123FB60FB681846FE
S34560003B401437BD4680BC704780B485B000AF0346FB710023FB60FB79642B02D0FB79692B01D10123FB60FB6818461437BD4680BC704790B585B000AFF860B9607A60FB7044
S34560003B80BA687B68D31A7C6A2022F96AB86AA04708E03B6A5A1E3A621A787C6A0123F96AB86AA0473B6A1B78002BF2D100BF00BF1437BD4690BD90B585B000AFF860B96097
S34560003BC07A60FB70BA687B68D31A7C6A2022F96AB86AA04708E03B6A5A1E3A621A787C6A0123F96AB86AA0473B6A1B78002BF2D100BF00BF1437BD4690BD80B485B000AF94
S34560003C000346FB710023FB60FB79662B02D0FB79462B01D10123FB60FB6818461437BD4680BC704780B485B000AF0346FB710023FB60FB79782B02D0FB79582B01D10123BB
S34560003C40FB60FB6818461437BD4680BC704780B485B000AF78607B681B68FB60FB680133FB60FB681B78FB72FB7A682BF6D0FB7A6C2BF3D0FB68013BFB607B68FA681A6025
S34560003C8000BF1437BD4680BC704780B485B000AF0346FB71FB796F2B02D10823FB730DE0FB79622B02D10223FB7307E0FB79702B02D11023FB7301E00A23FB73FB7B184649
S34560003CC01437BD4680BC704780B48FB000AFF860B9607A603B600023FB62FB68BB62BB6A5A1CBA6200221A7000237B6000237B6200233B620023FB6100237B630023BB6135
S34560003D0000233B6300237B61BB681B687B637B6B002B30D1BB6A30221A70FB6A0133FB62FB6A2CE07A6B3B68B2FBF3F3BB61BB693A6802FB03F37A6BD31A3B633B6B092B25
S34560003D4003D83B6B30333B630AE097F84030002B01D0412200E061223B6B13440A3B3B63BB697B63BB6A5A1CBA623A6BD2B21A70FB6A0133FB627B6B002BD3D1FB6A1846F6
S34560003D803C37BD4680BC704780B483B000AF786039603B681B68191D3A6811601A687B681A6000BF0C37BD4680BC704780B483B000AF786039603B681B68191D3A68116071
S34560003DC01A687B681A6000BF0C37BD4680BC704780B483B000AF786039603B681B68191D3A6811601A687B681A6000BF0C37BD4680BC704780B584B000AF78600023FB604B
S34560003E00786804F0BDFD0346FB60FB6818461037BD4680BD90B5A1B004AFF860B9607A603B6000237B6600233B6600233B620023FB650023BB61FB68BB64BB6C1B78002BC2
S34560003E4000F04081BB6C1B7887F85B3097F85B30252B0BD097F85B2007F120013C6801237868A047BB6C0133BB642AE1012387F86B3007F1080207F1480311461846FFF7BD
S34560003E80CFFD786507F1080107F1480300221846FFF7FAFD386507F148031846FFF7D7FEBB6C0133BB64BB6C1B7887F85B3097F85B301846FFF748FE0346012B28D107F1E1
S34560003EC0080207F11C0311461846FFF75DFF07F11C0107F1240097F86B3000930A230122FFF7F2FE386607F124023B6E13447B663A6E07F1200303937B6802933B6801936B
S34560003F007B6E00930023796D0020FFF732FED5E097F85B301846FFF770FE0346012B06D1BB68073323F007030833BB60C6E097F85B301846FFF776FE0346012B31D197F815
S34560003F405B30782B02D1002387F86B3007F1080207F1180311461846FFF728FF07F1180107F1240097F86B30009310230022FFF7ABFE386607F124023B6E13447B663A6E93
S34560003F8097F86B1007F1200303937B6802933B6801937B6E00930B46796D0020FFF70BFE8CE097F85B301846FFF7B3FD0346012B41D197F85B30702B0DD1BB681A1DBA6047
S34560003FC01B687B6107F1140107F118030422184600F07EF807E007F1080207F1180311461846FFF7F5FE97F85B301846FFF74DFE0346FB6507F1180107F1240097F86B309F
S345600040000093FB6D0022FFF75FFE386607F124023B6E13447B663A6E07F1200303937B6802933B6801937B6E00930023796D0020FFF79FFD42E097F85B30632B0DD1BB6803
S345600040401A1DBA601B68FB64FB6CDAB207F120013C6801237868A04730E097F85B30732B24D1BB681A1DBA601B68FB66FB6E002B24D0F86EFFF7BEFE38667A6D3B6ED31A3C
S3456000408007F120013C6820227868A04709E0FB6E5A1CFA661A7807F120013C6801237868A047FB6E1B78002BF1D107E097F85B2007F120013C6801237868A047BB6C013395
S345600040C0BB64BAE600BF3B6A18467437BD4690BDF1B5002A4BD011F0030306D011F8014B013A00F8014B42D0F5E710F003031BD1102A04DB103AF0C9102AF0C0FAD2130776
S3456000410044BF30C930C0530744BF51F8044B40F8044B930744BF31F8024B20F8024BD30744BF0C78047022E0C3070AD4042A16D351F8044B043A20F8024B250C20F8025BC2
S34560004140F4E7042A0BD351F8044B043A00F8014B250A20F8025B260E00F8016BF1E7002A1EBF11F8014B00F8014B013AF7D1F1BD80B483B000AFEFF310833B603B687B60CF
S3456000418072B600BF7B6818460C37BD4680BC704780B485B000AF78607B68FB60FB6883F3108800BF00BF1437BD4680BC704780B586B000AF786043F22153FB82FFF7D8FFF5
S345600041C0B8607B68D3F830217B68D3F82C319A4249D07B68D3F82C217B68D3F830319A420CD97B68D3F82C217B68D3F83031D31A3B617B68D3F83031FB6025E07B68D3F8C7
S3456000420028217B68D3F83031D31A3B617B68D3F83031FB607B68D3F82C31002B14D07B6803F5EC60FB6803F598737A68134404333A69194603F0FCFE0346FB827B68D3F853
S345600042402C313B610023FB607B6803F23470FB6803F598737A68134404333A69194603F0E7FE0346FB82B868FFF792FFFB8A18461837BD4680BD80B586B000AFF860B960CB
S345600042801346FB80FB68002B2ED0BB68002B2BD0FB687B617B69D3F83021BB685B681A447B69C3F830217B69D3F830217B69D3F828319A4203D37B690022C3F83021FB882D
S345600042C0002B03D17869FFF772FF0EE0FB8843F22452934209D17B690022C3F830217B690022C3F82C2100E000BF1837BD4680BD80B487B000AFF860B9601346FB80FB6836
S34560004300002B1AD0BB68002B17D0FB687B617B69D3F83021BB685B681A447B69C3F830217B69D3F830217B69D3F828319A4205D37B690022C3F8302100E000BF1C37BD4697
S3456000434080BC704780B485B000AFF860B9601346FB80FB68002B0ED0BB68002B0BD0FB8843F22352934207D0FB88002B04D1044B01221A7000E000BF1437BD4680BC7047BA
S345600043800400008080B588B000AF7860396000237B617B68002BFCD03B68002BFCD0FFF7E7FEF860374BD3F82C21364BD3F830319A4216D001237B61324BD3F82C21314BC6
S345600043C0D3F828311A442F4BD3F83031D31A2D4AD2F82821B3FBF2F101FB02F29B1ABB6101E00023BB61274BD3F82821BB69D31A013BBB61BA693B689A4205D2F868FFF788
S34560004400C7FE4FF0FF3338E000233B611EE03B697A681A441B4BD3F82C31591C1948C0F82C111178174A13440A4683F83421154BD3F82C21134BD3F828319A4203D3114B65
S345600044400022C3F82C213B6901333B613B683A699A42DCDB0023FB617B69002B03D10948FFF7A5FEF861F868FFF792FEFB69002B01D13B6801E04FF0FF3318462037BD46C6
S3456000448080BD00BF0800008080B588B000AF7860396043F22153FB823B68BB617B68002BFCD03B68002B01D1002368E0364B1B68002B01D1002362E0FFF75AFE3861334BF0
S345600044C0D3F82C21314BD3F830319A4214D02F4BD3F82C212D4BD3F828311A442B4BD3F83031D31A294AD2F82821B3FBF2F101FB02F29B1AFB6101E00023FB61234BD3F80A
S345600045002821FB69D31A013BFB61FB69002B21D0FA69BB699A4206D21C4BD3F82831013BBA699A4216D3FA69BB699A4201D9BB69FB613A68BB69D31A7A681344F969184610
S34560004540FFF720FFF860FB68002B03DDFB68BA69D31ABB613869FFF71BFEBB69002B06D000F014F90346FB82FB8A002B03D1BB69002BA1D100E000BF3A68BB69D31A1846DE
S345600045802037BD4680BD00BFC00700800800008080B586B000AFF860B9603B601346FB7100237B6100237B611CE0BB681B6801337F2B08D9BB681B681946F868FFF764FF68
S345600045C0BB6800221A60BB681B681A46FB681344FA791A70BB681B685A1CBB681A607B6901337B617A693B689A42DEDB00BF00BF1837BD4680BDFFFF80B58EB000AFB960CB
S345600046007B600346FB731346BB730023FB867B683B61BB687B6100233B7600237B760123BB760123FB7600233B7700237B77FB7BBB770023FB77002387F8203007F12403CF
S3456000464010220021184604F03FF9BB7B87F82C30434B7B624FF48063BB620023FB85BB7B012B03D107F110033B631EE0BB7B022B03D143F22153FB8617E0BB7B032B03D128
S3456000468043F22153FB8610E0BB7B042B03D143F22153FB8609E0BB7B092B03D143F22153FB8602E043F22153FB86FB8E43F22152934250D04FF4F76200212A4804F004F974
S345600046C0284B4FF40072C3F82821264B264A1A60244B1B6807F124021146184603F0D2FB0346FB86FB8E002BFCD1204B1B781D4B1B681F49184603F023FC0346FB86FB8EE9
S34560004700002BFCD1174A1B49194803F0A3FC154B1B681949184603F013FC0346FB86FB8E002BFCD10F4A1549134803F093FC0D4B1B681349184603F03BFC0346FB86FB8ECD
S34560004740002BFCD1074A0F490D4803F0A1FC054B1B680D4A1360FB8E18463837BD4680BD3C030080080000800C000080040000803C0700807742006068070080F142006065
S345600047809407008045430060C007008080B400AF00BF064BD3F82C21044BD3F830319A42F7D100231846BD4680BC7047080000800FB480B582B000AF00237B6007F114033A
S345600047C03B603968386900F009F878607B6818460837BD46BDE8804004B0704780B5A4B000AF786039600023C7F888300023C7F88C300023BB6007F10C037C220021184617
S3456000480004F062F80E4B1B68002B12D007F108020C4B39687868FFF7FDFAC7F88800D7F8882007F1080311461846FFF72DFEC7F88C00D7F88C3018469037BD4680BD00BF83
S34560004840C00700809145006080B485B000AFF860B9607A60002318461437BD4680BC704780B586B002AFF860B9607A603B607B680093BB68FA6839680448FFF799FFBA6896
S34560004880F9683868FFF7E0FF00BEFDE70C8C006080B400AF074BD3F8703203F01003002B02D1054B1B6800E0044B1846BD4680BC704700BF00800D40C407008000366E01AA
S345600048C080B400AF4FF400431846BD4680BC704780B483B000AF786039603B681B0CC3F30B027B6813441B6803F48033002B14BF01230023DBB218460C37BD4680BC7047B1
S3456000490080B483B000AF786039603B681B0CC3F30B027B6813441A683B6803F01F0322FA03F303F00103002B14BF01230023DBB218460C37BD4680BC704780B582B000AF01
S34560004940786039603B681B0CC3F30B027B6813441B689B0B03F00303002B03D1FFF798FF034600E0002318460837BD4680BDFFFF80B582B000AF364B5B6903F00073002BD8
S345600049802BD0334B9B6903F44053B3F5005F11D0B3F5005F13D8002B03D0B3F5805F05D00DE02C4800F086FA78600BE0FFF770FF786007E0284800F07DFA786002E00023EA
S345600049C07B6000BF224B5B69DB0E03F0070301337A68B2FBF3F37B6034E01D4B9B6903F44023B3F5402F1DD0B3F5402F27D8B3F5002F12D0B3F5002F21D8002B03D0B3F5F9
S34560004A00802F05D01BE0144800F054FA786019E0022000F069FC786014E0002000F064FC78600FE00D2000F045FA0246084B1B6903F007030133B2FBF3F37B6002E000238D
S34560004A407B6000BF7B6818460837BD4680BD00BF00C00F400D0010000D00300080B582B000AF0C4BDB6803F00103002B02D0012B05D007E0084800F01DFA786005E0074B5C
S34560004A807B6002E000237B6000BF7B6818460837BD4680BD00C00F400D00100000366E0180B582B000AF0346FB71FB7983F00103DBB2002B05D1144B144AC0211448FFF751
S34560004AC0CFFE144B4FF08042C3F8582100BF114BD3F8703203F48033002BF8D00D4B4FF48032C3F8542100BF0A4BD3F8503103F40043002BF8D0074B4FF48032C3F8582145
S34560004B0000BF0837BD4680BD4C8C0060BC8C00605C8C006000800D4080B483B000AF0346FB71FB79002B04D1064B1022C3F8742203E0044B1022C3F8782200BF0C37BD460B
S34560004B4080BC704700800D4080B400AF054BD3F87032044A43F00103C2F8703200BFBD4680BC704700800D4080B500AFFFF700FF0246054B5B699B0A03F007030133B2FB54
S34560004B80F3F3184680BD00BF00C00F4080B582B000AF144B5B6903F04003002B0FD0114B5B6903F08003002B04D0012000F0F2FB786007E0022000F097FB786002E0FFF721
S34560004BC0D7FE7860074B5B691B0C03F0070301337A68B2FBF3F37B607B6818460837BD4680BD00BF00C00F4080B500AFFFF7BCFF0246054B5B691B0A03F003030133B2FB66
S34560004C00F3F3184680BD00BF00C00F4080B582B000AF0D4BDB6903F04003002B03D0FFF737FE786002E0FFF7DFFF7860064BDB6903F03F0301337A68B2FBF3F37B607B6817
S34560004C4018460837BD4680BD00C00F4080B584B000AF0346FB71FB791A2B00F2BA8001A252F823F0D14C0060D14C0060D94C0060E14C0060E94C0060F14C0060F94C00604D
S34560004C80014D00600B4D0060154D00601F4D0060294D0060334D00606F4D0060794D0060834D00608D4D0060974D0060A14D0060AB4D0060B54D0060BF4D0060C94D00600A
S34560004CC03D4D0060454D0060514D00605D4D0060FFF74AFFF8607FE0FFF758FFF8607BE0FFF782FFF86077E0FFF790FFF86073E0FFF7CEFDF8606FE0FFF7E2FDF8606BE03E
S34560004D000D2000F0D7F8F86066E0364800F0D2F8F86061E0002000F03DFBF8605CE0012000F038FBF86057E0022000F033FBF86052E0032000F02EFBF8604DE0FFF78EFEF6
S34560004D40F86049E0FFF78AFE03469B08FB6043E0FFF784FE0346DB08FB603DE0FFF77EFE0346214AA2FB03239B08FB6034E01F4800F0A0F8F8602FE01D4800F09BF8F860B7
S34560004D802AE0002000F0B0FAF86025E0012000F0ABFAF86020E0022000F0A6FAF8601BE0032000F0A1FAF86016E0124800F082F8F86011E0104800F07DF8F8600CE00F48F8
S34560004DC000F078F8F86007E00D4800F073F8F86002E00023FB6000BFFB6818461037BD4680BD00BF0D001000ABAAAAAA0D0020000D0030000D00E0001500E0000D007000F1
S34560004E000D00A00080B483B000AF7860144B1B6823F4E0327B681B799B039BB21343104A43F4803313600E4B1A680E4B13407A68126802F07F021343094A43F400531360FB
S34560004E4000BF074B1B68002BFBDA054B1B68044A23F48033136000BF0C37BD4680BC704700800D4080CFFFFF80B400AF034B00221A6200BFBD4680BC704700BF00800D40B8
S34560004E8080B400AF034B4FF480521A6700BFBD4680BC704700800D4080B400AF044B4FF48052C3F8E02000BFBD4680BC704700BF00800D402DE9B04F98B000AFF864F96C33
S34560004EC09F48FFF71DFD034683F00103DBB2002B01D00023F6E1F96C9948FFF72EFDF865F96C9748FFF7F4FC0346002B01D0FB6DE8E1FA6C934B9A4200F0CF81FA6C914B0C
S34560004F009A4200F2DB81FA6C8F4B9A4200F0B981FA6C8D4B9A4200F2D181FA6C8B4B9A4200F02881FA6C894B9A4200F2C781FA6C874B9A427FD0FB6C854A934200F2BE819D
S34560004F40FB6C844A934220D0FB6C824A934200F2B581FB6C804A934200F0A281FB6C7E4A934200F2AB81FB6C0D2B04D0FB6C7B4A934252D0A2E1724B1B6803F07F03FA6D31
S34560004F8002FB03F35B08FB659BE1FB6D00223B647A646B4B1B6D0022BB63FA63D7E910342246D7E90E89414601FB02F24D4618462146034603FB05F3134402464146A2FBE3
S34560004FC001AB5B449B46C7E914ABC7E914AB5C4B1B6E00223B607A60D7E90023D7E9140103F0FAFA02460B46C7E91423544B1B6B03F00103002B05D0FB6D162202FB03F3AC
S34560005000FB6505E0FA6D13469B0013449B00FB653B6DFA6D1344FB6553E1494B1B6903F00203002B01D0162200E01422FB6D02FB03F3FB6545E1424B1B6F03F07F03BB6537
S34560005040FB6D00223B637A633D4BD3F880300022BB62FA62D7E90C342246D7E90AAB514601FB02F25D4618462146034603FB05F3134402465146A2FB01894B449946C7E9A1
S345600050801489C7E914892E4BD3F890300022BB60FA60D7E90223D7E9140103F09DFA02460B46C7E91423FB6DBA6D03FB02F23B6D1344FB65224B1B6F03F4C013B3F5801F59
S345600050C017D0B3F5801F0DD8002B03D0B3F5002F04D007E0FB6D9B08FB650BE0FB6D5B08FB6507E01E4B1F4A40F20C411E48FFF7B7FB00BF124BD3F870211C4B13401B4A49
S3456000510093420ED0194A934213D8B3F5000F2FD0B3F5000F0DD8002B2AD0B3F5004F04D007E0FB6D9B08FB6523E0FB6D5B08FB651FE00B4B0B4A4FF484610B48FFF790FBCB
S3456000514000800D401500E0000D00E0000D00A0000D0070000D0030000D0020000D001000B48C0060D48C00605C8C00600080800000BFA6E0564BD3F8A03003F07F03BB65AB
S34560005180FB6D00223B627A62514BD3F8B0300022BB61FA61D7E908010B46D7E90689424602FB03F24B4684460CFB03F3134402464146A2FB01452B441D46C7E91445C7E9D7
S345600051C01445434BD3F8C03000223B617A61D7E90423D7E9140103F0FFF902460B46C7E91423FB6DBA6D03FB02F23B6D1344FB65374BD3F8A03003F4C013B3F5801F17D0F2
S34560005200B3F5801F0DD8002B03D0B3F5002F04D007E0FB6D9B08FB650BE0FB6D5B08FB6507E02C4B2C4A40F24D412C48FFF718FB00BF274BD3F8703103F04043B3F1404F74
S345600052400ED0B3F1404F13D8B3F1004F17D0B3F1004F0DD8002B12D0B3F1804F04D007E0FB6D9B08FB650BE0FB6D5B08FB6507E0184B194A40F261411848FFF7F1FA00BFDD
S345600052801FE0134BD3F8E03003F00303BB65144ABB6D52F82330FB6513E0124BFB6510E00B4B1B6A03F00203002B01D0162200E01422FB6D02FB03F3FB6502E00023FB65D7
S345600052C000BFFB6D18466037BD46BDE8B08F00BF00800D40B48C0060D48C00605C8C0060E88C006040787D0180B584B000AF0346FB712648FFF7DEFDF860FB79032B36D8F3
S3456000530001A252F823F000BF195300602D53006043530060595300601D4BD3F8003103F03F03FA68B2FBF3F3FB6023E0184BD3F800311B0A03F03F03FA68B2FBF3F3FB60A5
S3456000534018E0134BD3F800311B0C03F03F03FA68B2FBF3F3FB600DE00D4BD3F800311B0E03F03F03FA68B2FBF3F3FB6002E00023FB6000BFFA681346DB0013445B00FB6018
S34560005380FB6818461037BD4680BD00BF0D00300000800D4080B584B000AF0346FB712648FFF788FDF860FB79032B36D801A252F823F000BFC5530060D9530060EF53006053
S345600053C0055400601D4BD3F8F03003F03F03FA68B2FBF3F3FB6023E0184BD3F8F0301B0A03F03F03FA68B2FBF3F3FB6018E0134BD3F8F0301B0C03F03F03FA68B2FBF3F329
S34560005400FB600DE00D4BD3F8F0301B0E03F03F03FA68B2FBF3F3FB6002E00023FB6000BFFA681346DB0013445B00FB60FB6818461037BD4680BD00BF0D00100000800D401A
S3456000544080B48BB000AFF860B9607A60FB687B617B6953E8003F3B613B697B62BB68DA437B6A13407A6813437B627B6A3B62FB68FB61F9693A6A41E80023BB61BB69002B18
S34560005480E4D100BF00BF2C37BD4680BC7047FFFF80B586B000AF03460A46FB8013467B71B7F906301B0A7B61FB8803F01F033B617B69062B06D90E4B0E4A40F2BF510E4831
S345600054C0FFF7CEF97B699A000C4B1344FB6003223B6902FA03F17A793B6902FA03F31A46F868FFF7ADFF00BF1837BD4680BD00BF588A00600C8E0060F88C006068C00F40BA
S3456000550080B582B000AF0346FB80B7F9063003211846FFF7BDFF00BF0837BD4680BD80B584B000AFF860B9601346FB71FB791A46B968F86800F0ACF800BF1037BD4680BD56
S3456000554080B584B000AF78600023FB6009E00E4AFB6852F823307A689A4206D0FB680133FB60FB68052BF2D900E000BFFB68052B05D9064B064A3C210648FFF771F9FB6813
S3456000558018461037BD4680BD508D0060748D0060F88D0060988D006080B586B000AFF860B9607A60F868FFF7CBFF78617B69052B0DD8214A7B6932F91330B3F1FF3F06D0CC
S345600055C01D4A7B6932F913301846FFF799FFFB685A690121BB6801FA03F3DB431A40FB685A617B681B78002B0AD1FB685A680121BB6801FA03F3DB431A40FB685A600FE053
S345600056007B685B781A46B968F86800F017F8FB685A680121BB6801FA03F31A43FB685A607B689B781A46B968F868FFF778FF00BF1837BD4680BD00BF688D006080B584B08A
S3456000564000AFF860B9601346FB71BB681F2B05D90C4B0D4A75210D48FFF702F9FB79002B06D10122BB689A40FB68C3F8882005E00122BB689A40FB68C3F8842000BF1037E1
S34560005680BD4680BDEC8D0060208E0060988D006080B487B000AFF860B9601346FB71BB683B61FB68DA690121BB6801FA03F3DB431A40FB68DA61BB680F2B03D8FB680C33FD
S345600056C07B6105E0FB6810337B613B69103B3B61FB79013B042B52D801A252F823F000BFF55600600D57006031570060555700606B5700607B691A683B695B00032101FAA5
S3456000570003F3DB431A407B691A6039E07B691A683B695B00032101FA03F3DB431A403B695B00012101FA03F31A437B691A6027E07B691A683B695B00032101FA03F3DB43C0
S345600057401A403B695B00022101FA03F31A437B691A6015E07B691A683B695B00032101FA03F31A437B691A600AE0FB68DA690121BB6801FA03F31A43FB68DA6100E000BF11
S3456000578000BF1C37BD4680BC704700BF80B48BB000AFF860B9607A60FB687B617B6953E8003F3B613B697B62BB68DA437B6A13407A6813437B627B6A3B62FB68FB61F96969
S345600057C03A6A41E80023BB61BB69002BE4D100BF00BF2C37BD4680BC7047FFFF80B586B000AF03460A46FB8013467B71B7F906301B0A7B61FB8803F01F033B617B69062BBB
S3456000580006D90E4B0E4A40F2BF510E48FFF728F87B699A000C4B1344FB6003223B6902FA03F17A793B6902FA03F31A46F868FFF7ADFF00BF1837BD4680BD00BF588A00604A
S34560005840C48F0060F88C006068C00F4080B582B000AF0346FB80B7F9063003211846FFF7BDFF00BF0837BD4680BD80B483B000AFEFF310833B603B687B6072B600BF7B6814
S3456000588018460C37BD4680BC704780B485B000AF78607B68FB60FB6883F3108800BF00BF1437BD4680BC704780B483B000AF78607B689B6843F002027B689A607B689B68BF
S345600058C023F002027B689A6000BF0C37BD4680BC7047FFFF80B584B000AF78600023FB600BE00E4AFB6852F823307A689A4201D1FB680FE0FB680133FB60FB68082BF0D974
S34560005900FB68082B05D9064B064ABF210648FEF7A7FFFB6818461037BD4680BD308E0060688E0060A48F0060908E006080B58CB000AFF860B9607A60BB68002B06D17C4BFF
S345600059407C4A40F237117C48FEF78AFFBB681B68002B06D1794B774A4FF49C717648FEF77FFFBB681B7A032B06D9754B714A4FF49D717148FEF774FFBB685B7A032B06D9DA
S34560005980704B6C4A40F23B116B48FEF769FF0023FB62BB681B68FB61002387F823300023FB84042387F8223049E07A6813469B0013445B001946BB681B6897F8222002FBED
S345600059C003F3B1FBF3F305335F4AA2FB0323DB08BB84BB8C002B02D10123BB8406E0BB8CB3F5005F02D341F6FF73BB8497F82230BA8C02FB03F37A68B2FBF3F37B61BB68CC
S34560005A001B687A699A4204D9BB681B687A69D31A03E0BB681A687B69D31A3B613A69FB699A4207D83B69FB6197F8223087F82330BB8CFB8497F82230013387F8223097F8C6
S34560005A402230202BB1D9BB681B68404AA2FB03235A0913465B001344FA699A4203D940F22153FB62FEE0F868FFF734FFB861384ABB6932F913301846FFF7E8FEF868FFF7F6
S34560005A8013FFFB681B69BB6297F82330032B07D997F82330072B03D8BB6A43F40033BB62BB6A23F0F853BB6297F82330013B1B0603F0F853BA6A1343BB62BA6A254B134044
S34560005AC0BB62FB8CC3F30C02BB6A1A43FB681A61FB681B6923F00052FB681A61FB689A691D4B1340BB62BB681B791A46BB68DB7B1B0203F4E0631A43BB689B7B9B0003F005
S34560005B0004031343BA6A1343BB62BB685B79012B24D1BB681B79002B04D0BB6A23F40063BB6223E0BB6A43F40063BB621EE000BFE88E0060B88F0060908E0060F88E006004
S34560005B40148F00605C8F0060CDCCCCCC1F85EB51548E006000E0FFFFE8F8FFFFBB681B79002B03D0BB6A43F01003BB62FB68BA6A9A61FB681B6923F40053BB62BB68DB79BE
S34560005B805B0303F40052BB6A1A43FB681A61BB685B7A1B04BA68127A1A43FB68DA62FB689B6A43F08802FB689A62FB689B6A43F44042FB689A622E4BBB62BB6A43F0004382
S34560005BC0BB62BB6A43F44043BB62FB685A6ABB685B7B1B0103F01001BB681B7B5B0103F020030B431A43FB685A62BB689B7A002B05D0FB685B6A43F00802FB685A62BB6812
S34560005C00DB7A002B05D0FB685B6A43F00102FB685A62BB689B79002B04D0BB6A43F00053BB6203E0BB6A23F00053BB62FB685A69BB6A1A43FB685A61FB689B69BB62BB6836
S34560005C401B7C002B03D0BB6A43F40023BB62BB685B7C002B03D0BB6A43F48023BB62FB68BA6A9A61FB6A18463037BD4680BD00BF00001F4080B582B000AF78607B68002B73
S34560005C8006D11F4B1F4A40F25B211F48FEF7E8FD14220021786802F017FE7B684FF4E1321A607B6800221A717B6800225A717B6800229A717B680022DA717B6800221A72A3
S34560005CC07B6800225A727B6800229A727B680022DA727B6800225A737B6800221A737B6800229A737B680022DA737B6800221A747B6800225A7400BF0837BD4680BD00BFE0
S34560005D00E88E0060D88F0060908E006080B584B000AF786039603A68254B13403B600023FB603B681B0203F40043FA681343FB603B6823F080033B603B681B0203F4804380
S34560005D40FA681343FB603B6823F040033B60FFF78CFDB8607B681A69FB681A437B681A61B868FFF792FDFFF780FDB8607B689B6A23F440323B6803F440731A437B689A62D1
S34560005D80B868FFF782FD3B6823F440733B60FFF76CFDB8607B689A693B681A437B689A61B868FFF772FD00BF1037BD4680BD00BFC0C3F00F80B584B000AF786039603A686E
S34560005DC0264B13403B600023FB603B681B0203F40043FA681343FB603B6823F080033B603B681B0203F48043FA681343FB603B6823F040033B60FFF738FDB8607B681A69B5
S34560005E00FB68DB431A407B681A61B868FFF73DFDFFF72BFDB8607B689A6A3B6803F44073DB43134023F440327B689A62B868FFF72CFD3B6823F440733B60FFF716FDB860C8
S34560005E407B689A693B68DB431A407B689A61B868FFF71BFD00BF1037BD4680BDC0C3F00F80B485B000AF78607B689A69124B1340FB60FB6823F040027B681B691B0A03F0CF
S34560005E8040031343FB60FB6823F080027B681B691B0A03F080031343FB60FB6823F440727B689B6A03F440731343FB60FB6818461437BD4680BC7047C0C3F00F80B485B081
S34560005EC000AF78607B685B69FB607B689B6A1B0C03F0C303FA681343FB60FA68044B1340FB60FB6818461437BD4680BC704700BFC3C0FFC180B584B000AF786039603A684A
S34560005F001A4B13403B603B6803F00303002B10D07B689B6ABB60BB6823F47033BB603B681B0403F44033BA681343BB607B68BA689A627B685B6903F078533A681343BB60CE
S34560005F407B68BA685A617868FFF7B8FF02463B681340002B03D040F21A53FB6001E00023FB60FB6818461037BD4680BD03C01FC080B48BB000AFF860B9607A60FB687B6147
S34560005F807B6953E8003F3B613B697B62BB68DA437B6A13407A6813437B627B6A3B62FB68FB61F9693A6A41E80023BB61BB69002BE4D100BF00BF2C37BD4680BC7047FFFFEB
S34560005FC080B586B000AF03460A46FB8013467B71B7F906301B0A7B61FB8803F01F033B617B69062B06D90E4B0E4A40F2BF510E48FEF736FC7B699A000C4B1344FB6003229D
S345600060003B6902FA03F17A793B6902FA03F31A46F868FFF7ADFF00BF1837BD4680BD00BF588A006084900060F88C006068C00F4080B582B000AF0346FB80B7F90630032179
S345600060401846FFF7BDFF00BF0837BD4680BDFFFF80B584B000AF78600023FB6006E00D4A7B68934206D0FB680133FB60FB68002BF5D000E000BFFB68002B05D0064B074A4C
S345600060803A210748FEF7ECFBFB6818461037BD4680BD00BF00400840F08F0060689000601490006080B584B000AF786039603B68002B05D1204B214A4A212148FEF7D0FB93
S345600060C07868FFF7C5FF4FF486731846FFF7B0FF7B681B6823F002027B681A600023FB7312E0FB7B7A681B01134403F584731A68FB7B22F0070279681B010B4403F58473FC
S345600061001A60FB7B0133FB73FB7B032BE9D93B681B78002B06D07B681B6823F001027B681A6005E07B681B6843F001027B681A6000BF1037BD4680BDE88E0060789000608F
S345600061401490006080B483B000AF0346FB80B7F90630002B0BDBFB8803F01F020649B7F906305B09012000FA02F241F8232000BF0C37BD4680BC704700E100E080B48BB001
S3456000618000AFF860B9607A60FB687B617B6953E8003F3B613B697B62BB68DA437B6A13407A6813437B627B6A3B62FB68FB61F9693A6A41E80023BB61BB69002BE4D100BFC6
S345600061C000BF2C37BD4680BC7047FFFF80B586B000AF03460A46FB8013467B71B7F906301B0A7B61FB8803F01F033B617B69062B06D90E4B0E4A40F2BF510E48FEF730FB38
S345600062007B699A000C4B1344FB6003223B6902FA03F17A793B6902FA03F31A46F868FFF7ADFF00BF1837BD4680BD00BF588A00604C910060F88C006068C00F4080B582B07F
S3456000624000AF0346FB80B7F9063003211846FFF7BDFF00BF0837BD4680BD80B584B000AF0346FB800023FB60B7F9063013F1800F02D10123FB6004E0B7F906301846FFF7AA
S3456000628061FFFB6818461037BD4680BD80B483B000AFEFF310833B603B687B6072B600BF7B6818460C37BD4680BC704780B485B000AF78607B68FB60FB6883F3108800BF6D
S345600062C000BF1437BD4680BC7047FFFF80B584B000AF78600023FB6009E00E4AFB6852F823307A689A4206D0FB680133FB60FB68022BF2D900E000BFFB68022B05D9064B4C
S34560006300064A2B210648FEF7ABFAFB6818461037BD4680BD98900060B49000602C910060D890006080B584B000AF786039603B68002B05D1404B414A6A214148FEF790FA44
S345600063400023FB810023BB603B681B789B009BB203F004039BB23A68527882F00102D2B2002A01D0802200E0002213439BB23A68927882F00102D2B213439BB23A68D2789A
S3456000638082F00102D2B2002A01D0022200E0002213439AB23B689B7A9B019BB203F040039BB213439AB23B68DB881B029BB213439AB23B681B7BDB009BB203F008039BB237
S345600063C013439BB243F03003FB817868FFF77EFF03461C4A32F913301846FFF72FFFFFF755FFB8603B681B89DBB29AB23B681B79DB039BB213439AB27B68DA803B68DB7A05
S345600064001A467B681A817B68FA891A80B868FFF74DFF3B681B79002B09D07868FFF756FF0346094A32F913301846FFF716FF00BF1037BD4680BD00BFE88E006040910060D1
S34560006440D8900060A4900060AC90006080B485B000AF78600023FB817B681B889BB203F004039AB2FB891343FB817B689B889BB203F010039AB2FB891343FB817B689B88BF
S345600064809BB203F002039AB2FB891343FB817B689B889BB203F001039AB2FB891343FB817B68DB889BB203F480439AB2FB891343FB81FB8918461437BD4680BC704780B45D
S345600064C083B000AF78600B467B807B8803F48043002B07D07B68DB889BB243F480439AB27B68DA8000BF0C37BD4680BC704780B584B000AF78600023FB60FFF7C7FEF860E2
S345600065007B6845F255525A807B684AF6AA225A80F868FFF7CBFE00BF1037BD4680BD80B483B000AFEFF310833B603B687B6072B600BF7B6818460C37BD4680BC704780B4F3
S3456000654085B000AF78607B68FB60FB6883F3108800BF00BF1437BD4680BC704780B483B000AF78607B689B6918460C37BD4680BC704780B483B000AF786039607B683A6813
S345600065809A6100BF0C37BD4680BC7047B0B58AB000AF0346FB71294B1B687B62284B07F108041D460FCD0FC495E8030084E80300FB799B0028333B4453F8203C1846FFF74F
S345600065C0CDFF3862FB799B0028333B4453F8203C396A1846FFF7CDFF28E07B6A5B7B03F01C03DBB2002B1ED07B6A1B7BC3F30303DBB21A46FB79934215D17B6A9B89C3F3EF
S345600066000413DBB21A463B6AD34003F00103002B09D07B6A5B68002B05D07B6A5B687A6A9268104698477B6A1B687B627B6A002BD3D100BF00BF2837BD46B0BDCC07008041
S345600066406091006080B500AF0120FFF79FFFBFF34F8F00BF00BF80BD80B500AF0120FFF795FFBFF34F8F00BF00BF80BD80B500AF0220FFF78BFFBFF34F8F00BF00BF80BDD4
S3456000668080B500AF0220FFF781FFBFF34F8F00BF00BF80BD80B500AF0320FFF777FFBFF34F8F00BF00BF80BD80B500AF0320FFF76DFFBFF34F8F00BF00BF80BD80B500AF57
S345600066C00420FFF763FFBFF34F8F00BF00BF80BD80B500AF0420FFF759FFBFF34F8F00BF00BF80BD80B500AF0520FFF74FFFBFF34F8F00BF00BF80BD80B500AF0520FFF735
S3456000670045FFBFF34F8F00BF00BF80BD80B483B000AF78600B46FB701346BB7017E07B681B7BC3F30303DBB21A46FB789A420BD17B689B89C3F30413DBB21A46BB789A4222
S3456000674002D142F6477306E07B681B687B607B68002BE4D1002318460C37BD4680BC704780B584B000AF786039607B681B68FB60FFF7D5FEB860FB68002B10D17B683A682B
S345600067801A6013E0FA683B689A4205D1B868FFF7D6FE42F6477310E0FB681B68FB60FB681B68002BEED1FB683A681A603B6800221A60B868FFF7C3FE002318461037BD4612
S345600067C080BDFFFFB0B58CB000AF786039604D4B07F110041D460FCD0FC495E8030084E803000023FB8500233B7300237B730023BB737B68002B06D1434B444A4FF48C717B
S345600068004348FEF72DF83B68002B06D1414B3F4A40F219113E48FEF723F87B68BB623B689B789B0030333B4453F8203C002B02D142F6457362E0384B1B68002B0ED0364B07
S3456000684018683B6899783B68DB781A46FFF75EFF0346002B02D042F647734FE0B96A2E48FFF77EFF0346FB85FB8D002B01D0FB8D44E03B68DB7803F01F03D9B2BA6A938993
S3456000688061F3081393813B689B7803F00F03D9B2BA6A137B61F3030313733B681B7803F00103D9B2BA6A537B61F341035373BA6A537B6FF3840353733B681B78012B05D136
S345600068C001233B733B685B787B7301E000233B73BB6A1B7BC3F30303DBB29B0030333B4453F8200CBB6A9B89C3F30413DBB2194607F10C031A46FEF74FFE002318463037BF
S34560006900BD46B0BD6091006090910060149200609C91006008920060CC070080B0B58AB000AF78600B46FB70194B07F10C041D460FCD0FC495E8030084E803007B68002B72
S3456000694006D1144B144A40F267111448FDF788FF7B687B627B6A1B7BC3F30303DBB29B0028333B4453F81C0C7B6A9B89C3F30413DBB21946FB78002B01D0012300E00023D8
S345600069801A46FEF75BFE002318462837BD46B0BD6091006090910060249200609C91006080B483B000AF0346FB80B7F90630002B0BDBFB8803F01F020649B7F906305B09FD
S345600069C0012000FA02F241F8232000BF0C37BD4680BC704700E100E080B483B000AF03463960FB80B7F90630002B0ADB3B68DAB20C49B7F906301201D2B20B4483F8002396
S34560006A000AE03B68DAB20849FB8803F00F03043B1201D2B20B441A7600BF0C37BD4680BC704700BF00E100E000ED00E080B584B000AF0346FB800023FB60B7F9063013F1C0
S34560006A40800F02D10123FB6004E0B7F906301846FFF7A6FFFB6818461037BD4680BD80B483B000AF78600B46FB70FA787B68DA6100BF0C37BD4680BC704780B487B000AF78
S34560006A8078607B689B693B613B6903F40063002B0ED13B6903F40063002B0BD13B6903F01003002B06D13B6903F00203002B01D0012300E00023FB73FB7B03F00103FB7354
S34560006AC0FB7B002B06D07B68DB69DBB203F07F03FB7502E07B68DB69FB75FB7D18461C37BD4680BC704780B485B000AF78607B68002B02D10023FB8102E042F6AF73FB8160
S34560006B00FB8918461437BD4680BC7047B0B586B000AF0346FB71FB798E4A52F82330FB60FB68002B06D18C4B8C4A40F2B1118C48FDF796FEFB798B4A52F823301846FFF7ED
S34560006B40BDF978617B6903F40023002B0DD0FB79844A52F823305A69834B1340FA79814951F8222043F4002353617B6903F48023002B09D17B6903F40033002B04D17B690C
S34560006B8003F48033002B3DD07B6903F48023002B08D0FB79734A52F823304FF480211846FFF7A8F97B6903F40033002B08D0FB796C4A52F823304FF400311846FFF79AF932
S34560006BC07B6903F48033002B08D0FB79654A52F823304FF480311846FFF78CF97B6903F40013002B06D0FB795E4A52F823301846FFF743FFFB795B4A52F823301846FFF7C9
S34560006C005DF978617B6903F40013002B0BD0FB79544A52F823301846FFF722F9034603F40013002B10D17B6903F48013002B6ED0FB794C4A52F823301846FFF711F9034629
S34560006C4003F48013002B62D0FB68DB68002B41D0FB79444A52F82330DB6A1B0EDBB203F00703FB7433E0FB7C013BFB74FB793D4A52F82350FB68DA68FB685B69581CF96851
S34560006C804861D4182846FFF7F8FE03462370FB685A69FB681B699A4219D3FB79314A52F823304FF003611846FFF784F8FB680022DA600023FB74FB685B68002B07D0FB68F3
S34560006CC05B68FA68926842F6AC71F8689847FB7C002BC8D17B6903F48013002B17D0FB79204A52F823301846FFF7BAF8034603F48013002B0BD0FB791A4A52F823305A692E
S34560006D00FB79184951F8233042F480125A617B6903F40003002B60D0FB79124A52F823301846FFF79DF8034603F40003002B54D0FB689B69002B50D0FB790A4A52F82330C1
S34560006D40DB6A1B0ADBB203F00703DBB2C3F10403FB743FE0D007008070920060B493006084920060389200600000E03FFB7C013BFB74FB791B4A52F82340FB689A69FB6853
S34560006D801B6A581CF968086213441B7819462046FFF765FEFB681A6AFB68DB699A4219D3FB79104A52F823304FF400011846FFF701F8FB6800229A610023FB74FB685B6817
S34560006DC0002B07D0FB685B68FA68926842F6AB71F8689847FB7C002BC8D100BF1837BD46B0BD00BF3892006080B58AB000AF786039600023FB8407F10C031846FEF73AFFB0
S34560006E003B685B68FB603B681B7A3B743B685B7AFB743B689B7A002B14BF01230023DBB27B773B68DB7A002B14BF01230023DBB23B773B68DB7B002B08D03B68DB7B042B41
S34560006E4028BF0423DBB2013BDBB23B753B681B7C002B08D03B681B7C042B28BF0423DBB2013BDBB27B753B681B7B002B14BF01230023DBB2BB753B685B7B002B14BF0123C8
S34560006E800023DBB2FB750123BB760123FB763B689B7B1A460B4B53F822003B681A6807F10C031946FEF742FD38623B6A002B04D0386AFFF718FE0346FB84FB8C18462837CF
S34560006EC0BD4680BD3892006080B584B000AF786039607B68002B06D12C4B2D4A40F2BA212C48FDF7BDFC3B68002B06D12A4B284A40F2BB212748FDF7B3FC3B689B7B082BA0
S34560006F0006D9264B224A4FF42F712248FDF7A8FC3B689B7B1A46224B53F82230002B06D1204B1B4A40F2BD211A48FDF799FC39687868FFF759FF0346FB81FB89002B1FD127
S34560006F407B68BB603B689A7BBB681A70BB681B781946154ABB6842F82130BB681B781A46124B33F9123003211846FFF735FDBB681B781A460D4B33F912301846FFF756FD18
S34560006F80FB8918461037BD4680BD00BFF0920060CC9300608492006000930060149300603892006064930060D00700805C92006080B586B000AFF860B9607A60FB68002B19
S34560006FC006D10A4B0A4A40F2DE310A48FDF748FCFB687B617B697A689A607B69BA685A60002318461837BD4680BD00BFF0920060DC9300608492006080B586B000AFF860B9
S34560007000B9607A60FB68002B06D11E4B1E4A40F2EB311E48FDF724FCBB68002B06D11C4B194A4FF47B711948FDF71AFC7B68002B06D1184B144A40F2ED311448FDF710FC1E
S34560007040FB687B617B69DB68002B02D042F6AA7314E07B697A681A617B6900225A617B69BA68DA607B691B781A460B4B53F822304FF003611846FEF749FE002318461837E5
S34560007080BD4680BDF0920060F49300608492006098930060A89300603892006080B586B000AFF860B9607A60FB68002B06D11E4B1E4A40F205411E48FDF7D2FBBB68002B13
S345600070C006D11C4B194A40F206411948FDF7C8FB7B68002B06D1184B144A40F207411448FDF7BEFBFB687B617B699B69002B02D042F6A97314E07B697A68DA617B6900225C
S345600071001A627B69BA689A617B691B781A460B4B53F822304FF400011846FEF7F7FD002318461837BD4680BDF0920060109400608492006098930060A8930060389200605B
S3456000714080B584B000AF78607B68002B06D1104B104A40F239411048FDF782FB7B68FB60FB68DB68002B0DD0FB681B781A460B4B53F822304FF002611846FEF71BFEFB6804
S345600071800022DA60002318461037BD4680BD00BFF092006028940060849200603892006080B584B000AF78607B68002B06D1094B094A40F282410948FDF752FB7B68FB6067
S345600071C0FB681B781846FFF7A1FC00BF1037BD4680BD00BFF0920060409400608492006080B500AF0120FFF791FCBFF34F8F00BF00BF80BD80B500AF0220FFF787FCBFF3AD
S345600072004F8F00BF00BF80BD80B500AF0320FFF77DFCBFF34F8F00BF00BF80BD80B500AF0420FFF773FCBFF34F8F00BF00BF80BD80B500AF0520FFF769FCBFF34F8F00BF23
S3456000724000BF80BD80B500AF0620FFF75FFCBFF34F8F00BF00BF80BD80B500AF0720FFF755FCBFF34F8F00BF00BF80BD80B500AF0820FFF74BFCBFF34F8F00BF00BF80BDD5
S3456000728080B483B000AF0346FB80B7F90630002B0BDBFB8803F01F020649B7F906305B09012000FA02F241F8232000BF0C37BD4680BC704700E100E080B483B000AF0346C4
S345600072C03960FB80B7F90630002B0ADB3B68DAB20C49B7F906301201D2B20B4483F800230AE03B68DAB20849FB8803F00F03043B1201D2B20B441A7600BF0C37BD4680BC48
S34560007300704700BF00E100E000ED00E080B584B000AF0346FB800023FB60B7F9063013F1800F02D10123FB6004E0B7F906301846FFF7A6FFFB6818461037BD4680BDFFFFB5
S3456000734080B582B000AF78607B68002B05D1064B064A6B210648FDF783FA7B6800221A7000BF0837BD4680BDE88E0060BC9500605494006080B485B000AFF8600B467A60B2
S34560007380FB72FB7AFA681B01134403F584731968FB7A7A680A43F9681B010B4403F584731A6000BF1437BD4680BC704780B485B000AFF8600B467A60FB72FB7AFA681B016C
S345600073C0134403F586737A681A6000BF1437BD4680BC704780B584B000AFF8600B467A60FB727B68002B05D1084B094AF8210948FDF736FAFB7A7A68013AF96810331B0111
S345600074000B441A6000BF1037BD4680BDA8940060D49500605494006080B483B000AF78600B46FB70FB787A681B01134403F584731A68FB7842F0010279681B010B4403F55B
S3456000744084731A6000BF0C37BD4680BC7047FFFF80B584B000AF0346FB71FB790B4A52F82330FB600A4B012200211846FFF79EFFFB689B68002B05D0FB689B68FA68D268BF
S345600074801046984700BF1037BD4680BDF40700800040084080B500AF0020FFF7D9FFBFF34F8F00BF00BF80BD2DE9F04F89B000AF78603960474A07F1100392E8030083E899
S345600074C003007B68FB613B68002B05D1424B434A69214348FDF7C4F97B68002B05D1414B3E4A6A213E48FDF7BBF93B681B7A002B05D03D4B394A6B213948FDF7B1F93B681E
S345600075001A68FB691A603B681A7AFB691A74FB691B7CDB0020333B4433F8103C7B8307F10C031846FFF70CFF304B002B05D1304B2A4A74212A48FDF793F92C4A07F10C036A
S3456000754019461046FEF7AEFD3B685A68FB695A60264EFB691B6800229A469346FB695B6800229846914608FB0BF20AFB09F31344AAFB08452B441D461E4A4FF0000320466D
S34560007580294601F029F802460B4613461A4600213046FFF71FFF154B022200211846FFF7E9FEFB691B7C1946134A7B6842F82130B7F91A3003211846FFF77EFEB7F91A30FA
S345600075C01846FFF7A3FE002318462437BD46BDE8F08F00BFA4950060B4940060AC950060C49400602C9500603C950060004008408095006040420F00F407008080B584B010
S3456000760000AF78607B68002B05D1084B084A8F210848FDF725F97B68FB60074B00211846FFF7FAFE00BF1037BD4680BD2C950060E8950060C49400600040084080B586B0D6
S3456000764000AFF860B9607A60FB68002B05D1094B094A9F210948FDF703F9FB687B617B69BA689A607B697A68DA6000BF1837BD4680BD00BF2C950060F8950060C49400608C
S3456000768080B483B000AFEFF310833B603B687B6072B600BF7B6818460C37BD4680BC704780B485B000AF78607B68FB60FB6883F3108800BF00BF1437BD4680BC704780B4CD
S345600076C085B000AF786039600023FB817B68DB68002B08D07B68DA687B689B689A4202D143F27A73FB81FB8918461437BD4680BC704780B584B000AF78603960FFF7C0FF4E
S34560007700F86000237B8139687868FFF7D8FF03467B817B89002B19D17B689B68002B03D17B683A681A6003E07B685B683A681A603B687A685A603B6800221A607B683A6834
S345600077405A607B689B685A1C7B689A60F868FFF7A7FF7B8918461037BD4680BD80B584B000AF7860FFF78CFFB8607B68002B03D07B689B68002B02D10023FB6015E07B6827
S345600077801B68FB607B689B685A1E7B689A607B689B68002B02D17B6800225A60FB6800225A60FB681A687B681A60B868FFF778FFFB6818461037BD4680BD80B483B000AF3B
S345600077C078607B681B6818460C37BD4680BC704780B483B000AFEFF310833B603B687B6072B600BF7B6818460C37BD4680BC704780B485B000AF78607B68FB60FB6883F342
S34560007800108800BF00BF1437BD4680BC704780B483B000AFEFF305837B607B68002B14BF01230023DBB218460C37BD4680BC704780B582B000AF786039603B68194678687B
S34560007840FFF757FF00BF0837BD4680BD80B582B000AF78607868FFF781FF00BF0837BD4680BDFFFF80B584B000AF78604FF0FF33FB600A4B1B68002B0AD0084B1B681B68A6
S34560007880002B05D0054B1B681B6878689847F860FB6818461037BD4680BD00BFF807008080B584B000AF78604FF0FF33FB600A4B1B68002B0AD0084B1B685B68002B05D03D
S345600078C0054B1B685B6878689847F860FB6818461037BD4680BD00BFF807008080B584B000AF786043F22153FB817B68C4331846FFF763FFB860BB68002B1DD00020FFF7E1
S34560007900B1FF7B689B78012B0CD17B6803F10C00BB689968BB68DB681A4600F075FC0346FB8103E043F22153FB8100BFFB89002B02D00020FFF7B4FFFB8918461037BD4602
S3456000794080BD80B586B000AFF860B9607A603B6043F22153FB82BB68002B0CD0FB689B78012B08D1FB680C333A687968184600F07FFC0346FB82FB8A18461837BD4680BD73
S3456000798080B584B000AF7860FFF722FFF8607B689B78012B05D17B680C33184600F0A9FC00E000BFF868FFF723FF00BF1037BD4680BD80B588B000AF78607B68BB61BB6981
S345600079C0002B59D0BB69D4331846FFF7F6FEF86123E0BB69D4331846FFF738FFFB699B68BB60FB691B69FB60FB6900229A60FB69DB69002B08D0FB69DB69FA69106AFA6970
S34560007A00D28A07F108019847BB69D4331846FFF7D4FEF8610020FFF743FFFB69002BD8D1FFF7D6FE7861BB695B683B617869FFF7DFFE3B69002B1FD03B699B68002B1BD015
S34560007A403B691A693B69DB689A4215D33B699B68BB603B691B69FB603B6900229A603B69DB69002B08D03B69DB693A69106A3A69D28A07F10801984700BF2037BD4680BDA4
S34560007A8080B586B000AFF860B9601346FB80FB68002BFCD0BB68002BFCD0FB687B617B69C4331846FFF789FE38613B69002B22D07B69C4331846FFF7C9FE7869FFF70EFF64
S34560007AC0BB685A683B691A613B69FA88DA823B691B7D012B09D17B69D43339691846FFF7A7FE7869FFF765FF05E03B6900229A600020FFF7D5FE00BF1837BD4680BD90B576
S34560007B008BB000AFF860B9601346FB8000237B62FB68002BFCD0BB68002BFCD0FB68BB6143F22353FB80FFF753FE7861BB69D3F8BC20BB685B681A44BB69D3F8B8309A42B5
S34560007B4046D300233B623DE0BB681A683B6A1A44BB69D3F8B410BB69D3F8BC305C1CB869C0F8BC400B4412781A70BB69D3F8BC20BB69D3F8B8309A4203D3BB690022C3F86E
S34560007B80BC20BB69D3F8BC20BB69D3F8C0309A4215D143F22653FB80BB69D3F8C0305A1CBB69C3F8C020BB69D3F8C020BB69D3F8B8309A4203D3BB690022C3F8C0203B6AFC
S34560007BC001333B62BB685B683A6A9A42BCD316E0BB69D3F8B420BB69D3F8BC30D018BB681968BB685B681A46FCF772FABB69D3F8BC20BB685B681A44BB69C3F8BC20BB69A6
S34560007C00D3F8BC20BB69D3F8B8301A44BB69D3F8C030D31A7B62BB69D3F8B8207B6AB3FBF2F101FB02F29B1A7B62BB695B68002B6BD0BB695B689B68002B66D0BB695B681B
S34560007C40DA68BB695B681B699A4245D9BB695B68DA68BB695B681B69D31A3B610023FB612AE0BB69D3F8B420BB69D3F8C0301A44BB695B689968BB695B681B690B44127825
S34560007C801A70BB69D3F8C0305A1CBB69C3F8C020BB695B681A6901321A61BB69D3F8C020BB69D3F8B8309A4203D3BB690022C3F8C020FB690133FB613A697B6A934228BF37
S34560007CC01346FA699A42CCD33A697B6A934228BF13467A6AD31A7B62BB695B68DA68BB695B681B699A4210D8BB695B681B7D002B04D1BB695B6800229A6006E0BB695B68F5
S34560007D000022DA82B869FFF754FEBB6959687B6A0022B869FFF715FE7B6A002B17D0BB6800221A60BB687A6A5A60BB695B68002B0DD0BB695B68DB69002B08D0BB695B6865
S34560007D40DB69BA695268106AFA88B9689847BB691B8848F6417293420DD1BB69D3F8B8207B6AD31A013B7B62BB6959687B6A0022B869FFF7E6FD7869FFF73AFD00BF2C374D
S34560007D80BD4690BD80B483B000AF786000BF0C37BD4680BC7047FFFF80B588B000AFF860B9607A60FB700023FB77FB68002BFCD0BB68002BFCD07B68002BFCD0FB68BB61F5
S34560007DC0BB699B697B617B69002BFCD0BB695B6A2B4A9342FAD1FB78012B03D1BB69DB69002BF8D0FFF7F4FC3861BB699B68002B05D03869FFF7FCFC43F222533BE0BB6954
S34560007E00BA689A60BB697A68DA60BB6900221A61BB69FA781A757B69C4331846FFF7CDFC0346002B01D10123FB777B69C433B9691846FFF7FDFC3869FFF7DAFCFB7F002B6A
S34560007E4002D07869FFF74AFDFB78002B12D10BE0FFF7DDFC0346002B03D07869FFF790FD02E00120FFF78EFFBB69DA68BB691B699A42EDD8002318462037BD4680BD00BFBA
S34560007E805457BBAA80B584B000AF7860396043F22153FB813B68002BFCD07B68002BFCD000BF7B68BB603B681B68002BFBD03B685B68002BFBD04FF492720021B86800F07D
S34560007EC003FD3B685A89BB681A803B681A7ABB689A703B681A68BB68C3F8B4203B685A68BB68C3F8B8203B681B7A012B1CD1BB6803F10C023B68DB681946104600F056F933
S34560007F000346FB81FB89002B10D1BB680C33BA680949184600F0BDF9BB680C33BA680749184600F0CDF901E000BF00E000BFFB8918461037BD4680BD817A0060FF7A0060E8
S34560007F4080B586B000AF786039607B68002BFCD03B68002BFCD000BF7B687B613B683B61FFF736FCF8607B699B685A1C7B699A60F868FFF73DFC7B691B8848F64172934248
S34560007F8004D13B697A699A6100230BE02C220021386800F099FC3B697A699A613B69034A5A62002318461837BD4680BD5457BBAA80B586B000AF786039600023FB827B6805
S34560007FC0002BFCD03B68002BFCD000BF7B683B613B68FB603B691B8848F64172934204D1FB683A699A6100231CE0FFF7F1FBB8603B695B68002B03D043F22253FB820DE0D9
S345600080003B69FA685A602C220021386800F05CFCFB683A699A61FB68044A5A62B868FFF7E7FBFB8A18461837BD4680BD4452AABB80B584B000AFF860B9607A6001237A6887
S34560008040B968F868FFF7A8FE034618461037BD4680BDFFFF80B487B000AFF860B9607A60FB68002BFCD0FB687B617B695B6A074A9342FAD17B697A681A627B69BA68DA6136
S34560008080002318461C37BD4680BC70475457BBAA80B487B000AFF860B9607A60FB68002BFCD0FB687B617B695B6A074A9342FAD17B697A681A627B69BA68DA6100231846E4
S345600080C01C37BD4680BC70474452AABB80B582B000AF78607B6893F87930DBB2012B14D17B68012283F8782078687B687A3301221946FEF781FF0346002B06D07B68002264
S3456000810083F8782043F2215300E0002318460837BD4680BD80B588B000AFF8600B467A607B817B68002BFCD07B68FB617B8942F6AC72934215D1FB691846FFF701F8FB695F
S345600081401B6F002B2ED0FB697A337B610123BB61FB691B6FFA69506F07F114010022984720E07B8942F6AB7293421BD1FB6993F86C30DBB2002B15D0FB69002283F86C20CC
S34560008180FB695B6E002B0DD0FB69DB6D7B61FB691B6EBB61FB695B6EFA69906E07F114010022984700BF2037BD4680BD80B586B000AF786039603B687B6100237B823B68D4
S345600081C0002BFCD07B68002BFCD000BF7B68FB60FB6839681846FEF777FE03467B827B8A002BFCD17B699A7AFB6883F87920FB68FA6804491846FEF7DBFE7B8A18461837DD
S34560008200BD4680BD1581006080B586B000AFF860B9607A60FB68002BFCD0BB68002BFCD07B68002BFCD0FB687B617B6993F86C30DBB2002B02D043F2225315E07B69012275
S3456000824083F86C207B69BA68DA657B697A681A667B697A68B9681846FEF720FF03467B827B8A002BFCD1002318461837BD4680BD80B584B000AFF860B9607A60FB68002B69
S34560008280FCD0F868FFF722FF034618461037BD4680BD80B487B000AFF860B9607A60FB68002BFCD0FB687B617B69BA685A667B697A689A66002318461C37BD4680BC704793
S345600082C080B586B000AFF860B9607A60FB68002BFCD0FB687B617B69BA681A677B697A685A677869FFF7F2FE002318461837BD4680BD80B584B000AF78607B68002BFCD06B
S345600083007B68FB60FB681846FEF74AFF00BF1037BD4680BD80B582B000AF0346FB7197F90730002B02DBFB79002B05D1074B084A0F210848FCF794FAFB795B00DBB2013B08
S34560008340DBB218460837BD4680BD00BF14960060589700605096006080B584B000AF3B4600221A605A609A609A8101233B7001237B700123BB700123FB700A20FFF7CAFF26
S345600083800346FB8004233B813B4619460348FDF7C9FF00BF1037BD4680BD00BF00800B4080B400AF0A231846BD4680BC7047FFFF80B500AF0248FEF79AF800BF80BD00BF27
S345600083C000800B4080B582B000AF0748FEF73EF80346FB80FB88DBB203F01303DBB218460837BD4680BD00BF00800B4080B582B000AF0346FB71FB79102B06D0102B10DC74
S34560008400012B0AD0022B04D00BE00A48FCF7D0F90BE00948FCF7CCF907E00848FCF7C8F903E00748FCF7C4F900BF00BF0837BD4680BD00BFB4960060DC96006008970060DE
S345600084402C97006080B500AF4FF480410248FEF736F800BF80BD00BF00800B4080B582B000AF7860084B1B7883F00103DAB2064B1A70054B1B7819467868FEF74FFA00BFC7
S345600084800837BD4680BD00BF2008008080B582B000AF78607868FFF7E1FFFFF789FF00BF0837BD4680BDFFFF80B584B000AF78600A4B1B68FB6007F10C0319467868FEF7B4
S345600084C081F90346002B05D0054B064A32210648FCF7C6F900BF1037BD4680BD2098006070970060F8980060BC97006080B588B000AFF860B9601346FB800420FCF7A6FBDF
S34560008500F86107F1100300221A605A609A600F4B3B61FB697B6107F110031946F868FEF7C3FF0346002B05D0094B0A4A41210A48FCF796F9BA680949F868FFF77FF8F868A2
S34560008540FFF75CF800BF2037BD4680BD20A10700249800600C990060BC9700608D84006080B582B000AFFF23FB711548FCF720F94FF4FA711348FCF71BF91348FFF794FFE7
S345600085804FF4FA7210491148FFF7B0FF1048FCF70FF9FFF705FF034619460E48FCF708F9FFF710FF0346FB71FB791846FFF71EFFFFF7D2FEFB7918460837BD4680BD00BF9B
S345600085C080980060A0980060FC0700800C080080C0980060D898006053B94AB9002908BF00281CBF4FF0FF314FF0FF3000F06AB9ADF1080C6DE904CE00F006F8DDF804E0F3
S34560008600DDE9022304B070472DE9F047089D0C46002B4ED194468C458646B2FA82F262D94AB1C2F12003914020FA03F30CFA02FC194300FA02FE4FEA1C471FFA8CF6B1FB2F
S34560008640F7F44FEA1E4307FB141143EA014304FB06F199420AD91CEB030304F1FF3080F01281994240F20F81023C6344591A1FFA8EF3B1FBF7F007FB101143EA014300FBDE
S3456000868006F69E420AD91CEB030300F1FF3180F0FC809E4240F2F980634402389B1B40EA044000211DB1D3400022C5E90032BDE8F0878B4205D90DB1C5E900010021084644
S345600086C0F5E7B3FA83F1002946D1A34202D39042C0F0F080861A64EB03030120002DE6D0C5E90063E3E7002A40F09080A1EB0C044FEA1C481FFA8CF70121B4FBF8F64FEA20
S345600087001E4308FB164443EA044307FB06F0984208D91CEB030306F1FF3402D2984200F2CD8026461C1A1FFA8EF3B4FBF8F008FB104443EA044300FB07F79F4208D91CEB6A
S34560008740030300F1FF3402D29F4200F2B0802046DB1B40EA0640A5E7C1F120068B4022FA06F71F4320FA06FC04FA01F343EA0C03F44000FA01F8380C4FEA1349B4FBF0FE35
S345600087801FFA87FC00FB1E4449EA04440EFB0CF9A14502FA01F20AD93C190EF1FF3A80F08480A14540F28180AEF1020E3C44A4EB09041FFA83F9B4FBF0F300FB134449EA88
S345600087C0044403FB0CFCA44507D93C1903F1FF3067D2A44565D9023B3C4443EA0E40A0FB0293A4EB0C049C42CE469C4651D34ED055B1B8EB0E0364EB0C0404FA06F6CB40E9
S345600088001E43CC40C5E90064002150E7C2F1200320FA03F10CFA02FC24FA03F394400C434FEA1C4800FA02FE1FFA8CF7B3FBF8F008FB1031230C43EA014300FB07F1994261
S3456000884008D91CEB030300F1FF362CD299422AD9023863445B1AA4B2B3FBF8F108FB113344EA034401FB07F3A34208D91CEB040401F1FF3613D2A34211D902396444E41A1C
S3456000888041EA004139E70446F0E6084606E7C845AED2B9EB020E63EB070C0138A8E73146EDE7034699E73046D4E7D6467FE7634402384DE70646234608460FE7023E634445
S345600088C030E700BF704700BF830730B547D0541E002A3ED0CAB2034601E0013C39D303F8012B9D07F9D1032C2CD9CDB205EB05250F2C05EB054535D9A4F1100222F00F0CEE
S3456000890003F1100EE6444FEA121C1A46156055609560D56010327245F8D10CF1010214F00C0F03EB021204F00F0C13D0ACF1040323F003030433134442F8045B9A42FBD119
S345600089400CF003042CB1C9B21C4403F8011B9C42FBD130BD64461346002CF4D1F9E703461446C0E71A46A446E0E700BFFFFFFFFFFFFFFFFFFFFFFFFFFFFFFFFFFFFFFFFF4E
S3456000898030B490F800F020F007016FF0000C10F0070491F820F040F048804FF000046FF00700D1E9002391F840F000F1080082FA4CF2A4FA8CF283FA4CF3A2FA8CF34BBBEB
S345600089C0D1E9022382FA4CF200F10800A4FA8CF283FA4CF3A2FA8CF3E3B9D1E9042382FA4CF200F10800A4FA8CF283FA4CF3A2FA8CF37BB9D1E9062301F1200182FA4CF285
S34560008A0000F10800A4FA8CF283FA4CF3A2FA8CF3002BC6D0002A04BF04301A4612BAB2FA82F200EBD20030BC7047D1E9002304F00305C4F100004FEAC50514F0040F91F825
S34560008A4040F00CFA05F562EA05021CBF63EA050362464FF00004AAE7696E646578203C3D2036554C00000000633A5C646576656C6F706D656E745C6D696D7872743130358A
S34560008A80325C7673636F64655C636D616B655F74656D706C6174655C74656D706C6174655F70726F6A6563745C647269766572735C66736C5F636C6F636B2E6800FFFFFF1E
S34560008AC0010100FF434C4F434B5F436F6E74726F6C4761746500FFFF627573795368696674203C3D2043434D5F4E4F5F425553595F5741495400FFFF640000000000000003
S34560008B00434C4F434B5F436F6E74726F6C4761746500FFFF434C4F434B5F53657444697600FFFFFF434C4F434B5F5365744D757800FFFFFF21286E6F6E4361636865537430
S34560008B4061727420252073697A652900433A2F446576656C6F706D656E742F4D494D585254313035322F5653434F44452F636D616B655F74656D706C6174652F74656D7035
S34560008B806C6174655F70726F6A6563742F626F6172642F626F6172642E63000073697A65203D3D202875696E7433325F74292831203C3C206929000069203E3D203500FF9B
S34560008BC0424F4152445F436F6E6669674D50550058000000302E32006D61696E5F70726F6772616D6D00000050726F6A6563743A25732C2076657273696F6E5F6E756D62A3
S34560008C0065723A20257325730D0A00FF415353455254204552524F52202220257320223A2066696C652022257322204C696E6520222564222066756E6374696F6E206E619F
S34560008C406D652022257322200A00FFFF216279706173735874616C4F73630000433A2F446576656C6F706D656E742F4D494D585254313035322F5653434F44452F636D61CD
S34560008C806B655F74656D706C6174652F74656D706C6174655F70726F6A6563742F647269766572732F66736C5F636C6F636B2E6300FFFFFF66616C736500FFFF434C4F431D
S34560008CC04B5F496E697445787465726E616C436C6B00FFFF434C4F434B5F476574506C6C4672657100FFFFFF40787D0180F0FA0200E1F50540597307433A2F446576656CAB
S34560008D006F706D656E742F4D494D585254313035322F5653434F44452F636D616B655F74656D706C6174652F74656D706C6174655F70726F6A6563742F6472697665727375
S34560008D402F66736C5F636C6F636B2E6800FFFFFF0000000000801B4000C01B4000001C4000401C4000000C40FFFF1A011E001A020C031E01696E7374616E6365203C20414E
S34560008D80525241595F53495A4528735F6770696F4261736573290000433A2F446576656C6F706D656E742F4D494D585254313035322F5653434F44452F636D616B655F74B8
S34560008DC0656D706C6174652F74656D706C6174655F70726F6A6563742F647269766572732F66736C5F6770696F2E630070696E203C2033325500FFFF4750494F5F476574DA
S34560008E00496E7374616E636500FFFFFF434C4F434B5F436F6E74726F6C4761746500FFFF4750494F5F50696E577269746500FFFF00000000004018400080184000C0184029
S34560008E4000001940004019400080194000C0194000001A40FFFF18051C000C001801020306031A050E06FFFF696E7374616E6365203C2041525241595F53495A4528735FCF
S34560008E806C707561727442617365732900000000433A2F446576656C6F706D656E742F4D494D585254313035322F5653434F44452F636D616B655F74656D706C6174652F89
S34560008EC074656D706C6174655F70726F6A6563742F647269766572732F66736C5F6C70756172742E6300FFFF4E554C4C20213D20636F6E66696700003055203C20636F6EA2
S34560008F006669672D3E62617564526174655F4270730000002875696E74385F742946534C5F464541545552455F4C50554152545F4649464F5F53495A456E28626173652964
S34560008F40203E20636F6E6669672D3E74784669666F57617465726D61726B00002875696E74385F742946534C5F464541545552455F4C50554152545F4649464F5F53495A93
S34560008F80456E286261736529203E20636F6E6669672D3E72784669666F57617465726D61726B00FF4C50554152545F476574496E7374616E636500FF4C50554152545F4927
