S01500006D61696E5F70726F6772616D6D2E73726563A6
S345600020000000008135230060892300608B2300608D2300608F230060912300600000000000000000000000000000000093230060952300600000000097230060992300604D
S34560002040893500609135006099350060A1350060A9350060B1350060B9350060C1350060C9350060D1350060D9350060E1350060E9350060F1350060F93500600136006059
S34560002080093600601136006019360060213600602936006031360060393600604136006049360060513600605936006061360060693600607136006079360060813600600A
S345600020C0893600609136006099360060A1360060A9360060B1360060B9360060C1360060C9360060D1360060D9360060E1360060E9360060F1360060F936006001370060C9
S345600021000937006011370060193700602137006029370060313700603937006041370060493700605137006059370060613700606937006071370060793700608137006079
S34560002140893700609137006099370060A1370060A9370060B1370060B9370060C1370060C9370060D1370060D9370060E1370060E9370060F1370060F93700600138006038
S345600021803157006045570060595700606D5700608157006095570060A9570060BD570060D1570060E5570060093800601138006019380060213800602938006031380060E7
S345600021C039380060413800604938006051380060593800606138006069380060713800607938006081380060893800609138006099380060A1380060A9380060B1380060A9
S34560002200B9380060C1380060C9380060D1380060D9380060E1380060E9380060F1380060F93800600139006009390060113900601939006021390060293900603139006061
S3456000224039390060413900604939006051390060593900606139006069390060713900607939006081390060893900609139006099390060A1390060A9390060B139006018
S34560002280B9390060C1390060C9390060D1390060D9390060E1390060E9390060F1390060486C00600000008004000000486C00600000008100000000486C006000000020E7
S345600022C000000000486C00600000000000000000486C0060000020200000000004000080680000000000008100000000000000200000000000000000000000000000202043
S34560002300000000000023934209D210B450F8044B41F8044B04339342F8D310BC70477047002303E0002240F8042B04338B42F9D37047FFFF72B6104B83F3088801F084F866
S345600023400E4B07E003F10C049A6859681868FFF7D9FF23460A4A9342F4D306E01C46596854F8080BFFF7DCFF2346064A9342F5D362B601F041FBFEE700000081A0220060ED
S34560002380DC22006004230060FEE7FEE7FEE7FEE7FEE7FEE7FEE7FEE7FEE7FEE780B48BB000AFF860B9607A60FB687B617B6953E8003F3B613B697B62BB68DA437B6A134045
S345600023C07A6813437B627B6A3B62FB68FB61F9693A6A41E80023BB61BB69002BE4D100BF00BF2C37BD4680BC7047FFFF80B586B000AF03460A46FB8013467B71B7F9063081
S345600024001B0A7B61FB8803F01F033B617B69062B06D90E4B0E4A40F2BF510E4801F0EAFE7B699A000C4B1344FB6003223B6902FA03F17A793B6902FA03F31A46F868FFF76C
S34560002440ADFF00BF1837BD4680BD00BF58620060C06200606862006068C00F4080B582B000AF0346FB80B7F9063003211846FFF7BDFF00BF0837BD4680BD80B485B000AFB6
S34560002480F860B9607A603B60BB6803F00701FB691B0103F01002FB680A431A607B68002B02D07B683A681A6000BF1437BD4680BC704780B485B000AFF860B9607A603B6026
S345600024C0BB69002B02D0BB69FA691A6000BF1437BD4680BC704780B500AF00F003F800BF80BDFFFF80B582B002AF40F20240FFF7B5FF00230193254B009300230022022133
S345600025002348FFF7BAFF00230193224B00930023002202212048FFF7B0FF002301931F4B00930023002205211D48FFF7A6FF002301931C4B00930023002205211A48FFF75C
S345600025409CFF41F2B0030193104B00930023002202210F48FFF7ADFF45F2B00301930F4B00930023002205210D48FFF7A2FF45F2B00301930B4B00930023002205210A48AB
S34560002580FFF797FF00BFBD4680BD00BFDC821F40EC801F40E0821F40F0801F40D0831F40E0811F40D4831F40E4811F4080B48BB000AFF860B9607A60FB687B617B6953E8A0
S345600025C0003F3B613B697B62BB68DA437B6A13407A6813437B627B6A3B62FB68FB61F9693A6A41E80023BB61BB69002BE4D100BF00BF2C37BD4680BC7047FFFF80B584B09B
S3456000260000AF786039607B689B0EFB607B68DAB2214B13441A687B685B0BC3F30C017B681B0A03F01F0301FA03F3DB4302EA03017B681B0A03F01F033A689A407B685B0B6F
S34560002640C3F30C007B681B0A03F01F0300FA03F31A407B68D8B2104B0344184641EA02030360FB68202B06D90C4B0D4A40F269510C4801F0BFFDFB68202B09D000BF064B0C
S345600026809A6CFB6822FA03F303F00103002BF6D100BF1037BD4680BD00C00F40D4620060206300606862006080B584B000AF786039607B689B0EFB607B68DAB2214B1344B6
S345600026C01A687B685B0BC3F30C017B681B0A03F01F0301FA03F3DB4302EA03017B681B0A03F01F033A689A407B685B0BC3F30C007B681B0A03F01F0300FA03F31A407B68DC
S34560002700D8B2104B0344184641EA02030360FB68202B06D90C4B0D4A40F29D510C4801F069FDFB68202B09D000BF064B9A6CFB6822FA03F303F00103002BF6D100BF10370F
S34560002740BD4680BD00C00F40D4620060106300606862006080B586B000AF03460A46FB8013467B71B7F906301B0A7B61FB8803F01F033B617B69062B06D90E4B0E4A40F2AC
S34560002780BF510E4801F036FD7B699A000C4B1344FB6003223B6902FA03F17A793B6902FA03F31A46F868FFF701FF00BF1837BD4680BD00BF58620060FC620060686200609B
S345600027C068C00F4080B582B000AF0346FB80B7F9063000211846FFF7BDFF00BF0837BD4680BDFFFF80B483B000AF7860034A7B68136000BF0C37BD4680BC704718000080AE
S3456000280080B483B000AF7860034A7B68136000BF0C37BD4680BC70471C00008080B485B000AFF860B9601346FB71FB79002B0BD0BB681B0CC3F30B02FB68134404331A46E7
S345600028404FF4803313600AE0BB681B0CC3F30B02FB68134408331A464FF48033136000BF1437BD4680BC704780B485B000AF78600B46FB701346BB70FB78032B12D97B6835
S345600028805A68FB78032101FA03F3DB431340FB60BB7803F00302FB789A40FB681A437B685A6011E07B685A68FB78072101FA03F3DB431340FB60BB7803F00702FB789A405D
S345600028C0FB681A437B685A6000BF1437BD4680BC7047FFFF80B485B000AF78600B46FB701346BB707B689A680A4B1340FB60FB789B0603F08062FB681A43BB781B0403F40D
S345600029007F031A437B689A6000BF1437BD4680BC704700BFFFFF00FB80B500AF00F002F800BF80BD80B582B000AF4FF40040FFF767FFD74BD3F8C032D54A43F48033C2F85C
S34560002940C032D34BD3F8C032D14A23F40033C2F8C032D048FFF746FF002001F0CBFC01F01DFD012001F002FDCB4B1B6823F0FF03C94A43F07F0313600121C848FFF73EFE7F
S345600029800121C748FFF73AFEC64BDB6823F01F03C44A43F01303D36000BFC24B1B6803F00043B3F1004FF8D10021BF48FFF77CFE4FF48870FFF706FF4FF48470FFF702FF02
S345600029C040F21620FFF7FEFE4FF40670FFF7FAFE40F20E20FFF7F6FE0321B448FFF764FE0121B348FFF760FE0021B248FFF75CFE4FF48A70FFF7E6FE4FF48B70FFF7E2FEA7
S34560002A001820FFF7DFFE1A20FFF7DCFE4FF48670FFF7D8FE0121A848FFF746FE40F20260FFF7D0FE0121A548FFF73EFE0021A448FFF7E4FD40F20460FFF7C4FE0121A148F4
S34560002A40FFF732FE0021A048FFF7D8FD40F20220FFF7B8FE01219D48FFF726FE00219C48FFF7CCFD4FF48070FFF7ACFE4FF48170FFF7A8FE4FF48270FFF7A4FE4FF483706B
S34560002A80FFF7A0FE04219348FFF70EFE02219248FFF7B4FD1620FFF795FE03218F48FFF703FE00218E48FFF7A9FD40F21250FFF789FE03218B48FFF7F7FD01218A48FFF756
S34560002AC0F3FD00218948FFF799FD40F21450FFF779FE03218648FFF7E7FD01218548FFF7E3FD00218448FFF789FD40F21650FFF769FE03218148FFF7D7FD01218048FFF779
S34560002B00D3FD00217F48FFF779FD40F20620FFF759FE4FF40270FFF755FE40F20A20FFF751FE00217848FFF7BFFD00217748FFF765FD0E20FFF746FE1220FFF743FE1020FB
S34560002B40FFF740FE1420FFF73DFE01217048FFF7ABFD02216F48FFF751FD4FF4A360FFF731FE1C20FFF72EFE0C20FFF72BFE4FF48C70FFF727FE40F20230FFF723FE40F2A5
S34560002B800630FFF71FFE40F21A50FFF71BFE40F20E60FFF717FE00215F48FFF785FD00215E48FFF72BFD40F20A30FFF70BFE01215B48FFF779FD03215A48FFF775FD0521FB
S34560002BC05948FFF71BFD40F20E50FFF7FBFD01215648FFF769FD07215548FFF765FD03215448FFF70BFD40F20250FFF7EBFD01215148FFF759FD07215048FFF755FD0321B6
S34560002C004F48FFF7FBFC4FF44070FFF7DBFD01214C48FFF749FD07214B48FFF745FD03214A48FFF7EBFC00214948FFF7E7FC494801F0C4FB01F000FC012247491448FFF7B3
S34560002C40EDFD134BD3F87031114A23F40043C2F870310F4BD3F870310D4A23F40003C2F870310B4B1B6F0A4A43F400531367084BD3F8A030064A23F40053C2F8A030044BDF
S34560002C80D3F8A03023F4E033014A43F4803365E000800D4000366E0100C00F40186C0080143900140000084014EA00041468008010E0004014FB00801CE0078024EB008072
S34560002CC01C30008024F000801C3100803CEB00803C69008018FA00801864008024790080186E008028E6008028E007801C6A00802CE600802CE007801C6C008028F60080D6
S34560002D0028F007801C6E008038F307803832008020E207802068008024E007802426008038EC008018F7008038EF008030F9008030F600803074008030EC008030E9008080
S34560002D403067008028E9008028F90080207300800C200080F46200600D007000C2F8A0306B4B0022C3F8B020694B0122C3F8C020674BD3F8A030674A1A4042F21F0313434F
S34560002D807B607B6843F400237B60614BD3F870315F4A43F04043C2F870315D4A7B68C2F8A03000BF5A4BD3F8A030002BFADA002259495748FFF732FD01F04AFB0122574955
S34560002DC05348FFF72BFD524BD3F8E03023F003034F4A43F00103C2F8E0304D4BD3F8E0304B4A43F40053C2F8E030494BD3F8E030474A43F40013C2F8E03001F011FB0122F9
S34560002E0047494348FFF70AFD414B1B6A404A43F40053136203214348FFF7F0FB00214248FFF7ECFB00214148FFF7E8FB00214048FFF7E4FB364BD3F86031354A23F01F03D0
S34560002E40C2F860313B4B1B6E3A4A23F070031366384B1B6E23F00F03364A43F001031366344B1B6E334A23F460031366314B1B6E23F4F8132F4A43F4901313662D4B1B6E42
S34560002E802C4A23F4807313662A4B1B6E294A23F080031366274B1B6E264A23F080731366002200212448FFF7DFFC002203212248FFF7DAFC002206211F48FFF7D5FC0022B4
S34560002EC008211D48FFF7D0FC00220A211A48FFF7CBFC002200211848FFF7FCFC164B5B68154A23F400335360134B5B69124A23F080535361104B5B690F4A23F000535361F5
S34560002F000E4B0F4A1A6000BF0837BD4680BD00BF00800D4080CFFFFF0D00A0000D00E0000D0020001872008014390014186C00801C26008000C00F4000C00A400000008057
S34560002F400046C32380B483B000AF7860BFF35F8F00BF0B4A7B6843F001035360094B5B6A084A43F480335362BFF34F8F00BFBFF36F8F00BF00BF0C37BD4680BC704700BFD1
S34560002F8090ED00E000ED00E080B400AFBFF35F8F00BF0B4B5B6A0A4A23F480335362094B5B68084A23F001035360BFF34F8F00BFBFF36F8F00BF00BFBD4680BC704700BFEC
S34560002FC000ED00E090ED00E080B483B000AF78607B68DAB20C4B13441A687B685B0BC3F30C017B681B0A03F01F0301FA03F31A407B681B0A03F01F0322FA03F318460C3770
S34560003000BD4680BC704700BF00C00F4080B483B000AF78607B68DAB20C4B13441A687B685B0BC3F30C017B681B0A03F01F0301FA03F31A407B681B0A03F01F0322FA03F336
S3456000304018460C37BD4680BC704700BF00C00F4080B400AF074BD3F8703203F01003002B02D1054B1B6800E0044B1846BD4680BC704700BF00800D401800008000366E01C0
S3456000308090B583B000AF1348FFF79EFF0346002B10D1114801F0EAF90346104AA2FB03239C080F48FFF7B2FF03460133B4FBF3F37B600AE0FFF7CCFF04460948FFF7A6FF3D
S345600030C003460133B4FBF3F37B607B6818460C37BD4690BD242600800D001000ABAAAAAA24E0078080B582B000AFFFF7C9FF78607B6801224FF4E131012000F06FFD00BF4B
S345600031000837BD4680BDFFFF80B58AB000AFA04B7B62A04A7B6AD31A3B6200233B619E4B5B6903F40033B3F5003F16D1BFF34F8F00BFBFF36F8F00BF974B5B69964A23F4AE
S3456000314000335361944B0022C3F85022BFF34F8F00BFBFF36F8F00BF00BF8F4B5B6903F48033B3F5803F4DD18B4B0022C3F88420BFF34F8F00BF884B5B69874A23F48033B2
S345600031805361BFF34F8F00BF834A07F10803C2F87032814A3B1DC2F870327F4A07F10C03C2F87032BFF34F8F00BFBFF36F8F00BF794BD3F88030FB60FB685B0BC3F30E03E7
S345600031C0BB60FB68DB08C3F309037B60BB685A0143F6E07313407A6892076F491343C1F874327B685A1E7A60002BEFD1BB685A1EBA60002BE5D1BFF34F8F00BFBFF36F8F71
S3456000320000BF00BFFFF7C0FE644B1022DA60634B634A1A61614B634ADA60604B624A1A615E4B624ADA605D4B5F4A1A615B4B604ADA605A4B5F4A1A61584B1422DA60574B3D
S345600032405D4A1A61554B1522DA60544B5B4A1A61524B5B4ADA60514B584A1A614F4B594ADA604E4B584A1A614C4B584ADA604B4B574A1A6102E03B6901333B613B693A6AD1
S3456000328022FA03F3012BF6D83B69002B37D07B6A3A6AB3FBF2F2396A01FB02F29B1A002B06D04C4B4C4A40F277114C4800F0A2FF3B6901229A403B6A9A4206D0484B464A3B
S345600032C04FF4BC71454800F095FF3B69042B06D8444B414A40F27911404800F08BFF7B6A23F01F032D4A43F01903D3603B69013B5B0003F03E0229493B4B13430B61274BB1
S345600033003A4ADA60254B3A4A1A610620FFF71AFE214B5B6903F48033002B6BD11E4B0022C3F88420BFF34F8F00BF1B4BD3F88030FB61FB695B0BC3F30E03BB61FB69DB081B
S34560003340C3F309037B61BB695A0143F6E07313407A69920710491343C1F860327B695A1E7A61002BEFD1BB695A1EBA61002BE5D1BFF34F8F00BF084B5B69074A43F480331A
S345600033805361BFF34F8F00BFBFF36F8F33E000BF000000810000008200ED00E090ED00E03F00001011000080390010031200006013000060330003063B0010032100030333
S345600033C0160000201700202023000303180000803100030330630060BC6300604863006098630060B4630060010008031A0000402B00100300BF134B5B6903F40033002BB9
S345600034001BD1BFF34F8F00BFBFF36F8F00BF0D4B0022C3F85022BFF34F8F00BFBFF36F8F00BF084B5B69074A43F400335361BFF34F8F00BFBFF36F8F00E000BF00BF2837D5
S34560003440BD4680BD00ED00E080B500AF444B454A9A60454B1B899BB2434A23F001039BB21381424B1B899BB2404A23F001039BB213813D4B1B889BB203F00403002B07D063
S34560003480394B1B889BB2384A23F004039BB21380364B1B889BB203F00403002B07D0334B1B889BB2314A23F004039BB21380304B1B6803F40053002B03D02D4B2D4A5A6077
S345600034C007E02B4B4CF220525A60294B4DF628125A60274B4FF6FF729A60254B1B6823F0A003234A43F020031360234B1B6803F00103002B05D0204B1B681F4A23F001039D
S345600035001360174B5B6903F40033B3F5003F22D0134B5B6903F40033002B1BD1BFF34F8F00BFBFF36F8F00BF0D4B0022C3F85022BFF34F8F00BFBFF36F8F00BF084B5B69EC
S34560003540074A43F400335361BFF34F8F00BFBFF36F8F00E000BF00F011F800BF80BD00BF00ED00E00020006000800B4000000D4000C00B4020C528D910E000E080B400AF1B
S3456000358000BFBD4680BC704708B5FEF706FF08BD08B5FEF702FF08BD08B5FEF7FEFE08BD08B5FEF7FAFE08BD08B5FEF7F6FE08BD08B5FEF7F2FE08BD08B5FEF7EEFE08BDE5
S345600035C008B5FEF7EAFE08BD08B5FEF7E6FE08BD08B5FEF7E2FE08BD08B5FEF7DEFE08BD08B5FEF7DAFE08BD08B5FEF7D6FE08BD08B5FEF7D2FE08BD08B5FEF7CEFE08BDDD
S3456000360008B5FEF7CAFE08BD08B5FEF7C6FE08BD08B5FEF7C2FE08BD08B5FEF7BEFE08BD08B5FEF7BAFE08BD08B501F02DFF08BD08B501F03DFF08BD08B501F04DFF08BD04
S3456000364008B501F05DFF08BD08B501F06DFF08BD08B501F07DFF08BD08B501F08DFF08BD08B501F09DFF08BD08B5FEF796FE08BD08B5FEF792FE08BD08B5FEF78EFE08BD24
S3456000368008B5FEF78AFE08BD08B5FEF786FE08BD08B5FEF782FE08BD08B5FEF77EFE08BD08B5FEF77AFE08BD08B5FEF776FE08BD08B5FEF772FE08BD08B5FEF76EFE08BD1C
S345600036C008B5FEF76AFE08BD08B5FEF766FE08BD08B5FEF762FE08BD08B5FEF75EFE08BD08B5FEF75AFE08BD08B5FEF756FE08BD08B5FEF752FE08BD08B5FEF74EFE08BDDC
S3456000370008B5FEF74AFE08BD08B5FEF746FE08BD08B5FEF742FE08BD08B5FEF73EFE08BD08B5FEF73AFE08BD08B5FEF736FE08BD08B5FEF732FE08BD08B5FEF72EFE08BD9B
S3456000374008B5FEF72AFE08BD08B5FEF726FE08BD08B5FEF722FE08BD08B5FEF71EFE08BD08B5FEF71AFE08BD08B5FEF716FE08BD08B5FEF712FE08BD08B5FEF70EFE08BD5B
S3456000378008B5FEF70AFE08BD08B5FEF706FE08BD08B5FEF702FE08BD08B5FEF7FEFD08BD08B5FEF7FAFD08BD08B5FEF7F6FD08BD08B5FEF7F2FD08BD08B5FEF7EEFD08BD20
S345600037C008B5FEF7EAFD08BD08B5FEF7E6FD08BD08B5FEF7E2FD08BD08B5FEF7DEFD08BD08B5FEF7DAFD08BD08B5FEF7D6FD08BD08B5FEF7D2FD08BD08B5FEF7CEFD08BDE3
S3456000380008B5FEF7CAFD08BD08B5FEF7C6FD08BD08B5FEF7C2FD08BD08B5FEF7BEFD08BD08B5FEF7BAFD08BD08B5FEF7B6FD08BD08B5FEF7B2FD08BD08B5FEF7AEFD08BDA2
S3456000384008B5FEF7AAFD08BD08B5FEF7A6FD08BD08B5FEF7A2FD08BD08B5FEF79EFD08BD08B5FEF79AFD08BD08B5FEF796FD08BD08B5FEF792FD08BD08B5FEF78EFD08BD62
S3456000388008B5FEF78AFD08BD08B5FEF786FD08BD08B5FEF782FD08BD08B5FEF77EFD08BD08B5FEF77AFD08BD08B5FEF776FD08BD08B5FEF772FD08BD08B5FEF76EFD08BD22
S345600038C008B5FEF76AFD08BD08B5FEF766FD08BD08B5FEF762FD08BD08B5FEF75EFD08BD08B5FEF75AFD08BD08B5FEF756FD08BD08B5FEF752FD08BD08B5FEF74EFD08BDE2
S3456000390008B5FEF74AFD08BD08B5FEF746FD08BD08B5FEF742FD08BD08B5FEF73EFD08BD08B5FEF73AFD08BD08B5FEF736FD08BD08B5FEF732FD08BD08B5FEF72EFD08BDA1
S3456000394008B5FEF72AFD08BD08B5FEF726FD08BD08B5FEF722FD08BD08B5FEF71EFD08BD08B5FEF71AFD08BD08B5FEF716FD08BD08B5FEF712FD08BD08B5FEF70EFD08BD61
S3456000398008B5FEF70AFD08BD08B5FEF706FD08BD08B5FEF702FD08BD08B5FEF7FEFC08BD08B5FEF7FAFC08BD08B5FEF7F6FC08BD08B5FEF7F2FC08BD08B5FEF7EEFC08BD26
S345600039C008B5FEF7EAFC08BD08B5FEF7E6FC08BD08B5FEF7E2FC08BD08B5FEF7DEFC08BD08B5FEF7DAFC08BD08B5FEF7D6FC08BD08B5FEF7D2FC08BD80B58CB000AFFFF714
S34560003A0083FBFEF768FDFEF787FFFFF76BFB3E4B1B68FB603D4B1B68BB6007F10C0207F120031146184601F043FF07F1080207F110031146184601F03BFF354B354A364970
S34560003A40364800F00FF90023FB71FA1D07F120031146184601F0D8FF0346002B05D1FB7919462F4800F0FEF802E02E4800F0FAF807F120030021184602F00AF807F11003DF
S34560003A800021184602F004F8FA1D07F120031146184601F0B9FF0346002B05D1FB791946214800F0DFF802E01E4800F0DBF81F494CF2503000F004FF07F120030121184697
S34560003AC001F0E6FF07F110030121184601F0E0FFFA1D07F120031146184601F095FF0346002B05D1FB791946114800F0BBF802E00C4800F0B7F80D490E4800F0E1FE0E4804
S34560003B0000F0B0F8B4E700BF6C64006070640060CC630060D0630060D4630060E4630060086400601C640060346400600046C3234864006020A107005C640060F1B5002AD5
S34560003B404BD011F0030306D011F8014B013A00F8014B42D0F5E710F003031BD1102A04DB103AF0C9102AF0C0FAD2130744BF30C930C0530744BF51F8044B40F8044B930745
S34560003B8044BF31F8024B20F8024BD30744BF0C78047022E0C3070AD4042A16D351F8044B043A20F8024B250C20F8025BF4E7042A0BD351F8044B043A00F8014B250A20F802
S34560003BC0025B260E00F8016BF1E7002A1EBF11F8014B00F8014B013AF7D1F1BD80B58AB000AFB9607B600346FB731346BB73BB7B012B01D001232AE0174ABB7B13747B688F
S34560003C007B61BB68BB6100233B7700237B770123BB770123FB77002387F82030002387F82130FB7B87F82230002387F82330002387F8243007F114031946074801F0EEFF7B
S34560003C40054B064A9A60044B054ADA60002318462837BD4680BD00BF04000080555D0060C95C00600FB480B582B000AF00237B6007F114033B603968386900F009F87860E6
S34560003C807B6818460837BD46BDE8804004B0704780B584B000AF786039600023FB60094B1B7C002B02D14FF0FF3306E03A687968054800F0A3F8F860FB6818461037BD4646
S34560003CC080BD00BF04000080CD3C006080B582B000AF7860084B1B7C002B02D14FF0FF3306E0054B9B68391D012203489847012318460837BD4680BD0400008080B586B062
S34560003D0000AFB9607A603B600346FB73BB687B610BE0FA7B3B6A104698473B681B685A1C3B681A607B6901337B617A697B689A42EFDB00BF00BF1837BD4680BD80B48FB057
S34560003D4000AFF860B9607A603B600023FB62FB68BB62BB6A5A1CBA6200221A7000237B6000237B6200233B620023FB6100237B630023BB6100233B6300237B61BB681B6802
S34560003D807B637B6B002B30D1BB6A30221A70FB6A0133FB62FB6A2CE03B687A6BB2FBF3F3BB613B68BA6902FB03F37A6BD31A3B633B6B092B03D83B6B30333B630AE097F810
S34560003DC04030002B01D0412200E061223B6B13440A3B3B63BB697B63BB6A5A1CBA623A6BD2B21A70FB6A0133FB627B6B002BD3D1FB6A18463C37BD4680BC704780B59CB087
S34560003E0002AFF860B9607A6000233B660023FB650023FB61002387F84A3000237B61BB687B667B6E1B78002B00F0D2817B6E1B7887F8493097F84930252B0BD097F84920B2
S34560003E40FB6810469847FB690133FB617B6E01337B66BCE1012387F84B3000237B65002387F85B3020E07B6E01337B667B6E1B7887F8493097F849302F2B0FD997F84930A3
S34560003E80392B0BD87A6D13469B0013445B001A4697F849301344303B7B6505E07B6E013B7B66012387F85B3097F85B3083F00103DBB2002BD7D17B6E01337B667B6E1B783A
S34560003EC02E2B2ED100233B65002387F85B3020E07B6E01337B667B6E1B7887F8493097F849302F2B0FD997F84930392B0BD83A6D13469B0013445B001A4697F849301344FD
S34560003F00303B3B6505E07B6E013B7B66012387F85B3097F85B3083F00103DBB2002BD7D102E07B6E013B7B667B6E01337B667B6E1B7887F8493097F84930642B24D097F892
S34560003F404930692B20D097F84930662B1CD097F84930462B18D097F84930782B14D097F84930582B10D097F849306F2B0CD097F84930622B08D097F84930702B04D097F80D
S34560003F804930752B40F0DC8097F84930642B03D097F84930692B15D17B681A1D7A601B68BB6107F1180107F1200097F84B3000930A230122FFF7C2FEF86507F12002FB6DCC
S34560003FC013443B6697F84930582B03D097F84930782B1CD197F84930782B02D1002387F84B307B681A1D7A601B687B6107F1140107F1200097F84B30009310230022FFF772
S345600040009DFEF86507F12002FB6D13443B6697F849306F2B0BD097F84930622B07D097F84930702B03D097F84930752B6AD197F84930702B0DD17B681A1D7A601B683B61D2
S3456000404007F1100107F1140304221846FFF776FD04E07B681A1D7A601B687B6197F84930623B132B3AD801A252F823F0C5400060DD400060DD400060DD400060DD40006050
S34560004080DD400060DD400060DD400060DD400060DD400060DD400060DD400060DD400060BD400060CD400060DD400060DD400060DD400060DD400060D5400060082387F8D5
S345600040C04A300CE0022387F84A3008E0102387F84A3004E00A2387F84A3000E000BF97F84A2007F1140107F1200097F84B30009313460022FFF722FEF86507F12002FB6DEE
S3456000410013443B667A6D07F11C01FB6800930B46F96D2020FFF7F2FD3B6E002B54D00AE03B6E5A1E3A661B781A46FB6810469847FB690133FB613B6E1B78002BF0D143E0E6
S3456000414097F84930632B0BD17B681A1D7A601B687B64FB68786C9847FB690133FB6133E097F84930732B27D17B681A1D7A601B68FB64FB6C002B27D0F86C02F001F803464F
S34560004180FB657A6D07F11C01FB6800930B46F96D2020FFF7B3FD0AE0FB6C5A1CFA641B781A46FB6810469847FB690133FB61FB6C1B78002BF0D107E097F84920FB68104688
S345600041C09847FB690133FB617B6E01337B6628E600BFFB6918466837BD4680BD80B485B000AFF860B9607A60002318461437BD4680BC704780B586B002AFF860B9607A608E
S345600042003B607B680093BB68FA6839680448FFF729FDBA68F9683868FFF7E0FF00BEFDE77464006080B400AF074BD3F8703203F01003002B02D1054B1B6800E0044B1846A1
S34560004240BD4680BC704700BF00800D401800008000366E0180B483B000AF786039603B681B0CC3F30B027B6813441B6803F48033002B14BF01230023DBB218460C37BD4628
S3456000428080BC704780B483B000AF786039603B681B0CC3F30B027B6813441A683B6803F01F0322FA03F303F00103002B14BF01230023DBB218460C37BD4680BC704780B576
S345600042C082B000AF786039603B681B0CC3F30B027B6813441B689B0B03F00303002B03D1FFF7A0FF034600E0002318460837BD4680BDFFFF80B582B000AF0346FB71FB7923
S3456000430083F00103DBB2002B05D1144B144AC0211448FFF76FFF144B4FF08042C3F8582100BF114BD3F8703203F48033002BF8D00D4B4FF48032C3F8542100BF0A4BD3F89F
S34560004340503103F40043002BF8D0074B4FF48032C3F8582100BF0837BD4680BDB464006024650060C464006000800D4080B483B000AF0346FB71FB79002B04D1064B1022F8
S34560004380C3F8742203E0044B1022C3F8782200BF0C37BD4680BC704700800D4080B400AF054BD3F87032044A43F00103C2F8703200BFBD4680BC704700800D4080B483B05E
S345600043C000AF7860144B1B6823F4E0327B681B799B039BB21343104A43F4803313600E4B1A680E4B13407A68126802F07F021343094A43F40053136000BF074B1B68002B9B
S34560004400FBDA054B1B68044A23F48033136000BF0C37BD4680BC704700800D4080CFFFFF80B400AF034B00221A6200BFBD4680BC704700BF00800D4080B400AF034B4FF44D
S3456000444080521A6700BFBD4680BC704700800D4080B400AF044B4FF48052C3F8E02000BFBD4680BC704700BF00800D402DE9B04F98B000AFF864F96C9F48FFF703FF0346C9
S3456000448083F00103DBB2002B01D00023F6E1F96C9948FFF714FFF865F96C9748FFF7DAFE0346002B01D0FB6DE8E1FA6C934B9A4200F0CF81FA6C914B9A4200F2DB81FA6C36
S345600044C08F4B9A4200F0B981FA6C8D4B9A4200F2D181FA6C8B4B9A4200F02881FA6C894B9A4200F2C781FA6C874B9A427FD0FB6C854A934200F2BE81FB6C844A934220D07E
S34560004500FB6C824A934200F2B581FB6C804A934200F0A281FB6C7E4A934200F2AB81FB6C0D2B04D0FB6C7B4A934252D0A2E1724B1B6803F07F03FA6D02FB03F35B08FB65BF
S345600045409BE1FB6D00223B647A646B4B1B6D0022BB63FA63D7E910342246D7E90E89414601FB02F24D4618462146034603FB05F3134402464146A2FB01AB5B449B46C7E907
S3456000458014ABC7E914AB5C4B1B6E00223B607A60D7E90023D7E9140101F01EFC02460B46C7E91423544B1B6B03F00103002B05D0FB6D162202FB03F3FB6505E0FA6D1346A9
S345600045C09B0013449B00FB653B6DFA6D1344FB6553E1494B1B6903F00203002B01D0162200E01422FB6D02FB03F3FB6545E1424B1B6F03F07F03BB65FB6D00223B637A6382
S345600046003D4BD3F880300022BB62FA62D7E90C342246D7E90AAB514601FB02F25D4618462146034603FB05F3134402465146A2FB01894B449946C7E91489C7E914892E4B8D
S34560004640D3F890300022BB60FA60D7E90223D7E9140101F0C1FB02460B46C7E91423FB6DBA6D03FB02F23B6D1344FB65224B1B6F03F4C013B3F5801F17D0B3F5801F0DD8D0
S34560004680002B03D0B3F5002F04D007E0FB6D9B08FB650BE0FB6D5B08FB6507E01E4B1F4A40F20C411E48FFF7A5FD00BF124BD3F870211C4B13401B4A93420ED0194A9342CB
S345600046C013D8B3F5000F2FD0B3F5000F0DD8002B2AD0B3F5004F04D007E0FB6D9B08FB6523E0FB6D5B08FB651FE00B4B0B4A4FF484610B48FFF77EFD00800D401500E0004F
S345600047000D00E0000D00A0000D0070000D0030000D0020000D0010001C6500603C650060C46400600080800000BFA6E0564BD3F8A03003F07F03BB65FB6D00223B627A62F2
S34560004740514BD3F8B0300022BB61FA61D7E908010B46D7E90689424602FB03F24B4684460CFB03F3134402464146A2FB01452B441D46C7E91445C7E91445434BD3F8C03082
S3456000478000223B617A61D7E90423D7E9140101F023FB02460B46C7E91423FB6DBA6D03FB02F23B6D1344FB65374BD3F8A03003F4C013B3F5801F17D0B3F5801F0DD8002B63
S345600047C003D0B3F5002F04D007E0FB6D9B08FB650BE0FB6D5B08FB6507E02C4B2C4A40F24D412C48FFF706FD00BF274BD3F8703103F04043B3F1404F0ED0B3F1404F13D82A
S34560004800B3F1004F17D0B3F1004F0DD8002B12D0B3F1804F04D007E0FB6D9B08FB650BE0FB6D5B08FB6507E0184B194A40F261411848FFF7DFFC00BF1FE0134BD3F8E030FB
S3456000484003F00303BB65144ABB6D52F82330FB6513E0124BFB6510E00B4B1B6A03F00203002B01D0162200E01422FB6D02FB03F3FB6502E00023FB6500BFFB6D184660373D
S34560004880BD46BDE8B08F00BF00800D401C6500603C650060C46400605065006040787D0180B483B000AF78607B681846A0F101000028FBD100BF0C37BD4680BC7047FFFFBF
S345600048C02DE9B04F84B000AF786039607968002939D07968002088468146396800200A46034602FB09F008FB03F10144A8FB02454B191D46164A4FF000032046294601F09B
S345600049006BFA02460B46C7E90223D7E90223012B05D3104B104AD5211048FFF76BFCD7E902014FF003024FF0000301F055FA02460B4612EB020A43EB030BC7E902ABBB680E
S345600049401846FFF7ADFF00BF1037BD46BDE8B08F40420F00FC65006010660060A065006080B48BB000AFF860B9607A60FB687B617B6953E8003F3B613B697B62BB68DA43F4
S345600049807B6A13407A6813437B627B6A3B62FB68FB61F9693A6A41E80023BB61BB69002BE4D100BF00BF2C37BD4680BC7047FFFF80B586B000AF03460A46FB8013467B7149
S345600049C0B7F906301B0A7B61FB8803F01F033B617B69062B06D90E4B0E4A40F2BF510E48FFF708FC7B699A000C4B1344FB6003223B6902FA03F17A793B6902FA03F31A46D6
S34560004A00F868FFF7ADFF00BF1837BD4680BD00BF58620060386700602466006068C00F4080B582B000AF0346FB80B7F9063003211846FFF7BDFF00BF0837BD4680BD80B520
S34560004A4084B000AFF860B9601346FB71FB791A46B968F86800F0ACF800BF1037BD4680BD80B584B000AF78600023FB6009E00E4AFB6852F823307A689A4206D0FB680133AE
S34560004A80FB60FB68052BF2D900E000BFFB68052B05D9064B064A3C210648FFF7ABFBFB6818461037BD4680BD7C660060A066006024670060C466006080B586B000AFF86008
S34560004AC0B9607A60F868FFF7CBFF78617B69052B0DD8214A7B6932F91330B3F1FF3F06D01D4A7B6932F913301846FFF799FFFB685A690121BB6801FA03F3DB431A40FB681A
S34560004B005A617B681B78002B0AD1FB685A680121BB6801FA03F3DB431A40FB685A600FE07B685B781A46B968F86800F017F8FB685A680121BB6801FA03F31A43FB685A608E
S34560004B407B689B781A46B968F868FFF778FF00BF1837BD4680BD00BF9466006080B584B000AFF860B9601346FB71BB681F2B05D90C4B0D4A75210D48FFF73CFBFB79002B26
S34560004B8006D10122BB689A40FB68C3F8882005E00122BB689A40FB68C3F8842000BF1037BD4680BD186700604C670060C466006080B487B000AFF860B9601346FB71BB68D6
S34560004BC03B61FB68DA690121BB6801FA03F3DB431A40FB68DA61BB680F2B03D8FB680C337B6105E0FB6810337B613B69103B3B61FB79013B042B52D801A252F823F000BF51
S34560004C00154C00602D4C0060514C0060754C00608B4C00607B691A683B695B00032101FA03F3DB431A407B691A6039E07B691A683B695B00032101FA03F3DB431A403B6920
S34560004C405B00012101FA03F31A437B691A6027E07B691A683B695B00032101FA03F3DB431A403B695B00022101FA03F31A437B691A6015E07B691A683B695B00032101FA65
S34560004C8003F31A437B691A600AE0FB68DA690121BB6801FA03F31A43FB68DA6100E000BF00BF1C37BD4680BC704700BF80B48BB000AFF860B9607A60FB687B617B6953E8EF
S34560004CC0003F3B613B697B62BB68DA437B6A13407A6813437B627B6A3B62FB68FB61F9693A6A41E80023BB61BB69002BE4D100BF00BF2C37BD4680BC7047FFFF80B586B072
S34560004D0000AF03460A46FB8013467B71B7F906301B0A7B61FB8803F01F033B617B69062B06D90E4B0E4A40F2BF510E48FFF762FA7B699A000C4B1344FB6003223B6902FA0F
S34560004D4003F17A793B6902FA03F31A46F868FFF7ADFF00BF1837BD4680BD00BF58620060006900602466006068C00F4080B582B000AF0346FB80B7F9063003211846FFF765
S34560004D80BDFF00BF0837BD4680BD80B483B000AF78607B689B6843F002027B689A607B689B6823F002027B689A6000BF0C37BD4680BC704780B584B000AF78600023FB606B
S34560004DC00BE00E4AFB6852F823307A689A4201D1FB680FE0FB680133FB60FB68082BF0D9FB68082B05D9064B064ABF210648FFF701FAFB6818461037BD4680BD5C67006038
S34560004E0094670060E0680060BC67006080B58CB000AFF860B9607A60BB68002B06D17C4B7C4A40F237117C48FFF7E4F9BB681B68002B06D1794B774A4FF49C717648FFF727
S34560004E40D9F9BB681B7A032B06D9754B714A4FF49D717148FFF7CEF9BB685B7A032B06D9704B6C4A40F23B116B48FFF7C3F90023FB62BB681B68FB61002387F82330002300
S34560004E80FB84042387F8223049E07A6813469B0013445B001946BB681B6897F8222002FB03F3B1FBF3F305335F4AA2FB0323DB08BB84BB8C002B02D10123BB8406E0BB8C6E
S34560004EC0B3F5005F02D341F6FF73BB8497F82230BA8C02FB03F37A68B2FBF3F37B61BB681B687A699A4204D9BB681B687A69D31A03E0BB681A687B69D31A3B613A69FB6969
S34560004F009A4207D83B69FB6197F8223087F82330BB8CFB8497F82230013387F8223097F82230202BB1D9BB681B68404AA2FB03235A0913465B001344FA699A4203D940F28D
S34560004F402153FB62FEE0F868FFF734FFB861384ABB6932F913301846FFF708FFF868FFF714FFFB681B69BB6297F82330032B07D997F82330072B03D8BB6A43F40033BB6213
S34560004F80BB6A23F0F853BB6297F82330013B1B0603F0F853BA6A1343BB62BA6A254B1340BB62FB8CC3F30C02BB6A1A43FB681A61FB681B6923F00052FB681A61FB689A6998
S34560004FC01D4B1340BB62BB681B791A46BB68DB7B1B0203F4E0631A43BB689B7B9B0003F004031343BA6A1343BB62BB685B79012B24D1BB681B79002B04D0BB6A23F4006307
S34560005000BB6223E0BB6A43F40063BB621EE000BF24680060F4680060BC670060346800605068006098680060CDCCCCCC1F85EB518067006000E0FFFFE8F8FFFFBB681B79E7
S34560005040002B03D0BB6A43F01003BB62FB68BA6A9A61FB681B6923F40053BB62BB68DB795B0303F40052BB6A1A43FB681A61BB685B7A1B04BA68127A1A43FB68DA62FB68B2
S345600050809B6A43F08802FB689A62FB689B6A43F44042FB689A622E4BBB62BB6A43F00043BB62BB6A43F44043BB62FB685A6ABB685B7B1B0103F01001BB681B7B5B0103F057
S345600050C020030B431A43FB685A62BB689B7A002B05D0FB685B6A43F00802FB685A62BB68DB7A002B05D0FB685B6A43F00102FB685A62BB689B79002B04D0BB6A43F00053CB
S34560005100BB6203E0BB6A23F00053BB62FB685A69BB6A1A43FB685A61FB689B69BB62BB681B7C002B03D0BB6A43F40023BB62BB685B7C002B03D0BB6A43F48023BB62FB684C
S34560005140BA6A9A61FB6A18463037BD4680BD00BF00001F4080B582B000AF78607B68002B06D11F4B1F4A40F25B211F48FFF742F814220021786800F0A7FF7B684FF4E13231
S345600051801A607B6800221A717B6800225A717B6800229A717B680022DA717B6800221A727B6800225A727B6800229A727B680022DA727B6800225A737B6800221A737B6844
S345600051C000229A737B680022DA737B6800221A747B6800225A7400BF0837BD4680BD00BF2468006014690060BC67006080B485B000AF78607B685B69FB607B689B6A1B0C18
S3456000520003F0C303FA681343FB60FA68044B1340FB60FB6818461437BD4680BC704700BFC3C0FFC180B584B000AF786039603A681A4B13403B603B6803F00303002B10D0B4
S345600052407B689B6ABB60BB6823F47033BB603B681B0403F44033BA681343BB607B68BA689A627B685B6903F078533A681343BB607B68BA685A617868FFF7B8FF02463B685D
S345600052801340002B03D040F21A53FB6001E00023FB60FB6818461037BD4680BD03C01FC080B586B000AFF860B9607A60BB68002B06D1164B164A40F20B411648FEF79AFF3F
S345600052C0BB687B617B683B6111E000BFFB685B6903F40003002BF9D07B691B781A46FB68DA617B6901337B613B69013B3B613B69002BEAD100BFFB685B6903F48003002B0B
S34560005300F9D0002318461837BD4680BD146800602C690060BC67006080B58AB000AFF860B9607A60BB68002B06D1544B544A40F24C415448FEF75EFF00237B62BB683B62A2
S34560005340FB689B69FB61FB6903F40063002B09D1FB6903F01003002B06D1FB6903F00203002B01D0012300E00023FB76FB7E03F00103FB7676E0F868FFF738FF78617B6964
S3456000538003F40023002B0ED04FF40021F868FFF749FF0346002B02D140F21D5301E040F21A537B6244E07B6903F48033002B0DD04FF48031F868FFF735FF0346002B02D19D
S345600053C04FF4A46301E040F21A537B627B6903F40033002B0DD04FF40031F868FFF722FF0346002B02D140F21F5301E040F21A537B627B6903F48023002B0DD04FF48021ED
S34560005400F868FFF70FFF0346002B02D140F21E5301E040F21A537B627B6A002B07D1FB68DB6A1B0E03F00703002BA4D000E000BF7B6A002B1CD1FB7E002B0BD0FB68DB6944
S34560005440DBB203F07F03DAB23B6A1A703B6A01333B6207E0FB68DB69DAB23B6A1A703B6A01333B627B685A1E7A60002BD7D100E000BF7B6A18462837BD4680BD146800606F
S3456000548044690060BC67006080B500AF054B5B68054A5268114605489847BFF34F8F00BF00BF80BD44000080200000800040184080B500AF054B9B68054A92681146054808
S345600054C09847BFF34F8F00BF00BF80BD44000080200000800080184080B500AF054BDB68054AD268114605489847BFF34F8F00BF00BF80BD440000802000008000C0184096
S3456000550080B500AF054B1B69054A1269114605489847BFF34F8F00BF00BF80BD44000080200000800000194080B500AF054B5B69054A5269114605489847BFF34F8F00BF24
S3456000554000BF80BD44000080200000800040194080B500AF054B9B69054A9269114605489847BFF34F8F00BF00BF80BD44000080200000800080194080B500AF054BDB69C7
S34560005580054AD269114605489847BFF34F8F00BF00BF80BD440000802000008000C0194080B500AF054B1B6A054A126A114605489847BFF34F8F00BF00BF80BD440000809A
S345600055C02000008000001A4080B483B000AFEFF310833B603B687B6072B600BF7B6818460C37BD4680BC704780B485B000AF78607B68FB60FB6883F3108800BF00BF1437DE
S34560005600BD4680BC7047FFFF80B582B000AF786039603B681F2B05D9084B094AB2210948FEF7E8FD7B681A683B6822FA03F303F0010318460837BD4680BD00BF186700608E
S34560005640886A00605869006080B483B000AF78607B689B6918460C37BD4680BC704780B483B000AF786039607B683A689A6100BF0C37BD4680BC7047B0B58AB000AF03464F
S34560005680FB71294B1B687B62284B07F108041D460FCD0FC495E8030084E80300FB799B0028333B4453F8203C1846FFF7CDFF3862FB799B0028333B4453F8203C396A1846F1
S345600056C0FFF7CDFF28E07B6A5B7B03F01C03DBB2002B1ED07B6A1B7BC3F30303DBB21A46FB79934215D17B6A9B89C3F30413DBB21A463B6AD34003F00103002B09D07B6A59
S345600057005B68002B05D07B6A5B687A6A9268104698477B6A1B687B627B6A002BD3D100BF00BF2837BD46B0BD68000080AC69006080B500AF0120FFF79FFFBFF34F8F00BFFA
S3456000574000BF80BD80B500AF0120FFF795FFBFF34F8F00BF00BF80BD80B500AF0220FFF78BFFBFF34F8F00BF00BF80BD80B500AF0220FFF781FFBFF34F8F00BF00BF80BD55
S3456000578080B500AF0320FFF777FFBFF34F8F00BF00BF80BD80B500AF0320FFF76DFFBFF34F8F00BF00BF80BD80B500AF0420FFF763FFBFF34F8F00BF00BF80BD80B500AF82
S345600057C00420FFF759FFBFF34F8F00BF00BF80BD80B500AF0520FFF74FFFBFF34F8F00BF00BF80BD80B500AF0520FFF745FFBFF34F8F00BF00BF80BD80B483B000AF786072
S345600058000B46FB701346BB7017E07B681B7BC3F30303DBB21A46FB789A420BD17B689B89C3F30413DBB21A46BB789A4202D142F6477306E07B681B687B607B68002BE4D1FF
S34560005840002318460C37BD4680BC704780B584B000AF786039607B681B68FB60FFF7B4FEB860FB68002B10D17B683A681A6013E0FA683B689A4205D1B868FFF7B5FE42F6E5
S34560005880477310E0FB681B68FB60FB681B68002BEED1FB683A681A603B6800221A60B868FFF7A2FE002318461037BD4680BDFFFFB0B58CB000AF786039604D4B07F11004E8
S345600058C01D460FCD0FC495E8030084E803000023FB8500233B7300237B730023BB737B68002B06D1434B444A4FF48C714348FEF781FC3B68002B06D1414B3F4A40F2191117
S345600059003E48FEF777FC7B68BB623B689B789B0030333B4453F8203C002B02D142F6457362E0384B1B68002B0ED0364B18683B6899783B68DB781A46FFF75EFF0346002B28
S3456000594002D042F647734FE0B96A2E48FFF77EFF0346FB85FB8D002B01D0FB8D44E03B68DB7803F01F03D9B2BA6A938961F3081393813B689B7803F00F03D9B2BA6A137B78
S3456000598061F3030313733B681B7803F00103D9B2BA6A537B61F341035373BA6A537B6FF3840353733B681B78012B05D101233B733B685B787B7301E000233B73BB6A1B7B1D
S345600059C0C3F30303DBB29B0030333B4453F8200CBB6A9B89C3F30413DBB2194607F10C031A46FFF769F8002318463037BD46B0BDAC690060DC690060646A0060E8690060F3
S34560005A00586A006068000080B0B58AB000AF786039601B4B07F10C041D460FCD0FC495E8030084E803007B68002B06D1154B164A4FF4AD711548FEF7DDFB7B687B627B6AF3
S34560005A401B7BC3F30303DBB29B0028333B4453F81C2C7B6A9B89C3F30413DBB219461046FFF7D2FD0346002B01D0012200E000223B681A70002318462837BD46B0BD00BF56
S34560005A80AC690060DC690060746A0060E8690060B0B58AB000AF78600B46FB70194B07F10C041D460FCD0FC495E8030084E803007B68002B06D1144B144A40F26711144880
S34560005AC0FEF798FB7B687B627B6A1B7BC3F30303DBB29B0028333B4453F81C0C7B6A9B89C3F30413DBB21946FB78002B01D0012300E000231A46FFF731F800231846283795
S34560005B00BD46B0BDAC690060DC690060986A0060E869006080B485B000AF78607B68002B02D10023FB8102E042F6AF73FB81FB8918461437BD4680BC7047FFFF80B58AB0AA
S34560005B4000AF786039600023FB8407F10C031846FFF700FB3B685B68FB603B681B7A3B743B685B7AFB743B689B7A002B14BF01230023DBB27B773B68DB7A002B14BF012382
S34560005B800023DBB23B773B68DB7B002B08D03B68DB7B042B28BF0423DBB2013BDBB23B753B681B7C002B08D03B681B7C042B28BF0423DBB2013BDBB27B753B681B7B002B87
S34560005BC014BF01230023DBB2BB753B685B7B002B14BF01230023DBB2FB750123BB760123FB763B689B7B1A460B4B53F822003B681A6807F10C031946FFF708F938623B6A26
S34560005C00002B04D0386AFFF785FF0346FB84FB8C18462837BD4680BDAC6A006080B584B000AF786039607B68002B06D11F4B204A40F2BA211F48FEF7DDFA3B68002B06D1FA
S34560005C401D4B1B4A40F2BB211A48FEF7D3FA3B689B7B082B06D9194B154A4FF42F711548FEF7C8FA3B689B7B1A46154B53F82230002B06D1134B0E4A40F2BD210D48FEF712
S34560005C80B9FA39687868FFF759FF0346FB81FB89002B05D17B68BB603B689A7BBB681A70FB8918461037BD4680BD00BFD06A0060F86B0060E06A0060546B0060686B0060CE
S34560005CC0AC6A0060B86B006080B586B000AFF860B9607A60FB68002B06D1184B184A40F20A311848FEF786FABB68002B06D1164B134A40F20B311348FEF77CFA7B68002B4F
S34560005D0006D1124B0E4A4FF443710E48FEF772FAFB687B617B691B781A460D4B53F822307A68B9681846FFF7F7FA38613869FFF7F1FE034618461837BD4680BDD06A006081
S34560005D40086C0060E06A006014680060EC6B0060AC6A006080B586B000AFF860B9607A60FB68002B06D1164B164A40F219311648FEF740FABB68002B06D1144B114A40F291
S34560005D801A311148FEF736FA7B68002B06D1104B0C4A40F21B310C48FEF72CFAFB687B617B691B781A460B4B53F822307A68B9681846FFF775FA002318461837BD4680BD52
S34560005DC0D06A0060206C0060E06A006014680060EC6B0060AC6A006053B94AB9002908BF00281CBF4FF0FF314FF0FF3000F06AB9ADF1080C6DE904CE00F006F8DDF804E091
S34560005E00DDE9022304B070472DE9F047089D0C46002B4ED194468C458646B2FA82F262D94AB1C2F12003914020FA03F30CFA02FC194300FA02FE4FEA1C471FFA8CF6B1FB57
S34560005E40F7F44FEA1E4307FB141143EA014304FB06F199420AD91CEB030304F1FF3080F01281994240F20F81023C6344591A1FFA8EF3B1FBF7F007FB101143EA014300FB06
S34560005E8006F69E420AD91CEB030300F1FF3180F0FC809E4240F2F980634402389B1B40EA044000211DB1D3400022C5E90032BDE8F0878B4205D90DB1C5E90001002108466C
S34560005EC0F5E7B3FA83F1002946D1A34202D39042C0F0F080861A64EB03030120002DE6D0C5E90063E3E7002A40F09080A1EB0C044FEA1C481FFA8CF70121B4FBF8F64FEA48
S34560005F001E4308FB164443EA044307FB06F0984208D91CEB030306F1FF3402D2984200F2CD8026461C1A1FFA8EF3B4FBF8F008FB104443EA044300FB07F79F4208D91CEB92
S34560005F40030300F1FF3402D29F4200F2B0802046DB1B40EA0640A5E7C1F120068B4022FA06F71F4320FA06FC04FA01F343EA0C03F44000FA01F8380C4FEA1349B4FBF0FE5D
S34560005F801FFA87FC00FB1E4449EA04440EFB0CF9A14502FA01F20AD93C190EF1FF3A80F08480A14540F28180AEF1020E3C44A4EB09041FFA83F9B4FBF0F300FB134449EAB0
S34560005FC0044403FB0CFCA44507D93C1903F1FF3067D2A44565D9023B3C4443EA0E40A0FB0293A4EB0C049C42CE469C4651D34ED055B1B8EB0E0364EB0C0404FA06F6CB4011
S345600060001E43CC40C5E90064002150E7C2F1200320FA03F10CFA02FC24FA03F394400C434FEA1C4800FA02FE1FFA8CF7B3FBF8F008FB1031230C43EA014300FB07F1994289
S3456000604008D91CEB030300F1FF362CD299422AD9023863445B1AA4B2B3FBF8F108FB113344EA034401FB07F3A34208D91CEB040401F1FF3613D2A34211D902396444E41A44
S3456000608041EA004139E70446F0E6084606E7C845AED2B9EB020E63EB070C0138A8E73146EDE7034699E73046D4E7D6467FE7634402384DE70646234608460FE7023E63446D
S345600060C030E700BF704700BF830730B547D0541E002A3ED0CAB2034601E0013C39D303F8012B9D07F9D1032C2CD9CDB205EB05250F2C05EB054535D9A4F1100222F00F0C16
S3456000610003F1100EE6444FEA121C1A46156055609560D56010327245F8D10CF1010214F00C0F03EB021204F00F0C13D0ACF1040323F003030433134442F8045B9A42FBD141
S345600061400CF003042CB1C9B21C4403F8011B9C42FBD130BD64461346002CF4D1F9E703461446C0E71A46A446E0E700BFFFFFFFFFFFFFFFFFFFFFFFFFFFFFFFFFFFFFFFFF76
S3456000618030B490F800F020F007016FF0000C10F0070491F820F040F048804FF000046FF00700D1E9002391F840F000F1080082FA4CF2A4FA8CF283FA4CF3A2FA8CF34BBB13
S345600061C0D1E9022382FA4CF200F10800A4FA8CF283FA4CF3A2FA8CF3E3B9D1E9042382FA4CF200F10800A4FA8CF283FA4CF3A2FA8CF37BB9D1E9062301F1200182FA4CF2AD
S3456000620000F10800A4FA8CF283FA4CF3A2FA8CF3002BC6D0002A04BF04301A4612BAB2FA82F200EBD20030BC7047D1E9002304F00305C4F100004FEAC50514F0040F91F84D
S3456000624040F00CFA05F562EA05021CBF63EA050362464FF00004AAE7696E646578203C3D2036554C00000000633A5C646576656C6F706D656E745C6D696D787274313035B2
S34560006280325C7673636F64655C636D616B655F74656D706C6174655C74656D706C6174655F70726F6A6563745C647269766572735C66736C5F636C6F636B2E6800FFFFFF46
S345600062C0434C4F434B5F436F6E74726F6C4761746500FFFF627573795368696674203C3D2043434D5F4E4F5F425553595F5741495400FFFF6400000000000000434C4F430B
S345600063004B5F436F6E74726F6C4761746500FFFF434C4F434B5F53657444697600FFFFFF434C4F434B5F5365744D757800FFFFFF21286E6F6E436163686553746172742012
S34560006340252073697A652900433A2F446576656C6F706D656E742F4D494D585254313035322F5653434F44452F636D616B655F74656D706C6174652F74656D706C6174651E
S345600063805F70726F6A6563742F626F6172642F626F6172642E63000073697A65203D3D202875696E7433325F74292831203C3C206929000069203E3D203500FF424F415245
S345600063C0445F436F6E6669674D50550041000000302E31006D61696E5F70726F6772616D6D00000050726F6A6563743A25732C2076657273696F6E5F6E756D6265723A20D6
S34560006400257325730D0A00004C656420312073746174652023303A2025640A00536F6D657468696E6720676F65732077726F6E670A0000004C65642031207374617465200E
S3456000644023313A2025640A004C656420312073746174652023323A2025640A00497420697320612074657374210A00FF0101030301010304415353455254204552524F529B
S34560006480202220257320223A2066696C652022257322204C696E6520222564222066756E6374696F6E206E616D652022257322200A00FFFF216279706173735874616C4FA9
S345600064C073630000433A2F446576656C6F706D656E742F4D494D585254313035322F5653434F44452F636D616B655F74656D706C6174652F74656D706C6174655F70726F40
S345600065006A6563742F647269766572732F66736C5F636C6F636B2E6300FFFFFF66616C736500FFFF434C4F434B5F496E697445787465726E616C436C6B00FFFF434C4F43D0
S345600065404B5F476574506C6C4672657100FFFFFF40787D0180F0FA0200E1F505405973074457545F4354524C5F4E4F435943434E545F4D736B20213D20284457542D3E4378
S3456000658054524C2026204457545F4354524C5F4E4F435943434E545F4D736B2900000000433A2F446576656C6F706D656E742F4D494D585254313035322F5653434F44452D
S345600065C02F636D616B655F74656D706C6174652F74656D706C6174655F70726F6A6563742F647269766572732F66736C5F636F6D6D6F6E5F61726D2E6300FFFF636F756EFC
S3456000660074203C3D2055494E5433325F4D41580053444B5F44656C617941744C65617374557300FF433A2F446576656C6F706D656E742F4D494D585254313035322F565359
S34560006640434F44452F636D616B655F74656D706C6174652F74656D706C6174655F70726F6A6563742F647269766572732F66736C5F636C6F636B2E6800FFFFFF000000002D
S3456000668000801B4000C01B4000001C4000401C4000000C40FFFF1A011E001A020C031E01696E7374616E6365203C2041525241595F53495A4528735F6770696F42617365AB
S345600066C073290000433A2F446576656C6F706D656E742F4D494D585254313035322F5653434F44452F636D616B655F74656D706C6174652F74656D706C6174655F70726F78
S345600067006A6563742F647269766572732F66736C5F6770696F2E630070696E203C2033325500FFFF4750494F5F476574496E7374616E636500FFFFFF434C4F434B5F436F34
S345600067406E74726F6C4761746500FFFF4750494F5F50696E577269746500FFFF00000000004018400080184000C0184000001940004019400080194000C0194000001A4081
S34560006780FFFF18051C000C001801020306031A050E06FFFF696E7374616E6365203C2041525241595F53495A4528735F6C707561727442617365732900000000433A2F4455
S345600067C06576656C6F706D656E742F4D494D585254313035322F5653434F44452F636D616B655F74656D706C6174652F74656D706C6174655F70726F6A6563742F647269EF
S34560006800766572732F66736C5F6C70756172742E6300FFFF4E554C4C20213D206461746100FFFFFF4E554C4C20213D20636F6E66696700003055203C20636F6E6669672DD5
S345600068403E62617564526174655F4270730000002875696E74385F742946534C5F464541545552455F4C50554152545F4649464F5F53495A456E286261736529203E2063CD
S345600068806F6E6669672D3E74784669666F57617465726D61726B00002875696E74385F742946534C5F464541545552455F4C50554152545F4649464F5F53495A456E28621E
S345600068C061736529203E20636F6E6669672D3E72784669666F57617465726D61726B00FF4C50554152545F476574496E7374616E636500FF4C50554152545F496E69740000
S34560006900434C4F434B5F436F6E74726F6C4761746500FFFF4C50554152545F47657444656661756C74436F6E666967004C50554152545F5772697465426C6F636B696E67E9
S3456000694000FFFFFF4C50554152545F52656164426C6F636B696E6700633A5C646576656C6F706D656E745C6D696D787274313035325C7673636F64655C636D616B655F7467
S34560006980656D706C6174655C74656D706C6174655F70726F6A6563745C647269766572735C66736C5F6770696F2E68000000000000801B4000C01B4000001C4000401C40ED
S345600069C000000C4080FF5000520054005600580080FF510053005500570059006770696F48616E646C650000433A2F446576656C6F706D656E742F4D494D585254313035CA
S34560006A00322F5653434F44452F636D616B655F74656D706C6174652F74656D706C6174655F70726F6A6563742F636F6D706F6E656E74732F68616C5F6770696F5F6472697A
S34560006A407665722F66736C5F616461707465725F696770696F2E630070696E436F6E66696700FFFF48414C5F4770696F496E697400FFFFFF48414C5F4770696F476574498C
S34560006A806E70757400FFFFFF4750494F5F50696E5265616400FFFFFF48414C5F4770696F5365744F757470757400FFFF00000000004018400080184000C01840000019401F
S34560006AC0004019400080194000C0194000001A404E554C4C20213D2068616E646C650000433A2F446576656C6F706D656E742F4D494D585254313035322F5653434F44450C
S34560006B002F636D616B655F74656D706C6174652F74656D706C6174655F70726F6A6563742F636F6D706F6E656E74732F68616C5F756172745F6472697665722F66736C5F71
S34560006B40616461707465725F6C70756172742E63000000004E554C4C20213D20756172745F636F6E66696700756172745F636F6E6669672D3E696E7374616E6365203C200F
S34560006B802873697A656F6628735F4C7075617274416461707465724261736529202F2073697A656F66284C50554152545F54797065202A29290000004E554C4C20213D206B
S34560006BC0735F4C707561727441646170746572426173655B756172745F636F6E6669672D3E696E7374616E63655D00FF6C656E677468203E2030550048414C5F556172744C
S33D60006C00496E697400FFFFFF48414C5F5561727452656365697665426C6F636B696E670048414C5F5561727453656E64426C6F636B696E6700FFFFFF29
S30960006C38F8B500BF86
S30960006C3CF8B500BF82
S30D60006C40C8F1FF7F01000000AE
S30960006C4800A4781FA7
S7056000233542
