S01500006D61696E5F70726F6772616D6D2E73726563A6
S345600020000000008135230060892300608B2300608D2300608F230060912300600000000000000000000000000000000093230060952300600000000097230060992300604D
S34560002040C9350060D1350060D9350060E1350060E9350060F1350060F935006001360060093600601136006019360060213600602936006031360060393600604136006051
S34560002080493600605136006059360060613600603D7C0060517C0060657C0060797C00608D7C0060A17C0060B57C0060C97C006069360060713600607936006081360060EA
S345600020C0893600609136006099360060A1360060A9360060B1360060B9360060C1360060C9360060D1360060D9360060E1360060E9360060F1360060F936006001370060C9
S345600021000937006011370060193700602137006029370060313700603937006041370060493700605137006059370060613700606937006071370060793700608137006079
S34560002140893700609137006099370060A1370060A9370060B1370060B9370060C1370060C9370060D1370060D9370060E1370060E9370060F1370060F93700600138006038
S34560002180A1700060B5700060C9700060DD700060F170006005710060197100602D710060417100605571006009380060113800608D8D0060193800602138006029380060D7
S345600021C03138006039380060413800604938006051380060593800606138006069380060713800607938006081380060893800609138006099380060A1380060A938006029
S34560002200B1380060B9380060C1380060C9380060D1380060D9380060E1380060E9380060F1380060F9380060F17E00600139006009390060113900601939006021390060D5
S34560002240293900603139006039390060413900604939006051390060593900606139006069390060713900607939006081390060893900609139006099390060A139006018
S34560002280A9390060B1390060B9390060C1390060C9390060D1390060D9390060E1390060880F016000000080DC060000880F01600000008100000000880F016000000020DD
S345600022C000000000880F01600000000000000000880F01600000202000000000DC0600805808000000000081000000000000002000000000000000000000000000002020A5
S34560002300000000000023934209D210B450F8044B41F8044B04339342F8D310BC70477047002303E0002240F8042B04338B42F9D37047FFFF72B6104B83F3088801F0A4F846
S345600023400E4B07E003F10C049A6859681868FFF7D9FF23460A4A9342F4D306E01C46596854F8080BFFF7DCFF2346064A9342F5D362B601F039FBFEE700000081A0220060F5
S34560002380DC22006004230060FEE7FEE7FEE7FEE7FEE7FEE7FEE7FEE7FEE7FEE780B48BB000AFF860B9607A60FB687B617B6953E8003F3B613B697B62BB68DA437B6A134045
S345600023C07A6813437B627B6A3B62FB68FB61F9693A6A41E80023BB61BB69002BE4D100BF00BF2C37BD4680BC7047FFFF80B586B000AF03460A46FB8013467B71B7F9063081
S345600024001B0A7B61FB8803F01F033B617B69062B06D90E4B0E4A40F2BF510E4802F0ECF97B699A000C4B1344FB6003223B6902FA03F17A793B6902FA03F31A46F868FFF76E
S34560002440ADFF00BF1837BD4680BD00BF14F8006080F8006024F8006068C00F4080B582B000AF0346FB80B7F9063003211846FFF7BDFF00BF0837BD4680BD80B485B000AFBC
S34560002480F860B9607A603B60BB6803F00701FB691B0103F01002FB680A431A607B68002B02D07B683A681A6000BF1437BD4680BC704780B485B000AFF860B9607A603B6026
S345600024C0BB69002B02D0BB69FA691A6000BF1437BD4680BC704780B500AF00F003F800BF80BDFFFF80B584B002AF40F20240FFF7B5FF344A3B1D1268114619800233120CC0
S345600025001A703B1D1A4603212F4803F0D1F82D4A3B461268114619800233120C1A703B461A460421284803F0C3F800230193274B00930023002202212548FFF79EFF0023F2
S345600025400193244B00930023002202212248FFF794FF00230193214B00930023002205211F48FFF78AFF002301931E4B00930023002205211C48FFF780FF41F2B00301938C
S34560002580124B00930023002202211148FFF791FF45F2B0030193114B00930023002205210F48FFF786FF45F2B00301930D4B00930023002205210C48FFF77BFF00BF08373E
S345600025C0BD4680BD7CF8006000001C40DC821F40EC801F40E0821F40F0801F40D0831F40E0811F40D4831F40E4811F4080B48BB000AFF860B9607A60FB687B617B6953E83A
S34560002600003F3B613B697B62BB68DA437B6A13407A6813437B627B6A3B62FB68FB61F9693A6A41E80023BB61BB69002BE4D100BF00BF2C37BD4680BC7047FFFF80B584B05A
S3456000264000AF786039607B689B0EFB607B68DAB2214B13441A687B685B0BC3F30C017B681B0A03F01F0301FA03F3DB4302EA03017B681B0A03F01F033A689A407B685B0B2F
S34560002680C3F30C007B681B0A03F01F0300FA03F31A407B68D8B2104B0344184641EA02030360FB68202B06D90C4B0D4A40F269510C4802F0A1F8FB68202B09D000BF064BEE
S345600026C09A6CFB6822FA03F303F00103002BF6D100BF1037BD4680BD00C00F4094F80060E0F8006024F8006080B584B000AF786039607B689B0EFB607B68DAB2214B134479
S345600027001A687B685B0BC3F30C017B681B0A03F01F0301FA03F3DB4302EA03017B681B0A03F01F033A689A407B685B0BC3F30C007B681B0A03F01F0300FA03F31A407B689B
S34560002740D8B2104B0344184641EA02030360FB68202B06D90C4B0D4A40F29D510C4802F04BF8FB68202B09D000BF064B9A6CFB6822FA03F303F00103002BF6D100BF1037F1
S34560002780BD4680BD00C00F4094F80060D0F8006024F8006080B586B000AF03460A46FB8013467B71B7F906301B0A7B61FB8803F01F033B617B69062B06D90E4B0E4A40F26F
S345600027C0BF510E4802F018F87B699A000C4B1344FB6003223B6902FA03F17A793B6902FA03F31A46F868FFF701FF00BF1837BD4680BD00BF14F80060BCF8006024F8006083
S3456000280068C00F4080B582B000AF0346FB80B7F9063000211846FFF7BDFF00BF0837BD4680BDFFFF80B483B000AF7860034A7B68136000BF0C37BD4680BC7047980B0080E2
S3456000284080B483B000AF7860034A7B68136000BF0C37BD4680BC70479C0B008080B485B000AFF860B9601346FB71FB79002B0BD0BB681B0CC3F30B02FB68134404331A461C
S345600028804FF4803313600AE0BB681B0CC3F30B02FB68134408331A464FF48033136000BF1437BD4680BC704780B485B000AF78600B46FB701346BB70FB78032B12D97B68F5
S345600028C05A68FB78032101FA03F3DB431340FB60BB7803F00302FB789A40FB681A437B685A6011E07B685A68FB78072101FA03F3DB431340FB60BB7803F00702FB789A401D
S34560002900FB681A437B685A6000BF1437BD4680BC7047FFFF80B485B000AF78600B46FB701346BB707B689A680A4B1340FB60FB789B0603F08062FB681A43BB781B0403F4CC
S345600029407F031A437B689A6000BF1437BD4680BC704700BFFFFF00FB80B500AF00F002F800BF80BD80B582B000AF4FF40040FFF767FFD74BD3F8C032D54A43F48033C2F81C
S34560002980C032D34BD3F8C032D14A23F40033C2F8C032D048FFF746FF002002F04DF802F09FF8012002F084F8CB4B1B6823F0FF03C94A43F07F0313600121C848FFF73EFEC4
S345600029C00121C748FFF73AFEC64BDB6823F01F03C44A43F01303D36000BFC24B1B6803F00043B3F1004FF8D10021BF48FFF77CFE4FF48870FFF706FF4FF48470FFF702FFC2
S34560002A0040F21620FFF7FEFE4FF40670FFF7FAFE40F20E20FFF7F6FE0321B448FFF764FE0121B348FFF760FE0021B248FFF75CFE4FF48A70FFF7E6FE4FF48B70FFF7E2FE66
S34560002A401820FFF7DFFE1A20FFF7DCFE4FF48670FFF7D8FE0121A848FFF746FE40F20260FFF7D0FE0121A548FFF73EFE0021A448FFF7E4FD40F20460FFF7C4FE0121A148B4
S34560002A80FFF732FE0021A048FFF7D8FD40F20220FFF7B8FE01219D48FFF726FE00219C48FFF7CCFD4FF48070FFF7ACFE4FF48170FFF7A8FE4FF48270FFF7A4FE4FF483702B
S34560002AC0FFF7A0FE04219348FFF70EFE02219248FFF7B4FD1620FFF795FE03218F48FFF703FE00218E48FFF7A9FD40F21250FFF789FE03218B48FFF7F7FD01218A48FFF716
S34560002B00F3FD00218948FFF799FD40F21450FFF779FE03218648FFF7E7FD01218548FFF7E3FD00218448FFF789FD40F21650FFF769FE03218148FFF7D7FD01218048FFF738
S34560002B40D3FD00217F48FFF779FD40F20620FFF759FE4FF40270FFF755FE40F20A20FFF751FE00217848FFF7BFFD00217748FFF765FD0E20FFF746FE1220FFF743FE1020BB
S34560002B80FFF740FE1420FFF73DFE01217048FFF7ABFD02216F48FFF751FD4FF4A360FFF731FE1C20FFF72EFE0C20FFF72BFE4FF48C70FFF727FE40F20230FFF723FE40F265
S34560002BC00630FFF71FFE40F21A50FFF71BFE40F20E60FFF717FE00215F48FFF785FD00215E48FFF72BFD40F20A30FFF70BFE01215B48FFF779FD03215A48FFF775FD0521BB
S34560002C005948FFF71BFD40F20E50FFF7FBFD01215648FFF769FD07215548FFF765FD03215448FFF70BFD40F20250FFF7EBFD01215148FFF759FD07215048FFF755FD032175
S34560002C404F48FFF7FBFC4FF44070FFF7DBFD01214C48FFF749FD07214B48FFF745FD03214A48FFF7EBFC00214948FFF7E7FC494802F094F802F0D0F8012247491448FFF7D8
S34560002C80EDFD134BD3F87031114A23F40043C2F870310F4BD3F870310D4A23F40003C2F870310B4B1B6F0A4A43F400531367084BD3F8A030064A23F40053C2F8A030044B9F
S34560002CC0D3F8A03023F4E033014A43F4803365E000800D4000366E0100C00F40186C0080143900140000084014EA00041468008010E0004014FB00801CE0078024EB008032
S34560002D001C30008024F000801C3100803CEB00803C69008018FA00801864008024790080186E008028E6008028E007801C6A00802CE600802CE007801C6C008028F6008095
S34560002D4028F007801C6E008038F307803832008020E207802068008024E007802426008038EC008018F7008038EF008030F9008030F600803074008030EC008030E9008040
S34560002D803067008028E9008028F90080207300800C200080B4F800600D007000C2F8A0306B4B0022C3F8B020694B0122C3F8C020674BD3F8A030674A1A4042F21F031343B9
S34560002DC07B607B6843F400237B60614BD3F870315F4A43F04043C2F870315D4A7B68C2F8A03000BF5A4BD3F8A030002BFADA002259495748FFF732FD02F01AF80122574947
S34560002E005348FFF72BFD524BD3F8E03023F003034F4A43F00103C2F8E0304D4BD3F8E0304B4A43F40053C2F8E030494BD3F8E030474A43F40013C2F8E03001F0E1FF0122E4
S34560002E4047494348FFF70AFD414B1B6A404A43F40053136203214348FFF7F0FB00214248FFF7ECFB00214148FFF7E8FB00214048FFF7E4FB364BD3F86031354A23F01F0390
S34560002E80C2F860313B4B1B6E3A4A23F070031366384B1B6E23F00F03364A43F001031366344B1B6E334A23F460031366314B1B6E23F4F8132F4A43F4901313662D4B1B6E02
S34560002EC02C4A23F4807313662A4B1B6E294A23F080031366274B1B6E264A23F080731366002200212448FFF7DFFC002203212248FFF7DAFC002206211F48FFF7D5FC002274
S34560002F0008211D48FFF7D0FC00220A211A48FFF7CBFC002200211848FFF7FCFC164B5B68154A23F400335360134B5B69124A23F080535361104B5B690F4A23F000535361B4
S34560002F400E4B0F4A1A6000BF0837BD4680BD00BF00800D4080CFFFFF0D00A0000D00E0000D0020001872008014390014186C00801C26008000C00F4000C00A400000008017
S34560002F800046C32380B483B000AF7860BFF35F8F00BF0B4A7B6843F001035360094B5B6A084A43F480335362BFF34F8F00BFBFF36F8F00BF00BF0C37BD4680BC704700BF91
S34560002FC090ED00E000ED00E080B400AFBFF35F8F00BF0B4B5B6A0A4A23F480335362094B5B68084A23F001035360BFF34F8F00BFBFF36F8F00BF00BFBD4680BC704700BFAC
S3456000300000ED00E090ED00E080B483B000AF78607B68DAB20C4B13441A687B685B0BC3F30C017B681B0A03F01F0301FA03F31A407B681B0A03F01F0322FA03F318460C372F
S34560003040BD4680BC704700BF00C00F4080B483B000AF78607B68DAB20C4B13441A687B685B0BC3F30C017B681B0A03F01F0301FA03F31A407B681B0A03F01F0322FA03F3F6
S3456000308018460C37BD4680BC704700BF00C00F4080B400AF074BD3F8703203F01003002B02D1054B1B6800E0044B1846BD4680BC704700BF00800D40980B008000366E01F5
S345600030C090B583B000AF1348FFF79EFF0346002B10D1114801F0BAFE0346104AA2FB03239C080F48FFF7B2FF03460133B4FBF3F37B600AE0FFF7CCFF04460948FFF7A6FF28
S3456000310003460133B4FBF3F37B607B6818460C37BD4690BD242600800D001000ABAAAAAA24E0078080B582B000AFFFF7C9FF78607B6801224FF4E131012001F03FFA00BF3C
S345600031400837BD4680BDFFFF80B58AB000AFA04B7B62A04A7B6AD31A3B6200233B619E4B5B6903F40033B3F5003F16D1BFF34F8F00BFBFF36F8F00BF974B5B69964A23F46E
S3456000318000335361944B0022C3F85022BFF34F8F00BFBFF36F8F00BF00BF8F4B5B6903F48033B3F5803F4DD18B4B0022C3F88420BFF34F8F00BF884B5B69874A23F4803372
S345600031C05361BFF34F8F00BF834A07F10803C2F87032814A3B1DC2F870327F4A07F10C03C2F87032BFF34F8F00BFBFF36F8F00BF794BD3F88030FB60FB685B0BC3F30E03A7
S34560003200BB60FB68DB08C3F309037B60BB685A0143F6E07313407A6892076F491343C1F874327B685A1E7A60002BEFD1BB685A1EBA60002BE5D1BFF34F8F00BFBFF36F8F30
S3456000324000BF00BFFFF7C0FE644B1022DA60634B634A1A61614B634ADA60604B624A1A615E4B624ADA605D4B5F4A1A615B4B604ADA605A4B5F4A1A61584B1422DA60574BFD
S345600032805D4A1A61554B1522DA60544B5B4A1A61524B5B4ADA60514B584A1A614F4B594ADA604E4B584A1A614C4B584ADA604B4B574A1A6102E03B6901333B613B693A6A91
S345600032C022FA03F3012BF6D83B69002B37D07B6A3A6AB3FBF2F2396A01FB02F29B1A002B06D04C4B4C4A40F277114C4801F084FA3B6901229A403B6A9A4206D0484B464A1D
S345600033004FF4BC71454801F077FA3B69042B06D8444B414A40F27911404801F06DFA7B6A23F01F032D4A43F01903D3603B69013B5B0003F03E0229493B4B13430B61274BB4
S345600033403A4ADA60254B3A4A1A610620FFF71AFE214B5B6903F48033002B6BD11E4B0022C3F88420BFF34F8F00BF1B4BD3F88030FB61FB695B0BC3F30E03BB61FB69DB08DB
S34560003380C3F309037B61BB695A0143F6E07313407A69920710491343C1F860327B695A1E7A61002BEFD1BB695A1EBA61002BE5D1BFF34F8F00BF084B5B69074A43F48033DA
S345600033C05361BFF34F8F00BFBFF36F8F33E000BF000000810000008200ED00E090ED00E03F00001011000080390010031200006013000060330003063B00100321000303F3
S345600034001600002017002020230003031800008031000303F0F800607CF9006008F9006058F9006074F90060010008031A0000402B00100300BF134B5B6903F40033002BCB
S345600034401BD1BFF34F8F00BFBFF36F8F00BF0D4B0022C3F85022BFF34F8F00BFBFF36F8F00BF084B5B69074A43F400335361BFF34F8F00BFBFF36F8F00E000BF00BF283795
S34560003480BD4680BD00ED00E080B500AF444B454A9A60454B1B899BB2434A23F001039BB21381424B1B899BB2404A23F001039BB213813D4B1B889BB203F00403002B07D023
S345600034C0394B1B889BB2384A23F004039BB21380364B1B889BB203F00403002B07D0334B1B889BB2314A23F004039BB21380304B1B6803F40053002B03D02D4B2D4A5A6037
S3456000350007E02B4B4CF220525A60294B4DF628125A60274B4FF6FF729A60254B1B6823F0A003234A43F020031360234B1B6803F00103002B05D0204B1B681F4A23F001035C
S345600035401360174B5B6903F40033B3F5003F22D0134B5B6903F40033002B1BD1BFF34F8F00BFBFF36F8F00BF0D4B0022C3F85022BFF34F8F00BFBFF36F8F00BF084B5B69AC
S34560003580074A43F400335361BFF34F8F00BFBFF36F8F00E000BF00F011F800BF80BD00BF00ED00E00020006000800B4000000D4000C00B4020C528D910E000E080B400AFDB
S345600035C000BFBD4680BC704708B5FEF7E6FE08BD08B5FEF7E2FE08BD08B5FEF7DEFE08BD08B5FEF7DAFE08BD08B5FEF7D6FE08BD08B5FEF7D2FE08BD08B5FEF7CEFE08BD87
S3456000360008B5FEF7CAFE08BD08B5FEF7C6FE08BD08B5FEF7C2FE08BD08B5FEF7BEFE08BD08B5FEF7BAFE08BD08B5FEF7B6FE08BD08B5FEF7B2FE08BD08B5FEF7AEFE08BD9C
S3456000364008B5FEF7AAFE08BD08B5FEF7A6FE08BD08B5FEF7A2FE08BD08B5FEF79EFE08BD08B5FEF79AFE08BD08B5FEF796FE08BD08B5FEF792FE08BD08B5FEF78EFE08BD5C
S3456000368008B5FEF78AFE08BD08B5FEF786FE08BD08B5FEF782FE08BD08B5FEF77EFE08BD08B5FEF77AFE08BD08B5FEF776FE08BD08B5FEF772FE08BD08B5FEF76EFE08BD1C
S345600036C008B5FEF76AFE08BD08B5FEF766FE08BD08B5FEF762FE08BD08B5FEF75EFE08BD08B5FEF75AFE08BD08B5FEF756FE08BD08B5FEF752FE08BD08B5FEF74EFE08BDDC
S3456000370008B5FEF74AFE08BD08B5FEF746FE08BD08B5FEF742FE08BD08B5FEF73EFE08BD08B5FEF73AFE08BD08B5FEF736FE08BD08B5FEF732FE08BD08B5FEF72EFE08BD9B
S3456000374008B5FEF72AFE08BD08B5FEF726FE08BD08B5FEF722FE08BD08B5FEF71EFE08BD08B5FEF71AFE08BD08B5FEF716FE08BD08B5FEF712FE08BD08B5FEF70EFE08BD5B
S3456000378008B5FEF70AFE08BD08B5FEF706FE08BD08B5FEF702FE08BD08B5FEF7FEFD08BD08B5FEF7FAFD08BD08B5FEF7F6FD08BD08B5FEF7F2FD08BD08B5FEF7EEFD08BD20
S345600037C008B5FEF7EAFD08BD08B5FEF7E6FD08BD08B5FEF7E2FD08BD08B5FEF7DEFD08BD08B5FEF7DAFD08BD08B5FEF7D6FD08BD08B5FEF7D2FD08BD08B5FEF7CEFD08BDE3
S3456000380008B5FEF7CAFD08BD08B5FEF7C6FD08BD08B5FEF7C2FD08BD08B5FEF7BEFD08BD08B5FEF7BAFD08BD08B5FEF7B6FD08BD08B5FEF7B2FD08BD08B5FEF7AEFD08BDA2
S3456000384008B5FEF7AAFD08BD08B5FEF7A6FD08BD08B5FEF7A2FD08BD08B5FEF79EFD08BD08B5FEF79AFD08BD08B5FEF796FD08BD08B5FEF792FD08BD08B5FEF78EFD08BD62
S3456000388008B5FEF78AFD08BD08B5FEF786FD08BD08B5FEF782FD08BD08B5FEF77EFD08BD08B5FEF77AFD08BD08B5FEF776FD08BD08B5FEF772FD08BD08B5FEF76EFD08BD22
S345600038C008B5FEF76AFD08BD08B5FEF766FD08BD08B5FEF762FD08BD08B5FEF75EFD08BD08B5FEF75AFD08BD08B5FEF756FD08BD08B5FEF752FD08BD08B5FEF74EFD08BDE2
S3456000390008B5FEF74AFD08BD08B5FEF746FD08BD08B5FEF742FD08BD08B5FEF73EFD08BD08B5FEF73AFD08BD08B5FEF736FD08BD08B5FEF732FD08BD08B5FEF72EFD08BDA1
S3456000394008B5FEF72AFD08BD08B5FEF726FD08BD08B5FEF722FD08BD08B5FEF71EFD08BD08B5FEF71AFD08BD08B5FEF716FD08BD08B5FEF712FD08BD08B5FEF70EFD08BD61
S3456000398008B5FEF70AFD08BD08B5FEF706FD08BD08B5FEF702FD08BD08B5FEF7FEFC08BD08B5FEF7FAFC08BD08B5FEF7F6FC08BD08B5FEF7F2FC08BD08B5FEF7EEFC08BD26
S345600039C008B5FEF7EAFC08BD08B5FEF7E6FC08BD08B5FEF7E2FC08BD08B5FEF7DEFC08BD08B5FEF7DAFC08BD80B588B006AFFFF7ABFBFEF770FDFEF7AFFF05F0D5FBFF2110
S34560003A00002005F0ABFC0721012005F0A7FC0721022005F0A3FC0721032005F09FFCA721042005F09BFCA721052005F097FC05F0EFFB244B01930023009300230022224995
S34560003A40032005F0E1FD214B0493214B0393214B0293214B019300230093002300221A49032005F0D1FD05F01FFA032001F0BAF803461946194802F04FFE184BD3F8103412
S34560003A807B60164BD3F820343B603B6803937B680293134B019300230093002300220A49032005F0B1FD0F4B019300230093002300220549022005F0A7FD0B490B4801F069
S34560003AC0C9FCF0E794F900608CF90060E8F90060A0F90060A4F90060B4F9006000401F40D8F90060ECF900600046C32300093D0080B485B000AF786039600023FB600023FD
S34560003B00FB7220E07B681B685A1C7B681A607B681B681B78BB72BB7A2F2B0DD9BB7A392B0AD8FA6813469B0013445B001A46BB7A1344303BFB6006E07B681B685A1E7B6802
S34560003B401A600123FB72FB7A002BDBD0FB6818461437BD4680BC704780B489B000AFF860B9607A60FB681B68FB610623BB610023FB75FB690133FB61FB691B782E2B24D1CD
S34560003B800023BB610023FB751BE0FB690133FB61FB691B78BB75BB7D2F2B0DD9BB7D392B0AD8BA6913469B0013445B001A46BB7D1344303BBB6104E0FB69013BFB6101237E
S34560003BC0FB75FB7D002BE0D002E0FB69013BFB61FB68FA691A60BB6918462437BD4680BC704780B485B000AF0346FB710023FB60FB796F2B08D0FB79622B05D0FB79702B95
S34560003C0002D0FB79752B01D10123FB60FB6818461437BD4680BC704780B485B000AF0346FB710023FB60FB79642B02D0FB79692B01D10123FB60FB6818461437BD4680BC21
S34560003C40704790B585B000AFF860B9607A60FB70BA687B68D31A7C6A2022F96AB86AA04708E03B6A5A1E3A621A787C6A0123F96AB86AA0473B6A1B78002BF2D100BF00BF75
S34560003C801437BD4690BD90B585B000AFF860B9607A60FB70BA687B68D31A7C6A2022F96AB86AA04708E03B6A5A1E3A621A787C6A0123F96AB86AA0473B6A1B78002BF2D1CF
S34560003CC000BF00BF1437BD4690BD80B485B000AF0346FB710023FB60FB79662B02D0FB79462B01D10123FB60FB6818461437BD4680BC704780B485B000AF0346FB710023FB
S34560003D00FB60FB79782B02D0FB79582B01D10123FB60FB6818461437BD4680BC704780B485B000AF78607B681B68FB60FB680133FB60FB681B78FB72FB7A682BF6D0FB7A46
S34560003D406C2BF3D0FB68013BFB607B68FA681A6000BF1437BD4680BC704780B485B000AF0346FB71FB796F2B02D10823FB730DE0FB79622B02D10223FB7307E0FB79702B39
S34560003D8002D11023FB7301E00A23FB73FB7B18461437BD4680BC704780B48FB000AFF860B9607A603B600023FB62FB68BB62BB6A5A1CBA6200221A7000237B6000237B622F
S34560003DC000233B620023FB6100237B630023BB6100233B6300237B61BB681B687B637B6B002B30D1BB6A30221A70FB6A0133FB62FB6A2CE07A6B3B68B2FBF3F3BB61BB69C5
S34560003E003A6802FB03F37A6BD31A3B633B6B092B03D83B6B30333B630AE097F84030002B01D0412200E061223B6B13440A3B3B63BB697B63BB6A5A1CBA623A6BD2B21A70C4
S34560003E40FB6A0133FB627B6B002BD3D1FB6A18463C37BD4680BC704780B483B000AF786039603B681B68191D3A6811601A687B681A6000BF0C37BD4680BC704780B483B0D1
S34560003E8000AF786039603B681B68191D3A6811601A687B681A6000BF0C37BD4680BC704780B483B000AF786039603B681B68191D3A6811601A687B681A6000BF0C37BD465C
S34560003EC080BC704780B584B000AF78600023FB60786807F035F80346FB60FB6818461037BD4680BD90B5A1B004AFF860B9607A603B6000237B6600233B6600233B62002331
S34560003F00FB650023BB61FB68BB64BB6C1B78002B00F04081BB6C1B7887F85B3097F85B30252B0BD097F85B2007F120013C6801237868A047BB6C0133BB642AE1012387F881
S34560003F406B3007F1080207F1480311461846FFF7CFFD786507F1080107F1480300221846FFF7FAFD386507F148031846FFF7D7FEBB6C0133BB64BB6C1B7887F85B3097F820
S34560003F805B301846FFF748FE0346012B28D107F1080207F11C0311461846FFF75DFF07F11C0107F1240097F86B3000930A230122FFF7F2FE386607F124023B6E13447B6627
S34560003FC03A6E07F1200303937B6802933B6801937B6E00930023796D0020FFF732FED5E097F85B301846FFF770FE0346012B06D1BB68073323F007030833BB60C6E097F8A6
S345600040005B301846FFF776FE0346012B31D197F85B30782B02D1002387F86B3007F1080207F1180311461846FFF728FF07F1180107F1240097F86B30009310230022FFF767
S34560004040ABFE386607F124023B6E13447B663A6E97F86B1007F1200303937B6802933B6801937B6E00930B46796D0020FFF70BFE8CE097F85B301846FFF7B3FD0346012BB1
S3456000408041D197F85B30702B0DD1BB681A1DBA601B687B6107F1140107F118030422184600F07EF807E007F1080207F1180311461846FFF7F5FE97F85B301846FFF74DFEC5
S345600040C00346FB6507F1180107F1240097F86B300093FB6D0022FFF75FFE386607F124023B6E13447B663A6E07F1200303937B6802933B6801937B6E00930023796D0020A0
S34560004100FFF79FFD42E097F85B30632B0DD1BB681A1DBA601B68FB64FB6CDAB207F120013C6801237868A04730E097F85B30732B24D1BB681A1DBA601B68FB66FB6E002B45
S3456000414024D0F86EFFF7BEFE38667A6D3B6ED31A07F120013C6820227868A04709E0FB6E5A1CFA661A7807F120013C6801237868A047FB6E1B78002BF1D107E097F85B20B0
S3456000418007F120013C6801237868A047BB6C0133BB64BAE600BF3B6A18467437BD4690BDF1B5002A4BD011F0030306D011F8014B013A00F8014B42D0F5E710F003031BD19E
S345600041C0102A04DB103AF0C9102AF0C0FAD2130744BF30C930C0530744BF51F8044B40F8044B930744BF31F8024B20F8024BD30744BF0C78047022E0C3070AD4042A16D3F7
S3456000420051F8044B043A20F8024B250C20F8025BF4E7042A0BD351F8044B043A00F8014B250A20F8025B260E00F8016BF1E7002A1EBF11F8014B00F8014B013AF7D1F1BDD1
S3456000424080B483B000AFEFF310833B603B687B6072B600BF7B6818460C37BD4680BC704780B485B000AF78607B68FB60FB6883F3108800BF00BF1437BD4680BC704780B540
S3456000428086B000AF786043F22153FB82FFF7D8FFB8607B68D3F830217B68D3F82C319A4249D07B68D3F82C217B68D3F830319A420CD97B68D3F82C217B68D3F83031D31A0F
S345600042C03B617B68D3F83031FB6025E07B68D3F828217B68D3F83031D31A3B617B68D3F83031FB607B68D3F82C31002B14D07B6803F58C60FB6803F598737A68134404339D
S345600043003A69194604F082FB0346FB827B68D3F82C313B610023FB607B6803F23440FB6803F598737A68134404333A69194604F06DFB0346FB82B868FFF792FFFB8A1846E9
S345600043401837BD4680BD80B586B000AFF860B9601346FB80FB68002B2ED0BB68002B2BD0FB687B617B69D3F83021BB685B681A447B69C3F830217B69D3F830217B69D3F8F2
S3456000438028319A4203D37B690022C3F83021FB88002B03D17869FFF772FF0EE0FB8843F22452934209D17B690022C3F830217B690022C3F82C2100E000BF1837BD4680BD97
S345600043C080B487B000AFF860B9601346FB80FB68002B1AD0BB68002B17D0FB687B617B69D3F83021BB685B681A447B69C3F830217B69D3F830217B69D3F828319A4205D31C
S345600044007B690022C3F8302100E000BF1C37BD4680BC704780B588B000AF7860396000237B617B68002BFCD03B68002BFCD0FFF707FFF860374BD3F82C21364BD3F8303181
S345600044409A4216D001237B61324BD3F82C21314BD3F828311A442F4BD3F83031D31A2D4AD2F82821B3FBF2F101FB02F29B1ABB6101E00023BB61274BD3F82821BB69D31A5B
S34560004480013BBB61BA693B689A4205D2F868FFF7E7FE4FF0FF3338E000233B611EE03B697A681A441B4BD3F82C31591C1948C0F82C111178174A13440A4683F83421154B46
S345600044C0D3F82C21134BD3F828319A4203D3114B0022C3F82C213B6901333B613B683A699A42DCDB0023FB617B69002B03D10948FFF7C5FEF861F868FFF7B2FEFB69002BDD
S3456000450001D13B6801E04FF0FF3318462037BD4680BD00BFDC06008080B582B000AF786039607B68002BFCD03B68002B01D100230AE0074B1B68002B01D1002304E03968B0
S345600045407868FFF767FF034618460837BD4680BD940B008080B586B000AFF860B9603B601346FB7100237B6100237B611CE0BB681B680133FF2B08D9BB681B681946F86825
S34560004580FFF7CAFFBB6800221A60BB681B681A46FB681344FA791A70BB681B685A1CBB681A607B6901337B617A693B689A42DEDB00BF00BF1837BD4680BDFFFF80B58EB014
S345600045C000AFB9607B600346FB731346BB730023FB867B683B61BB687B6100233B7600237B760123BB760123FB7600233B7700237B77FB7BBB770023FB77002387F8203067
S3456000460007F1240310220021184606F021F9BB7B87F82C303A4B7B624FF40073BB620023FB85BB7B012B03D107F110033B631EE0BB7B022B03D143F22153FB8617E0BB7BE0
S34560004640032B03D143F22153FB8610E0BB7B042B03D143F22153FB8609E0BB7B092B03D143F22153FB8602E043F22153FB86FB8E43F2215293423ED04FF49762002121481E
S3456000468006F0E6F81F4B4FF48072C3F828211D4B1D4A1A601B4B1B6807F124021146184604F01EF90346FB86FB8E002BFCD1154B1B681649184604F071F90346FB86FB8E71
S345600046C0002BFCD10F4A1249104804F0B1F90D4B1B681049184604F061F90346FB86FB8E002BFCD1074A0C490A4804F0A1F9054B1B680A4A1360FB8E18463837BD4680BDD1
S3456000470010090080DC060080E0060080100B0080474300603C0B0080C1430060940B00800FB480B582B000AF00237B6007F114033B603968386900F009F878607B68184616
S345600047400837BD46BDE8804004B0704780B5C4B000AF07F58873A3F58673186007F58873A3F5887319600023C7F808310023C7F80C3107F58873A3F5847300221A600433D3
S34560004780FC220021184606F063F8134B1B68002B1AD007F1080207F58873A3F5887107F58873A3F586700D4B09680068FFF79AFBC7F80801D7F8082107F10803114618466C
S345600047C0FFF7AAFEC7F80C01D7F80C31184607F58877BD4680BD00BF940B00805545006080B485B000AFF860B9607A60002318461437BD4680BC704780B586B002AFF860D3
S34560004800B9607A603B607B680093BB68FA6839680448FFF785FFBA68F9683868FFF7E0FF00BEFDE700FA006080B400AF074BD3F8703203F01003002B02D1054B1B6800E0D5
S34560004840044B1846BD4680BC704700BF00800D40980B008000366E0180B400AF4FF400431846BD4680BC704780B483B000AF786039603B681B0CC3F30B027B6813441B684D
S3456000488003F48033002B14BF01230023DBB218460C37BD4680BC704780B483B000AF786039603B681B0CC3F30B027B6813441A683B6803F01F0322FA03F303F00103002BC3
S345600048C014BF01230023DBB218460C37BD4680BC704780B582B000AF786039603B681B0CC3F30B027B6813441B689B0B03F00303002B03D1FFF798FF034600E0002318466E
S345600049000837BD4680BDFFFF80B582B000AF364B5B6903F00073002B2BD0334B9B6903F44053B3F5005F11D0B3F5005F13D8002B03D0B3F5805F05D00DE02C4800F086FA9C
S3456000494078600BE0FFF770FF786007E0284800F07DFA786002E000237B6000BF224B5B69DB0E03F0070301337A68B2FBF3F37B6034E01D4B9B6903F44023B3F5402F1DD023
S34560004980B3F5402F27D8B3F5002F12D0B3F5002F21D8002B03D0B3F5802F05D01BE0144800F054FA786019E0022000F069FC786014E0002000F064FC78600FE00D2000F0CB
S345600049C045FA0246084B1B6903F007030133B2FBF3F37B6002E000237B6000BF7B6818460837BD4680BD00BF00C00F400D0010000D00300080B582B000AF0C4BDB6803F02A
S34560004A000103002B02D0012B05D007E0084800F01DFA786005E0074B7B6002E000237B6000BF7B6818460837BD4680BD00C00F400D00100000366E0180B582B000AF034657
S34560004A40FB71FB7983F00103DBB2002B05D1144B144AC0211448FFF7CFFE144B4FF08042C3F8582100BF114BD3F8703203F48033002BF8D00D4B4FF48032C3F8542100BF39
S34560004A800A4BD3F8503103F40043002BF8D0074B4FF48032C3F8582100BF0837BD4680BD40FA0060B0FA006050FA006000800D4080B483B000AF0346FB71FB79002B04D1AF
S34560004AC0064B1022C3F8742203E0044B1022C3F8782200BF0C37BD4680BC704700800D4080B400AF054BD3F87032044A43F00103C2F8703200BFBD4680BC704700800D40FB
S34560004B0080B500AFFFF700FF0246054B5B699B0A03F007030133B2FBF3F3184680BD00BF00C00F4080B582B000AF144B5B6903F04003002B0FD0114B5B6903F08003002BCE
S34560004B4004D0012000F0F2FB786007E0022000F097FB786002E0FFF7D7FE7860074B5B691B0C03F0070301337A68B2FBF3F37B607B6818460837BD4680BD00BF00C00F40F1
S34560004B8080B500AFFFF7BCFF0246054B5B691B0A03F003030133B2FBF3F3184680BD00BF00C00F4080B582B000AF0D4BDB6903F04003002B03D0FFF737FE786002E0FFF78F
S34560004BC0DFFF7860064BDB6903F03F0301337A68B2FBF3F37B607B6818460837BD4680BD00C00F4080B584B000AF0346FB71FB791A2B00F2BA8001A252F823F0694C0060B5
S34560004C00694C0060714C0060794C0060814C0060894C0060914C0060994C0060A34C0060AD4C0060B74C0060C14C0060CB4C0060074D0060114D00601B4D0060254D0060D8
S34560004C402F4D0060394D0060434D00604D4D0060574D0060614D0060D54C0060DD4C0060E94C0060F54C0060FFF74AFFF8607FE0FFF758FFF8607BE0FFF782FFF86077E0B4
S34560004C80FFF790FFF86073E0FFF7CEFDF8606FE0FFF7E2FDF8606BE00D2000F0D7F8F86066E0364800F0D2F8F86061E0002000F03DFBF8605CE0012000F038FBF86057E074
S34560004CC0022000F033FBF86052E0032000F02EFBF8604DE0FFF78EFEF86049E0FFF78AFE03469B08FB6043E0FFF784FE0346DB08FB603DE0FFF77EFE0346214AA2FB0323D3
S34560004D009B08FB6034E01F4800F0A0F8F8602FE01D4800F09BF8F8602AE0002000F0B0FAF86025E0012000F0ABFAF86020E0022000F0A6FAF8601BE0032000F0A1FAF8602B
S34560004D4016E0124800F082F8F86011E0104800F07DF8F8600CE00F4800F078F8F86007E00D4800F073F8F86002E00023FB6000BFFB6818461037BD4680BD00BF0D00100088
S34560004D80ABAAAAAA0D0020000D0030000D00E0001500E0000D0070000D00A00080B483B000AF7860144B1B6823F4E0327B681B799B039BB21343104A43F4803313600E4BAD
S34560004DC01A680E4B13407A68126802F07F021343094A43F40053136000BF074B1B68002BFBDA054B1B68044A23F48033136000BF0C37BD4680BC704700800D4080CFFFFFA6
S34560004E0080B400AF034B00221A6200BFBD4680BC704700BF00800D4080B400AF034B4FF480521A6700BFBD4680BC704700800D4080B400AF044B4FF48052C3F8E02000BFF2
S34560004E40BD4680BC704700BF00800D402DE9B04F98B000AFF864F96C9F48FFF71DFD034683F00103DBB2002B01D00023F6E1F96C9948FFF72EFDF865F96C9748FFF7F4FC55
S34560004E800346002B01D0FB6DE8E1FA6C934B9A4200F0CF81FA6C914B9A4200F2DB81FA6C8F4B9A4200F0B981FA6C8D4B9A4200F2D181FA6C8B4B9A4200F02881FA6C894BBB
S34560004EC09A4200F2C781FA6C874B9A427FD0FB6C854A934200F2BE81FB6C844A934220D0FB6C824A934200F2B581FB6C804A934200F0A281FB6C7E4A934200F2AB81FB6CCB
S34560004F000D2B04D0FB6C7B4A934252D0A2E1724B1B6803F07F03FA6D02FB03F35B08FB659BE1FB6D00223B647A646B4B1B6D0022BB63FA63D7E910342246D7E90E894146DF
S34560004F4001FB02F24D4618462146034603FB05F3134402464146A2FB01AB5B449B46C7E914ABC7E914AB5C4B1B6E00223B607A60D7E90023D7E9140104F090FF02460B46DC
S34560004F80C7E91423544B1B6B03F00103002B05D0FB6D162202FB03F3FB6505E0FA6D13469B0013449B00FB653B6DFA6D1344FB6553E1494B1B6903F00203002B01D01622C5
S34560004FC000E01422FB6D02FB03F3FB6545E1424B1B6F03F07F03BB65FB6D00223B637A633D4BD3F880300022BB62FA62D7E90C342246D7E90AAB514601FB02F25D461846A0
S345600050002146034603FB05F3134402465146A2FB01894B449946C7E91489C7E914892E4BD3F890300022BB60FA60D7E90223D7E9140104F033FF02460B46C7E91423FB6D9C
S34560005040BA6D03FB02F23B6D1344FB65224B1B6F03F4C013B3F5801F17D0B3F5801F0DD8002B03D0B3F5002F04D007E0FB6D9B08FB650BE0FB6D5B08FB6507E01E4B1F4A6D
S3456000508040F20C411E48FFF7B7FB00BF124BD3F870211C4B13401B4A93420ED0194A934213D8B3F5000F2FD0B3F5000F0DD8002B2AD0B3F5004F04D007E0FB6D9B08FB65FC
S345600050C023E0FB6D5B08FB651FE00B4B0B4A4FF484610B48FFF790FB00800D401500E0000D00E0000D00A0000D0070000D0030000D0020000D001000A8FA0060C8FA0060F2
S3456000510050FA00600080800000BFA6E0564BD3F8A03003F07F03BB65FB6D00223B627A62514BD3F8B0300022BB61FA61D7E908010B46D7E90689424602FB03F24B46844628
S345600051400CFB03F3134402464146A2FB01452B441D46C7E91445C7E91445434BD3F8C03000223B617A61D7E90423D7E9140104F095FE02460B46C7E91423FB6DBA6D03FBAD
S3456000518002F23B6D1344FB65374BD3F8A03003F4C013B3F5801F17D0B3F5801F0DD8002B03D0B3F5002F04D007E0FB6D9B08FB650BE0FB6D5B08FB6507E02C4B2C4A40F2DE
S345600051C04D412C48FFF718FB00BF274BD3F8703103F04043B3F1404F0ED0B3F1404F13D8B3F1004F17D0B3F1004F0DD8002B12D0B3F1804F04D007E0FB6D9B08FB650BE0B9
S34560005200FB6D5B08FB6507E0184B194A40F261411848FFF7F1FA00BF1FE0134BD3F8E03003F00303BB65144ABB6D52F82330FB6513E0124BFB6510E00B4B1B6A03F0020315
S34560005240002B01D0162200E01422FB6D02FB03F3FB6502E00023FB6500BFFB6D18466037BD46BDE8B08F00BF00800D40A8FA0060C8FA006050FA0060DCFA006040787D0195
S3456000528080B584B000AF0346FB712648FFF7DEFDF860FB79032B36D801A252F823F000BFB1520060C5520060DB520060F15200601D4BD3F8003103F03F03FA68B2FBF3F31D
S345600052C0FB6023E0184BD3F800311B0A03F03F03FA68B2FBF3F3FB6018E0134BD3F800311B0C03F03F03FA68B2FBF3F3FB600DE00D4BD3F800311B0E03F03F03FA68B2FB35
S34560005300F3F3FB6002E00023FB6000BFFA681346DB0013445B00FB60FB6818461037BD4680BD00BF0D00300000800D4080B584B000AF0346FB712648FFF788FDF860FB7971
S34560005340032B36D801A252F823F000BF5D53006071530060875300609D5300601D4BD3F8F03003F03F03FA68B2FBF3F3FB6023E0184BD3F8F0301B0A03F03F03FA68B2FB7C
S34560005380F3F3FB6018E0134BD3F8F0301B0C03F03F03FA68B2FBF3F3FB600DE00D4BD3F8F0301B0E03F03F03FA68B2FBF3F3FB6002E00023FB6000BFFA681346DB0013446F
S345600053C05B00FB60FB6818461037BD4680BD00BF0D00100000800D4080B500AF134BDB6803F08073B3F1807F05D0104BDB680F4A43F08073D3600E4B1B6803F00073B3F187
S34560005400007F05D10B4B0C4A82210C48FFF7F4F9074B1B6803F00103012B05D0044B1B68034A43F00103136000BF80BDF0ED00E0001000E0ECFA00609CFB00602CFB006028
S3456000544080B400AF024B5B681846BD4680BC7047001000E02DE9B04F8EB000AFF862B962FB6A002B6AD0FB6A00229A469346BB6A00229846914608FB0BF20AFB09F31344BA
S34560005480AAFB08452B441D462F4A4FF000032046294604F003FD02460B46C7E90C23D7E90C23012B05D3294B294AD5212948FFF7A3F9FFF791FFFFF7C3FF034600223B62AD
S345600054C07A62D7E90C23D7E9084521465118B960294643EB0101F960D7E90234C7E90C34D7E90C23012B19D3D7E90C23511C396043F1FF337B60D7E90034C7E90C3400BFC7
S34560005500FFF79EFF03460022BB61FA61D7E90C23D7E906010446A2428B41F1D300BFFFF78FFF034600223B617A61D7E90C23D7E904010446944271EB0303F0D300BF3837D0
S34560005540BD46BDE8B08F00BF40420F0088FB0060B8FB00602CFB006080B48BB000AFF860B9607A60FB687B617B6953E8003F3B613B697B62BB68DA437B6A13407A6813433E
S345600055807B627B6A3B62FB68FB61F9693A6A41E80023BB61BB69002BE4D100BF00BF2C37BD4680BC7047FFFF80B586B000AF03460A46FB8013467B71B7F906301B0A7B61C6
S345600055C0FB8803F01F033B617B69062B06D90E4B0E4A40F2BF510E48FFF70EF97B699A000C4B1344FB6003223B6902FA03F17A793B6902FA03F31A46F868FFF7ADFF00BFED
S345600056001837BD4680BD00BF14F80060E0FC0060CCFB006068C00F4080B582B000AF0346FB80B7F9063003211846FFF7BDFF00BF0837BD4680BD80B584B000AFF860B960B5
S345600056401346FB71FB791A46B968F86800F0ACF800BF1037BD4680BD80B584B000AF78600023FB6009E00E4AFB6852F823307A689A4206D0FB680133FB60FB68052BF2D93D
S3456000568000E000BFFB68052B05D9064B064A3C210648FFF7B1F8FB6818461037BD4680BD24FC006048FC0060CCFC00606CFC006080B586B000AFF860B9607A60F868FFF772
S345600056C0CBFF78617B69052B0DD8214A7B6932F91330B3F1FF3F06D01D4A7B6932F913301846FFF799FFFB685A690121BB6801FA03F3DB431A40FB685A617B681B78002BFB
S345600057000AD1FB685A680121BB6801FA03F3DB431A40FB685A600FE07B685B781A46B968F86800F017F8FB685A680121BB6801FA03F31A43FB685A607B689B781A46B96867
S34560005740F868FFF778FF00BF1837BD4680BD00BF3CFC006080B584B000AFF860B9601346FB71BB681F2B05D90C4B0D4A75210D48FFF742F8FB79002B06D10122BB689A4059
S34560005780FB68C3F8882005E00122BB689A40FB68C3F8842000BF1037BD4680BDC0FC0060F4FC00606CFC006080B487B000AFF860B9601346FB71BB683B61FB68DA690121A5
S345600057C0BB6801FA03F3DB431A40FB68DA61BB680F2B03D8FB680C337B6105E0FB6810337B613B69103B3B61FB79013B042B52D801A252F823F000BF0D5800602558006007
S34560005800495800606D580060835800607B691A683B695B00032101FA03F3DB431A407B691A6039E07B691A683B695B00032101FA03F3DB431A403B695B00012101FA03F334
S345600058401A437B691A6027E07B691A683B695B00032101FA03F3DB431A403B695B00022101FA03F31A437B691A6015E07B691A683B695B00032101FA03F31A437B691A6016
S345600058800AE0FB68DA690121BB6801FA03F31A43FB68DA6100E000BF00BF1C37BD4680BC704700BF80B48BB000AFF860B9607A60FB687B617B6953E8003F3B613B697B6238
S345600058C0BB68DA437B6A13407A6813437B627B6A3B62FB68FB61F9693A6A41E80023BB61BB69002BE4D100BF00BF2C37BD4680BC7047FFFF80B586B000AF03460A46FB80FF
S3456000590013467B71B7F906301B0A7B61FB8803F01F033B617B69062B06D90E4B0E4A40F2BF510E48FEF768FF7B699A000C4B1344FB6003223B6902FA03F17A793B6902FA35
S3456000594003F31A46F868FFF7ADFF00BF1837BD4680BD00BF14F8006098FE0060CCFB006068C00F4080B582B000AF0346FB80B7F9063003211846FFF7BDFF00BF0837BD4667
S3456000598080BD80B483B000AFEFF310833B603B687B6072B600BF7B6818460C37BD4680BC704780B485B000AF78607B68FB60FB6883F3108800BF00BF1437BD4680BC7047E1
S345600059C080B483B000AF78607B689B6843F002027B689A607B689B6823F002027B689A6000BF0C37BD4680BC7047FFFF80B584B000AF78600023FB600BE00E4AFB6852F82B
S34560005A0023307A689A4201D1FB680FE0FB680133FB60FB68082BF0D9FB68082B05D9064B064ABF210648FEF7E7FEFB6818461037BD4680BD04FD00603CFD006078FE006045
S34560005A4064FD006080B58CB000AFF860B9607A60BB68002B06D17C4B7C4A40F237117C48FEF7CAFEBB681B68002B06D1794B774A4FF49C717648FEF7BFFEBB681B7A032B14
S34560005A8006D9754B714A4FF49D717148FEF7B4FEBB685B7A032B06D9704B6C4A40F23B116B48FEF7A9FE0023FB62BB681B68FB61002387F823300023FB84042387F8223021
S34560005AC049E07A6813469B0013445B001946BB681B6897F8222002FB03F3B1FBF3F305335F4AA2FB0323DB08BB84BB8C002B02D10123BB8406E0BB8CB3F5005F02D341F686
S34560005B00FF73BB8497F82230BA8C02FB03F37A68B2FBF3F37B61BB681B687A699A4204D9BB681B687A69D31A03E0BB681A687B69D31A3B613A69FB699A4207D83B69FB6174
S34560005B4097F8223087F82330BB8CFB8497F82230013387F8223097F82230202BB1D9BB681B68404AA2FB03235A0913465B001344FA699A4203D940F22153FB62FEE0F868ED
S34560005B80FFF734FFB861384ABB6932F913301846FFF7E8FEF868FFF713FFFB681B69BB6297F82330032B07D997F82330072B03D8BB6A43F40033BB62BB6A23F0F853BB6258
S34560005BC097F82330013B1B0603F0F853BA6A1343BB62BA6A254B1340BB62FB8CC3F30C02BB6A1A43FB681A61FB681B6923F00052FB681A61FB689A691D4B1340BB62BB68F1
S34560005C001B791A46BB68DB7B1B0203F4E0631A43BB689B7B9B0003F004031343BA6A1343BB62BB685B79012B24D1BB681B79002B04D0BB6A23F40063BB6223E0BB6A43F439
S34560005C400063BB621EE000BFBCFD00608CFE006064FD0060CCFD0060E8FD006030FE0060CDCCCCCC1F85EB5128FD006000E0FFFFE8F8FFFFBB681B79002B03D0BB6A43F062
S34560005C801003BB62FB68BA6A9A61FB681B6923F40053BB62BB68DB795B0303F40052BB6A1A43FB681A61BB685B7A1B04BA68127A1A43FB68DA62FB689B6A43F08802FB6897
S34560005CC09A62FB689B6A43F44042FB689A622E4BBB62BB6A43F00043BB62BB6A43F44043BB62FB685A6ABB685B7B1B0103F01001BB681B7B5B0103F020030B431A43FB68FF
S34560005D005A62BB689B7A002B05D0FB685B6A43F00802FB685A62BB68DB7A002B05D0FB685B6A43F00102FB685A62BB689B79002B04D0BB6A43F00053BB6203E0BB6A23F077
S34560005D400053BB62FB685A69BB6A1A43FB685A61FB689B69BB62BB681B7C002B03D0BB6A43F40023BB62BB685B7C002B03D0BB6A43F48023BB62FB68BA6A9A61FB6A184656
S34560005D803037BD4680BD00BF00001F4080B582B000AF78607B68002B06D11F4B1F4A40F25B211F48FEF728FD14220021786804F04FFD7B684FF4E1321A607B6800221A7129
S34560005DC07B6800225A717B6800229A717B680022DA717B6800221A727B6800225A727B6800229A727B680022DA727B6800225A737B6800221A737B6800229A737B680022CE
S34560005E00DA737B6800221A747B6800225A7400BF0837BD4680BD00BFBCFD0060ACFE006064FD006080B584B000AF786039603A68254B13403B600023FB603B681B0203F4AA
S34560005E400043FA681343FB603B6823F080033B603B681B0203F48043FA681343FB603B6823F040033B60FFF78CFDB8607B681A69FB681A437B681A61B868FFF792FDFFF7BB
S34560005E8080FDB8607B689B6A23F440323B6803F440731A437B689A62B868FFF782FD3B6823F440733B60FFF76CFDB8607B689A693B681A437B689A61B868FFF772FD00BFD1
S34560005EC01037BD4680BD00BFC0C3F00F80B584B000AF786039603A68264B13403B600023FB603B681B0203F40043FA681343FB603B6823F080033B603B681B0203F4804311
S34560005F00FA681343FB603B6823F040033B60FFF738FDB8607B681A69FB68DB431A407B681A61B868FFF73DFDFFF72BFDB8607B689A6A3B6803F44073DB43134023F44032BE
S34560005F407B689A62B868FFF72CFD3B6823F440733B60FFF716FDB8607B689A693B68DB431A407B689A61B868FFF71BFD00BF1037BD4680BDC0C3F00F80B485B000AF7860AF
S34560005F807B689A69124B1340FB60FB6823F040027B681B691B0A03F040031343FB60FB6823F080027B681B691B0A03F080031343FB60FB6823F440727B689B6A03F44073F6
S34560005FC01343FB60FB6818461437BD4680BC7047C0C3F00F80B485B000AF78607B685B69FB607B689B6A1B0C03F0C303FA681343FB60FA68044B1340FB60FB6818461437CE
S34560006000BD4680BC704700BFC3C0FFC180B584B000AF786039603A681A4B13403B603B6803F00303002B10D07B689B6ABB60BB6823F47033BB603B681B0403F44033BA6894
S345600060401343BB607B68BA689A627B685B6903F078533A681343BB607B68BA685A617868FFF7B8FF02463B681340002B03D040F21A53FB6001E00023FB60FB6818461037E6
S34560006080BD4680BD03C01FC080B48BB000AFF860B9607A60FB687B617B6953E8003F3B613B697B62BB68DA437B6A13407A6813437B627B6A3B62FB68FB61F9693A6A41E878
S345600060C00023BB61BB69002BE4D100BF00BF2C37BD4680BC7047FFFF80B586B000AF03460A46FB8013467B71B7F906301B0A7B61FB8803F01F033B617B69062B06D90E4B47
S345600061000E4A40F2BF510E48FEF776FB7B699A000C4B1344FB6003223B6902FA03F17A793B6902FA03F31A46F868FFF7ADFF00BF1837BD4680BD00BF14F8006058FF006048
S34560006140CCFB006068C00F4080B582B000AF0346FB80B7F9063003211846FFF7BDFF00BF0837BD4680BDFFFF80B584B000AF78600023FB6006E00D4A7B68934206D0FB684F
S345600061800133FB60FB68002BF5D000E000BFFB68002B05D0064B074A3A210748FEF72CFBFB6818461037BD4680BD00BF00400840C4FE00603CFF0060E8FE006080B584B032
S345600061C000AF786039603B68002B05D1204B214A4A212148FEF710FB7868FFF7C5FF4FF486731846FFF7B0FF7B681B6823F002027B681A600023FB7312E0FB7B7A681B0121
S34560006200134403F584731A68FB7B22F0070279681B010B4403F584731A60FB7B0133FB73FB7B032BE9D93B681B78002B06D07B681B6823F001027B681A6005E07B681B6811
S3456000624043F001027B681A6000BF1037BD4680BDBCFD00604CFF0060E8FE006080B483B000AF0346FB80B7F90630002B0BDBFB8803F01F020649B7F906305B09012000FAB9
S3456000628002F241F8232000BF0C37BD4680BC704700E100E080B48BB000AFF860B9607A60FB687B617B6953E8003F3B613B697B62BB68DA437B6A13407A6813437B627B6ABA
S345600062C03B62FB68FB61F9693A6A41E80023BB61BB69002BE4D100BF00BF2C37BD4680BC7047FFFF80B586B000AF03460A46FB8013467B71B7F906301B0A7B61FB8803F0C5
S345600063001F033B617B69062B06D90E4B0E4A40F2BF510E48FEF770FA7B699A000C4B1344FB6003223B6902FA03F17A793B6902FA03F31A46F868FFF7ADFF00BF1837BD4661
S3456000634080BD00BF14F8006020000160CCFB006068C00F4080B582B000AF0346FB80B7F9063003211846FFF7BDFF00BF0837BD4680BD80B584B000AF0346FB800023FB60A4
S34560006380B7F9063013F1800F02D10123FB6004E0B7F906301846FFF761FFFB6818461037BD4680BD80B483B000AFEFF310833B603B687B6072B600BF7B6818460C37BD46D4
S345600063C080BC704780B485B000AF78607B68FB60FB6883F3108800BF00BF1437BD4680BC7047FFFF80B584B000AF78600023FB6009E00E4AFB6852F823307A689A4206D0A5
S34560006400FB680133FB60FB68022BF2D900E000BFFB68022B05D9064B064A2B210648FEF7EBF9FB6818461037BD4680BD6CFF006088FF006000000160ACFF006080B584B0B9
S3456000644000AF786039603B68002B05D1404B414A6A214148FEF7D0F90023FB810023BB603B681B789B009BB203F004039BB23A68527882F00102D2B2002A01D0802200E0E6
S34560006480002213439BB23A68927882F00102D2B213439BB23A68D27882F00102D2B2002A01D0022200E0002213439AB23B689B7A9B019BB203F040039BB213439AB23B6858
S345600064C0DB881B029BB213439AB23B681B7BDB009BB203F008039BB213439BB243F03003FB817868FFF77EFF03461C4A32F913301846FFF72FFFFFF755FFB8603B681B89FB
S34560006500DBB29AB23B681B79DB039BB213439AB27B68DA803B68DB7A1A467B681A817B68FA891A80B868FFF74DFF3B681B79002B09D07868FFF756FF0346094A32F9133033
S345600065401846FFF716FF00BF1037BD4680BD00BFBCFD006014000160ACFF006078FF006080FF006080B485B000AF78600023FB817B681B889BB203F004039AB2FB89134376
S34560006580FB817B689B889BB203F010039AB2FB891343FB817B689B889BB203F002039AB2FB891343FB817B689B889BB203F001039AB2FB891343FB817B68DB889BB203F49B
S345600065C080439AB2FB891343FB81FB8918461437BD4680BC704780B483B000AF78600B467B807B8803F48043002B07D07B68DB889BB243F480439AB27B68DA8000BF0C379C
S34560006600BD4680BC704780B584B000AF78600023FB60FFF7C7FEF8607B6845F255525A807B684AF6AA225A80F868FFF7CBFE00BF1037BD4680BD80B48BB000AFF860B96025
S345600066407A60FB687B617B6953E8003F3B613B697B62BB68DA437B6A13407A6813437B627B6A3B62FB68FB61F9693A6A41E80023BB61BB69002BE4D100BF00BF2C37BD46FC
S3456000668080BC704780B586B000AF03460A46FB8013467B71B7F906301B0A7B61FB8803F01F033B617B69062B06D90E4B0E4A40F2BF510E48FEF7A0F87B699A000C4B1344FD
S345600066C0FB6003223B6902FA03F17A793B6902FA03F31A46F868FFF7AEFF00BF1837BD4680BD00BF14F80060BC000160CCFB006068C00F4080B582B000AF0346FB80B7F976
S34560006700063003211846FFF7BDFF00BF0837BD4680BDFFFFFFFFFFFF2DE9B04FA2B000AFC7F88400C7F88010D7F88430002B05D1A94BAA4A9221AA48FEF75EF8D7F88030CE
S34560006740002B05D1A74BA54A9421A548FEF754F84FF40370FFF7CEFFD7F880300022BB67FA67D7E91E234FF000004FF00001990041EA9271900002460B46B96F5418F96FE5
S3456000678043EB01010D464FF000024FF000032B0143EA14732201B2EB040863EB050918EB08033B6349EB09037B63D7E90C8942464B468D495118396743F100037B6784A30E
S345600067C0D3E90023D7E91C0103F068FB02460B4613465A1E854B1A60D7F880300022BB66FA66D7E91A4522462B469118B9625B41FB62D7E90A2320462946044612EB040A7F
S345600068000C4643EB040B4FF000024FF000034FEA4B1343EADA634FEA4A121AEB02043C624BEB03037B62D7E90845234602469B183B660B462A4642EB03037B666A4BD7E92C
S3456000684018010246D318BB650B4643F10003FB655FA3D3E90023D7E9160103F01FFB02460B4613465A1E614B5A60D7F8803000223B657A65D7E9144522462B464FF0000078
S345600068804FF00001990041EA9271900002460B4621465118B96129464B41FB614FF000024FF00003D7E906894946CB00C44643EA5C734146CA0011462046091A39612A4694
S345600068C063EB02037B614FF000024FF00003D7E9048949460B01C44643EA1C7341460A0110461946034622469B18BB602B460A4642EB0303FB604FF000024FF00003D7E97A
S34560006900024529460B0120462946044643EA147301460A0136495118B96443F10003FB642BA3D3E90023D7E9120103F0B7FA02460B462E4B5B6801335B001344013B2B4ADF
S345600069409360D7F8803000223B647A64D7E9104522462B464FF000004FF00001990041EA9271900002460B46214651183960294643EB010179604FF000024FF00003D7E91F
S3456000698000452946CB0020462946044643EA54730146CA0014495118B96343F10003FB630BA3D3E90023D7E90E0103F077FA02460B460E4B5B6801335B001344013B0B4A6B
S345600069C0D36000BF8837BD46BDE8B08FAFF3008000CA9A3B0000000034000160B0000160440001609C00016000CA9A3BA00B00800065CD1D80B483B000AF78607B689B68A3
S34560006A0043F001027B689A6000BF7B689B6803F00103002BF9D000BF00BF0C37BD4680BC704780B483B000AF78607B689B6823F001027B689A6000BF7B689B6803F0010333
S34560006A40002BF9D100BF00BF0C37BD4680BC704790B587B000AF78607B68002B05D1334B334A64213348FDF7C7FE334B07F108040FCB07C423707B681B8840F2B1729342FF
S34560006A8019D97B681B8840F63302934213D87B689B780C2B0FD87B689B78002B0BD07B681B79172B07D87B685B793B2B03D87B689B793B2B01D9002333E07B681B8803F047
S34560006AC00303002B0CD17B681B881C4AA2FB03125209642101FB02F29B1A9BB2002B0DD17B681B88154AA2FB0312D2094FF4C87101FB02F29B1A9BB2002B01D11D23BB725F
S34560006B007B68DA787B689B7818333B4413F8103C9A4203D87B68DB78002B01D1002300E0012318461C37BD4690BD00BFD000016078010160E40001603C0101601F85EB5104
S34560006B40B0B58AB000AF78607B68002B05D1304B304A84213048FDF74FFE304B07F108041D460FCD0FC495E8070003C422807B681B881A4640F26D1303FB02F2284B134480
S34560006B807B627B681B889B089BB21A467B6A1344A3F5F6737B627B689B785B0028333B4433F8203C1A467B6A13447B627B68DB781A467B6A1344013B7B627B681B8803F013
S34560006BC00303002B06D17B689B78022B02D87B6A013B7B627B6A134A03FB02F27B681B7919464FF4616301FB03F31A447B685B7919460B461B015B1A9B0013447A689279F4
S34560006C0013447B627B6A18462837BD46B0BD00BFD000016094010160E40001604C0101603607F5FF8051010090B58BB000AF786039603B68002B05D14C4B4D4AA2214D4802
S34560006C40FDF7DAFD4C4B07F108040FCB07C423707B68BB61BB69494AA2FB03231B0C01333B62BB69454AA2FB0312120C444901FB02F29B1ABB61BB69424AA2FB0323DB0A76
S34560006C80DAB23B681A71BB693E4AA2FB0312D20A4FF4616101FB02F29B1ABB61BB693A4AA2FB03235B09DAB23B685A71B969364BA3FB01235A0913461B019B1A9B00CA1A7A
S34560006CC0D2B23B689A7140F26D13FB833B6840F2B2721A8016E0FB8B3A6AD31A3B623B681B8801339AB23B681A803B681B8803F00303002B03D040F26D13FB8302E04FF4FA
S34560006D00B773FB83FB8B3A6A9A42E4D83B681B8803F00303002B01D11D23BB7201237B6219E007F108027B6A13441B781A463B6A934204D87B6ADAB23B689A700EE007F155
S34560006D4008027B6A13441B781A463B6A9B1A3B627B6A01337B627B6A0C2BE2D93B6ADAB23B68DA7000BF2C37BD4690BDD0000160B8010160E40001603C01016007452EC2B6
S34560006D8080510100C5B3A2918988888880B483B000AF786000BF0C37BD4680BC7047FFFF80B582B000AF786039603B68002B06D11A4B1B4A40F217111A48FDF71DFD78684B
S34560006DC0FFF7E4FF7B685B6843F000427B685A607B689B6823F0F0023B689B681B01DBB21A437B689A603B681B78002B11D07B689B6823F4F8423B685B689B0203F4F8437A
S34560006E001A437B689A607B689B6843F480727B689A6000BF0837BD4680BD00BF68010160DC010160E400016080B582B000AF78607B68002B06D10C4B0C4A40F23F110C4826
S34560006E40FDF7DAFC0C220021786803F001FD7B6800221A707B6800225A607B6800229A6000BF0837BD4680BD68010160F0010160E400016080B485B000AF78600023BB60A8
S34560006E800023FB60FB68BB607B685B6A5B04FB607B689B6ADB0BFA681343FB60FA68BB689A42EFD1BB6818461437BD4680BC704780B584B000AF786039603B68002B06D11C
S34560006EC0194B1A4A4FF4B2711948FDF795FC0023FB607B689B68BB607868FFF7A2FD3868FFF7B6FD034683F00103DBB2002B01D0042314E03868FFF723FEF860FB685A0C9F
S34560006F007B685A62FB68DA037B689A62BB6803F00103002B02D07868FFF76CFD002318461037BD4680BD00BFD000016010020160E400016080B582B000AF786039603B68FD
S34560006F40002B06D1094B0A4A40F289110948FDF753FC7868FFF78EFF034639681846FFF763FE00BF0837BD4680BD00BFD000016028020160E400016080B483B000AFEFF3A9
S34560006F8010833B603B687B6072B600BF7B6818460C37BD4680BC704780B485B000AF78607B68FB60FB6883F3108800BF00BF1437BD4680BC704780B483B000AF78607B682F
S34560006FC09B6918460C37BD4680BC704780B483B000AF786039607B683A689A6100BF0C37BD4680BC7047FFFFB0B58AB000AF0346FB71294B1B687B62284B07F108041D46E2
S345600070000FCD0FC495E8030084E80300FB799B0028333B4453F8203C1846FFF7CCFF3862FB799B0028333B4453F8203C396A1846FFF7CCFF28E07B6A5B7B03F01C03DBB24F
S34560007040002B1ED07B6A1B7BC3F30303DBB21A46FB79934215D17B6A9B89C3F30413DBB21A463B6AD34003F00103002B09D07B6A5B68002B05D07B6A5B687A6A9268104644
S3456000708098477B6A1B687B627B6A002BD3D100BF00BF2837BD46B0BDB00B00804002016080B500AF0120FFF79FFFBFF34F8F00BF00BF80BD80B500AF0120FFF795FFBFF342
S345600070C04F8F00BF00BF80BD80B500AF0220FFF78BFFBFF34F8F00BF00BF80BD80B500AF0220FFF781FFBFF34F8F00BF00BF80BD80B500AF0320FFF777FFBFF34F8F00BF37
S3456000710000BF80BD80B500AF0320FFF76DFFBFF34F8F00BF00BF80BD80B500AF0420FFF763FFBFF34F8F00BF00BF80BD80B500AF0420FFF759FFBFF34F8F00BF00BF80BDED
S3456000714080B500AF0520FFF74FFFBFF34F8F00BF00BF80BD80B500AF0520FFF745FFBFF34F8F00BF00BF80BD80B483B000AF78600B46FB701346BB7017E07B681B7BC3F32F
S345600071800303DBB21A46FB789A420BD17B689B89C3F30413DBB21A46BB789A4202D142F6477306E07B681B687B607B68002BE4D1002318460C37BD4680BC704780B584B0A9
S345600071C000AF786039607B681B68FB60FFF7D4FEB860FB68002B10D17B683A681A6013E0FA683B689A4205D1B868FFF7D5FE42F6477310E0FB681B68FB60FB681B68002B33
S34560007200EED1FB683A681A603B6800221A60B868FFF7C2FE002318461037BD4680BDFFFFB0B58CB000AF786039604D4B07F110041D460FCD0FC495E8030084E80300002306
S34560007240FB8500233B7300237B730023BB737B68002B06D1434B444A4FF48C714348FDF7CBFA3B68002B06D1414B3F4A40F219113E48FDF7C1FA7B68BB623B689B789B00D4
S3456000728030333B4453F8203C002B02D142F6457362E0384B1B68002B0ED0364B18683B6899783B68DB781A46FFF75EFF0346002B02D042F647734FE0B96A2E48FFF77EFFCF
S345600072C00346FB85FB8D002B01D0FB8D44E03B68DB7803F01F03D9B2BA6A938961F3081393813B689B7803F00F03D9B2BA6A137B61F3030313733B681B7803F00103D9B246
S34560007300BA6A537B61F341035373BA6A537B6FF3840353733B681B78012B05D101233B733B685B787B7301E000233B73BB6A1B7BC3F30303DBB29B0030333B4453F8200CDE
S34560007340BB6A9B89C3F30413DBB2194607F10C031A46FEF7ADF9002318463037BD46B0BD4002016070020160F40201607C020160E8020160B00B0080B0B58AB000AF7860F3
S345600073800B46FB70194B07F10C041D460FCD0FC495E8030084E803007B68002B06D1144B144A40F267111448FDF726FA7B687B627B6A1B7BC3F30303DBB29B0028333B4489
S345600073C053F81C0C7B6A9B89C3F30413DBB21946FB78002B01D0012300E000231A46FEF7B9F9002318462837BD46B0BD4002016070020160040301607C02016080B483B0E1
S3456000740000AF0346FB80B7F90630002B0BDBFB8803F01F020649B7F906305B09012000FA02F241F8232000BF0C37BD4680BC704700E100E080B483B000AF03463960FB8095
S34560007440B7F90630002B0ADB3B68DAB20C49B7F906301201D2B20B4483F800230AE03B68DAB20849FB8803F00F03043B1201D2B20B441A7600BF0C37BD4680BC704700BF64
S3456000748000E100E000ED00E080B584B000AF0346FB800023FB60B7F9063013F1800F02D10123FB6004E0B7F906301846FFF7A6FFFB6818461037BD4680BD80B483B000AF92
S345600074C078600B46FB70FA787B68DA6100BF0C37BD4680BC704780B487B000AF78607B689B693B613B6903F40063002B0ED13B6903F40063002B0BD13B6903F01003002BB3
S3456000750006D13B6903F00203002B01D0012300E00023FB73FB7B03F00103FB73FB7B002B06D07B68DB69DBB203F07F03FB7502E07B68DB69FB75FB7D18461C37BD4680BC15
S34560007540704780B485B000AF78607B68002B02D10023FB8102E042F6AF73FB81FB8918461437BD4680BC7047B0B586B000AF0346FB71FB798E4A52F82330FB60FB68002BD2
S3456000758006D18C4B8C4A40F2B1118C48FDF734F9FB798B4A52F823301846FEF71BFD78617B6903F40023002B0DD0FB79844A52F823305A69834B1340FA79814951F822203D
S345600075C043F4002353617B6903F48023002B09D17B6903F40033002B04D17B6903F48033002B3DD07B6903F48023002B08D0FB79734A52F823304FF480211846FEF706FD37
S345600076007B6903F40033002B08D0FB796C4A52F823304FF400311846FEF7F8FC7B6903F48033002B08D0FB79654A52F823304FF480311846FEF7EAFC7B6903F40013002BBA
S3456000764006D0FB795E4A52F823301846FFF743FFFB795B4A52F823301846FEF7BBFC78617B6903F40013002B0BD0FB79544A52F823301846FEF780FC034603F40013002BF6
S3456000768010D17B6903F48013002B6ED0FB794C4A52F823301846FEF76FFC034603F48013002B62D0FB68DB68002B41D0FB79444A52F82330DB6A1B0EDBB203F00703FB742F
S345600076C033E0FB7C013BFB74FB793D4A52F82350FB68DA68FB685B69581CF9684861D4182846FFF7F8FE03462370FB685A69FB681B699A4219D3FB79314A52F823304FF02B
S3456000770003611846FEF7E2FBFB680022DA600023FB74FB685B68002B07D0FB685B68FA68926842F6AC71F8689847FB7C002BC8D17B6903F48013002B17D0FB79204A52F8DD
S3456000774023301846FEF718FC034603F48013002B0BD0FB791A4A52F823305A69FB79184951F8233042F480125A617B6903F40003002B60D0FB79124A52F823301846FEF7EB
S34560007780FBFB034603F40003002B54D0FB689B69002B50D0FB790A4A52F82330DB6A1B0ADBB203F00703DBB2C3F10403FB743FE0B40B008050030160940401606403016046
S345600077C0180301600000E03FFB7C013BFB74FB791B4A52F82340FB689A69FB681B6A581CF968086213441B7819462046FFF765FEFB681A6AFB68DB699A4219D3FB79104A27
S3456000780052F823304FF400011846FEF75FFBFB6800229A610023FB74FB685B68002B07D0FB685B68FA68926842F6AB71F8689847FB7C002BC8D100BF1837BD46B0BD00BF8D
S345600078401803016080B58AB000AF786039600023FB8407F10C031846FEF798FA3B685B68FB603B681B7A3B743B685B7AFB743B689B7A002B14BF01230023DBB27B773B685B
S34560007880DB7A002B14BF01230023DBB23B773B68DB7B002B08D03B68DB7B042B28BF0423DBB2013BDBB23B753B681B7C002B08D03B681B7C042B28BF0423DBB2013BDBB247
S345600078C07B753B681B7B002B14BF01230023DBB2BB753B685B7B002B14BF01230023DBB2FB750123BB760123FB763B689B7B1A460B4B53F822003B681A6807F10C031946EB
S34560007900FEF7A0F838623B6A002B04D0386AFFF718FE0346FB84FB8C18462837BD4680BD1803016080B584B000AF786039607B68002B06D12C4B2D4A40F2BA212C48FCF7D0
S345600079405BFF3B68002B06D12A4B284A40F2BB212748FCF751FF3B689B7B082B06D9264B224A4FF42F712248FCF746FF3B689B7B1A46224B53F82230002B06D1204B1B4AD9
S3456000798040F2BD211A48FCF737FF39687868FFF759FF0346FB81FB89002B1FD17B68BB603B689A7BBB681A70BB681B781946154ABB6842F82130BB681B781A46124B33F96F
S345600079C0123003211846FFF735FDBB681B781A460D4B33F912301846FFF756FDFB8918461037BD4680BD00BFD0030160AC04016064030160E0030160F40301601803016065
S34560007A0044040160B40B00803C03016080B586B000AFF860B9607A60FB68002B06D10A4B0A4A40F2DE310A48FCF7E6FEFB687B617B697A689A607B69BA685A60002318463B
S34560007A401837BD4680BD00BFD0030160BC0401606403016080B586B000AFF860B9607A60FB68002B06D11E4B1E4A40F2EB311E48FCF7C2FEBB68002B06D11C4B194A4FF401
S34560007A807B711948FCF7B8FE7B68002B06D1184B144A40F2ED311448FCF7AEFEFB687B617B69DB68002B02D042F6AA7314E07B697A681A617B6900225A617B69BA68DA608B
S34560007AC07B691B781A460B4B53F822304FF003611846FEF7A7F9002318461837BD4680BDD0030160D40401606403016078040160880401601803016080B586B000AFF860C3
S34560007B00B9607A60FB68002B06D11E4B1E4A40F205411E48FCF770FEBB68002B06D11C4B194A40F206411948FCF766FE7B68002B06D1184B144A40F207411448FCF75CFE8E
S34560007B40FB687B617B699B69002B02D042F6A97314E07B697A68DA617B6900221A627B69BA689A617B691B781A460B4B53F822304FF400011846FEF755F900231846183730
S34560007B80BD4680BDD0030160F00401606403016078040160880401601803016080B584B000AF78607B68002B06D1104B104A40F239411048FCF720FE7B68FB60FB68DB6805
S34560007BC0002B0DD0FB681B781A460B4B53F822304FF002611846FEF779F9FB680022DA60002318461037BD4680BD00BFD003016008050160640301601803016080B584B092
S34560007C0000AF78607B68002B06D1094B094A40F282410948FCF7F0FD7B68FB60FB681B781846FFF7A1FC00BF1037BD4680BD00BFD0030160200501606403016080B500AF15
S34560007C400120FFF791FCBFF34F8F00BF00BF80BD80B500AF0220FFF787FCBFF34F8F00BF00BF80BD80B500AF0320FFF77DFCBFF34F8F00BF00BF80BD80B500AF0420FFF726
S34560007C8073FCBFF34F8F00BF00BF80BD80B500AF0520FFF769FCBFF34F8F00BF00BF80BD80B500AF0620FFF75FFCBFF34F8F00BF00BF80BD80B500AF0720FFF755FCBFF34B
S34560007CC04F8F00BF00BF80BD80B500AF0820FFF74BFCBFF34F8F00BF00BF80BD80B483B000AF0346FB80B7F90630002B0BDBFB8803F01F020649B7F906305B09012000FAD5
S34560007D0002F241F8232000BF0C37BD4680BC704700E100E080B483B000AF03463960FB80B7F90630002B0ADB3B68DAB20C49B7F906301201D2B20B4483F800230AE03B68D0
S34560007D40DAB20849FB8803F00F03043B1201D2B20B441A7600BF0C37BD4680BC704700BF00E100E000ED00E080B584B000AF0346FB800023FB60B7F9063013F1800F02D198
S34560007D800123FB6004E0B7F906301846FFF7A6FFFB6818461037BD4680BDFFFF80B582B000AF78607B68002B05D1064B064A6B210648FCF721FD7B6800221A7000BF0837EA
S34560007DC0BD4680BDBCFD00609C0601603405016080B485B000AFF8600B467A60FB72FB7AFA681B01134403F584731968FB7A7A680A43F9681B010B4403F584731A6000BFCD
S34560007E001437BD4680BC704780B485B000AFF8600B467A60FB72FB7AFA681B01134403F586737A681A6000BF1437BD4680BC704780B584B000AFF8600B467A60FB727B6811
S34560007E40002B05D1084B094AF8210948FCF7D4FCFB7A7A68013AF96810331B010B441A6000BF1037BD4680BD88050160B40601603405016080B483B000AF78600B46FB701A
S34560007E80FB787A681B01134403F584731A68FB7842F0010279681B010B4403F584731A6000BF0C37BD4680BC7047FFFF80B584B000AF0346FB71FB790B4A52F82330FB6042
S34560007EC00A4B012200211846FFF79EFFFB689B68002B05D0FB689B68FA68D2681046984700BF1037BD4680BDD80B00800040084080B500AF0020FFF7D9FFBFF34F8F00BFA3
S34560007F0000BF80BD2DE9F04F89B000AF78603960474A07F1100392E8030083E803007B68FB613B68002B05D1424B434A69214348FCF762FC7B68002B05D1414B3E4A6A21C4
S34560007F403E48FCF759FC3B681B7A002B05D03D4B394A6B213948FCF74FFC3B681A68FB691A603B681A7AFB691A74FB691B7CDB0020333B4433F8103C7B8307F10C03184691
S34560007F80FFF70CFF304B002B05D1304B2A4A74212A48FCF731FC2C4A07F10C0319461046FEF70CF93B685A68FB695A60264EFB691B6800229A469346FB695B6800229846BC
S34560007FC0914608FB0BF20AFB09F31344AAFB08452B441D461E4A4FF000032046294601F05DFF02460B4613461A4600213046FFF71FFF154B022200211846FFF7E9FEFB691B
S345600080001B7C1946134A7B6842F82130B7F91A3003211846FFF77EFEB7F91A301846FFF7A3FE002318462437BD46BDE8F08F00BF84060160940501608C060160A405016098
S345600080400C0601601C060160004008406006016040420F00D80B008080B584B000AF78607B68002B05D1084B084A8F210848FCF7C3FB7B68FB60074B00211846FFF7FAFE3A
S3456000808000BF1037BD4680BD0C060160C8060160A40501600040084080B586B000AFF860B9607A60FB68002B05D1094B094A9F210948FCF7A1FBFB687B617B69BA689A6091
S345600080C07B697A68DA6000BF1837BD4680BD00BF0C060160D8060160A405016080B483B000AFEFF310833B603B687B6072B600BF7B6818460C37BD4680BC704780B485B0E3
S3456000810000AF78607B68FB60FB6883F3108800BF00BF1437BD4680BC704780B485B000AF786039600023FB817B68DB68002B08D07B68DA687B689B689A4202D143F27A73B7
S34560008140FB81FB8918461437BD4680BC704780B584B000AF78603960FFF7C0FFF86000237B8139687868FFF7D8FF03467B817B89002B19D17B689B68002B03D17B683A682F
S345600081801A6003E07B685B683A681A603B687A685A603B6800221A607B683A685A607B689B685A1C7B689A60F868FFF7A7FF7B8918461037BD4680BD80B584B000AF78606F
S345600081C0FFF78CFFB8607B68002B03D07B689B68002B02D10023FB6015E07B681B68FB607B689B685A1E7B689A607B689B68002B02D17B6800225A60FB6800225A60FB6807
S345600082001A687B681A60B868FFF778FFFB6818461037BD4680BD80B483B000AF78607B681B6818460C37BD4680BC704780B483B000AFEFF310833B603B687B6072B600BFAE
S345600082407B6818460C37BD4680BC704780B485B000AF78607B68FB60FB6883F3108800BF00BF1437BD4680BC704780B483B000AFEFF305837B607B68002B14BF012300233D
S34560008280DBB218460C37BD4680BC704780B582B000AF786039603B6819467868FFF757FF00BF0837BD4680BD80B582B000AF78607868FFF781FF00BF0837BD4680BDFFFFC1
S345600082C080B584B000AF78604FF0FF33FB600A4B1B68002B0AD0084B1B681B68002B05D0054B1B681B6878689847F860FB6818461037BD4680BD00BFDC0B008080B584B0E2
S3456000830000AF78604FF0FF33FB600A4B1B68002B0AD0084B1B685B68002B05D0054B1B685B6878689847F860FB6818461037BD4680BD00BFDC0B008080B584B000AF786003
S3456000834043F22153FB817B68C4331846FFF763FFB860BB68002B1DD00020FFF7B1FF7B689B78012B0CD17B6803F10C00BB689968BB68DB681A4600F017FC0346FB8103E052
S3456000838043F22153FB8100BFFB89002B02D00020FFF7B4FFFB8918461037BD4680BD80B586B000AFF860B9607A603B6043F22153FB82BB68002B0CD0FB689B78012B08D1F5
S345600083C0FB680C333A687968184600F021FC0346FB82FB8A18461837BD4680BD80B584B000AF7860FFF722FFF8607B689B78012B05D17B680C33184600F04BFC00E000BFA2
S34560008400F868FFF723FF00BF1037BD4680BD80B588B000AF78607B68BB61BB69002B59D0BB69D4331846FFF7F6FEF86123E0BB69D4331846FFF738FFFB699B68BB60FB6942
S345600084401B69FB60FB6900229A60FB69DB69002B08D0FB69DB69FA69106AFA69D28A07F108019847BB69D4331846FFF7D4FEF8610020FFF743FFFB69002BD8D1FFF7D6FE64
S345600084807861BB695B683B617869FFF7DFFE3B69002B1FD03B699B68002B1BD03B691A693B69DB689A4215D33B699B68BB603B691B69FB603B6900229A603B69DB69002BE1
S345600084C008D03B69DB693A69106A3A69D28A07F10801984700BF2037BD4680BD80B586B000AFF860B9601346FB80FB68002BFCD0BB68002BFCD0FB687B617B69C4331846B9
S34560008500FFF789FE38613B69002B22D07B69C4331846FFF7C9FE7869FFF70EFFBB685A683B691A613B69FA88DA823B691B7D012B09D17B69D43339691846FFF7A7FE7869F5
S34560008540FFF765FF05E03B6900229A600020FFF7D5FE00BF1837BD4680BD90B58BB000AFF860B9601346FB8000237B62FB68002BFCD0BB68002BFCD0FB68BB6143F223534D
S34560008580FB80FFF753FE7861BB69D3F8BC20BB685B681A44BB69D3F8B8309A4246D300233B623DE0BB681A683B6A1A44BB69D3F8B410BB69D3F8BC305C1CB869C0F8BC407F
S345600085C00B4412781A70BB69D3F8BC20BB69D3F8B8309A4203D3BB690022C3F8BC20BB69D3F8BC20BB69D3F8C0309A4215D143F22653FB80BB69D3F8C0305A1CBB69C3F8B8
S34560008600C020BB69D3F8C020BB69D3F8B8309A4203D3BB690022C3F8C0203B6A01333B62BB685B683A6A9A42BCD316E0BB69D3F8B420BB69D3F8BC30D018BB681968BB680D
S345600086405B681A46FBF7ACFDBB69D3F8BC20BB685B681A44BB69C3F8BC20BB69D3F8BC20BB69D3F8B8301A44BB69D3F8C030D31A7B62BB69D3F8B8207B6AB3FBF2F101FB2A
S3456000868002F29B1A7B62BB695B68002B6BD0BB695B689B68002B66D0BB695B68DA68BB695B681B699A4245D9BB695B68DA68BB695B681B69D31A3B610023FB612AE0BB69DE
S345600086C0D3F8B420BB69D3F8C0301A44BB695B689968BB695B681B690B4412781A70BB69D3F8C0305A1CBB69C3F8C020BB695B681A6901321A61BB69D3F8C020BB69D3F898
S34560008700B8309A4203D3BB690022C3F8C020FB690133FB613A697B6A934228BF1346FA699A42CCD33A697B6A934228BF13467A6AD31A7B62BB695B68DA68BB695B681B690A
S345600087409A4210D8BB695B681B7D002B04D1BB695B6800229A6006E0BB695B680022DA82B869FFF754FEBB6959687B6A0022B869FFF715FE7B6A002B17D0BB6800221A60CD
S34560008780BB687A6A5A60BB695B68002B0DD0BB695B68DB69002B08D0BB695B68DB69BA695268106AFA88B9689847BB691B8848F6417293420DD1BB69D3F8B8207B6AD31A6D
S345600087C0013B7B62BB6959687B6A0022B869FFF7E6FD7869FFF73AFD00BF2C37BD4690BD80B483B000AF786000BF0C37BD4680BC7047FFFF80B588B000AFF860B9607A6049
S34560008800FB700023FB77FB68002BFCD0BB68002BFCD07B68002BFCD0FB68BB61BB699B697B617B69002BFCD0BB695B6A2B4A9342FAD1FB78012B03D1BB69DB69002BF8D05A
S34560008840FFF7F4FC3861BB699B68002B05D03869FFF7FCFC43F222533BE0BB69BA689A60BB697A68DA60BB6900221A61BB69FA781A757B69C4331846FFF7CDFC0346002BC6
S3456000888001D10123FB777B69C433B9691846FFF7FDFC3869FFF7DAFCFB7F002B02D07869FFF74AFDFB78002B12D10BE0FFF7DDFC0346002B03D07869FFF790FD02E00120B5
S345600088C0FFF78EFFBB69DA68BB691B699A42EDD8002318462037BD4680BD00BF5457BBAA80B584B000AF7860396043F22153FB813B68002BFCD07B68002BFCD000BF7B6835
S34560008900BB603B681B68002BFBD03B685B68002BFBD04FF492720021B86801F099FF3B685A89BB681A803B681A7ABB689A703B681A68BB68C3F8B4203B685A68BB68C3F86C
S34560008940B8203B681B7A012B1CD1BB6803F10C023B68DB681946104600F0F8F80346FB81FB89002B10D1BB680C33BA680949184600F05FF9BB680C33BA680749184600F0D5
S345600089806FF901E000BF00E000BFFB8918461037BD4680BDDD8400605B85006080B586B000AF786039607B68002BFCD03B68002BFCD000BF7B687B613B683B61FFF736FC5C
S345600089C0F8607B699B685A1C7B699A60F868FFF73DFC7B691B8848F64172934204D13B697A699A6100230BE02C220021386801F02FFF3B697A699A613B69034A5A620023BD
S34560008A0018461837BD4680BD5457BBAA80B584B000AFF860B9607A6001237A68B968F868FFF7E8FE034618461037BD4680BDFFFF80B487B000AFF860B9607A60FB68002BEE
S34560008A40FCD0FB687B617B695B6A074A9342FAD17B697A681A627B69BA68DA61002318461C37BD4680BC70475457BBAA80B582B000AF78607B6893F87930DBB2012B14D1EB
S34560008A807B68012283F8782078687B687A3301221946FEF7DFFF0346002B06D07B68002283F8782043F2215300E0002318460837BD4680BD80B588B000AFF8600B467A60E8
S34560008AC07B817B68002BFCD07B68FB617B8942F6AC72934215D1FB691846FFF75FF8FB691B6F002B2ED0FB697A337B610123BB61FB691B6FFA69506F07F114010022984775
S34560008B0020E07B8942F6AB7293421BD1FB6993F86C30DBB2002B15D0FB69002283F86C20FB695B6E002B0DD0FB69DB6D7B61FB691B6EBB61FB695B6EFA69906E07F114019F
S34560008B400022984700BF2037BD4680BD80B586B000AF786039603B687B6100237B823B68002BFCD07B68002BFCD000BF7B68FB60FB6839681846FEF7D5FE03467B827B8A28
S34560008B80002BFCD17B699A7AFB6883F87920FB68FA6804491846FEF739FF7B8A18461837BD4680BDB58A006080B586B000AFF860B9607A60FB68002BFCD0BB68002BFCD0E1
S34560008BC07B68002BFCD0FB687B617B6993F86C30DBB2002B02D043F2225315E07B69012283F86C207B69BA68DA657B697A681A667B697A68B9681846FEF77EFF03467B822C
S34560008C007B8A002BFCD1002318461837BD4680BD80B584B000AFF860B9607A60FB68002BFCD0F868FFF722FF034618461037BD4680BD80B487B000AFF860B9607A60FB6897
S34560008C40002BFCD0FB687B617B69BA685A667B697A689A66002318461C37BD4680BC704780B586B000AFF860B9607A60FB68002BFCD0FB687B617B69BA681A677B697A68B7
S34560008C805A677869FFF7F2FE002318461837BD4680BD80B584B000AF78607B68002BFCD07B68FB60FB681846FEF7A8FF00BF1037BD4680BD80B582B000AF0346FB7197F9B0
S34560008CC00730002B02DBFB79002B05D1074B084A0F210848FBF790FDFB795B00DBB2013BDBB218460837BD4680BD00BFF4060160940701603007016080B584B000AF3B466E
S34560008D0000221A605A609A609A8101233B7001237B700123BB700123FB700A20FFF7CAFF0346FB8004233B813B4619460348FDF785FB00BF1037BD4680BD00BF00800B40A7
S34560008D4080B400AF0A231846BD4680BC7047FFFF80B500AF0248FDF756FC00BF80BD00BF00800B4080B582B000AF0748FDF7FAFB0346FB80FB88DBB203F01303DBB218461B
S34560008D800837BD4680BD00BF00800B4080B500AF4FF480410248FDF71EFC00BF80BD00BF00800B4080B582B000AF7860084B1B7883F00103DAB2064B1A70054B1B7819468A
S34560008DC07868FEF7D9FA00BF0837BD4680BD00BF040C008080B582B000AF78607868FFF7E1FFFFF7B5FF00BF0837BD4680BDFFFF80B584B000AF78600A4B1B68FB6007F133
S34560008E000C0319467868FEF70BFA0346002B05D0054B064A38210648FBF7EEFC00BF1037BD4680BD5C080160AC070160E4090160F807016080B588B000AFF860B960134665
S34560008E40FB800420FBF7CEFEF86107F1100300221A605A609A600F4B3B61FB697B6107F110031946F868FFF74DF80346002B05D0094B0A4A47210A48FBF7BEFCBA68094975
S34560008E80F868FFF709F9F868FFF7E6F800BF2037BD4680BD40420F0060080160F8090160F8070160D58D006080B586B004AFFF23FB713C4B019300230093002300223A4947
S34560008EC0032000F0A1FB4FF47A730293374B019300230093002300223349032000F094FB3348FFF785FF4FF47A7231493148FFF7A1FF314B019300230093002300222A493E
S34560008F00032000F081FBFFF71BFF034602932B4B019300230093002300222349032000F073FBFFF71FFF0346FB71FB79102B06D0102B25DC012B18D0022B0BD020E0204B4B
S34560008F40019300230093002300221749022000F05BFB20E01B4B019300230093002300221149022000F050FB15E0174B019300230093002300220C49022000F045FB0AE011
S34560008F80124B019300230093002300220649022000F03AFB00BFFFF7AFFEFB7918460837BD4680BDC8080160BC080160E8080160E00B0080F00B008008090160200901608D
